{
	"contracts/Wallet.sol": {
		"WalletX": {
			"abi": [
				{
					"anonymous": false,
					"inputs": [
						{
							"indexed": true,
							"internalType": "uint256",
							"name": "escrowId",
							"type": "uint256"
						},
						{
							"indexed": true,
							"internalType": "address",
							"name": "receiver",
							"type": "address"
						},
						{
							"indexed": false,
							"internalType": "uint256",
							"name": "at",
							"type": "uint256"
						}
					],
					"name": "Claimed",
					"type": "event"
				},
				{
					"anonymous": false,
					"inputs": [
						{
							"indexed": true,
							"internalType": "uint256",
							"name": "escrowId",
							"type": "uint256"
						},
						{
							"indexed": true,
							"internalType": "address",
							"name": "sender",
							"type": "address"
						},
						{
							"indexed": true,
							"internalType": "address",
							"name": "receiver",
							"type": "address"
						},
						{
							"indexed": false,
							"internalType": "uint256",
							"name": "amount",
							"type": "uint256"
						}
					],
					"name": "EscrowCreated",
					"type": "event"
				},
				{
					"anonymous": false,
					"inputs": [
						{
							"indexed": true,
							"internalType": "uint256",
							"name": "escrowId",
							"type": "uint256"
						},
						{
							"indexed": true,
							"internalType": "address",
							"name": "sender",
							"type": "address"
						},
						{
							"indexed": false,
							"internalType": "uint256",
							"name": "at",
							"type": "uint256"
						}
					],
					"name": "Refunded",
					"type": "event"
				},
				{
					"inputs": [
						{
							"internalType": "uint256",
							"name": "escrowId",
							"type": "uint256"
						}
					],
					"name": "claim",
					"outputs": [],
					"stateMutability": "nonpayable",
					"type": "function"
				},
				{
					"inputs": [
						{
							"internalType": "address",
							"name": "receiver",
							"type": "address"
						}
					],
					"name": "createEscrow",
					"outputs": [
						{
							"internalType": "uint256",
							"name": "",
							"type": "uint256"
						}
					],
					"stateMutability": "payable",
					"type": "function"
				},
				{
					"inputs": [],
					"name": "escrowCount",
					"outputs": [
						{
							"internalType": "uint256",
							"name": "",
							"type": "uint256"
						}
					],
					"stateMutability": "view",
					"type": "function"
				},
				{
					"inputs": [
						{
							"internalType": "uint256",
							"name": "",
							"type": "uint256"
						}
					],
					"name": "escrows",
					"outputs": [
						{
							"internalType": "address",
							"name": "sender",
							"type": "address"
						},
						{
							"internalType": "address",
							"name": "receiver",
							"type": "address"
						},
						{
							"internalType": "uint256",
							"name": "amount",
							"type": "uint256"
						},
						{
							"internalType": "enum WalletX.EscrowStatus",
							"name": "status",
							"type": "uint8"
						},
						{
							"internalType": "uint256",
							"name": "createdAt",
							"type": "uint256"
						},
						{
							"internalType": "uint256",
							"name": "claimedAt",
							"type": "uint256"
						},
						{
							"internalType": "uint256",
							"name": "refundedAt",
							"type": "uint256"
						}
					],
					"stateMutability": "view",
					"type": "function"
				},
				{
					"inputs": [
						{
							"internalType": "uint256",
							"name": "escrowId",
							"type": "uint256"
						}
					],
					"name": "getEscrowDetails",
					"outputs": [
						{
							"internalType": "address",
							"name": "sender",
							"type": "address"
						},
						{
							"internalType": "address",
							"name": "receiver",
							"type": "address"
						},
						{
							"internalType": "uint256",
							"name": "amount",
							"type": "uint256"
						},
						{
							"internalType": "enum WalletX.EscrowStatus",
							"name": "status",
							"type": "uint8"
						},
						{
							"internalType": "uint256",
							"name": "createdAt",
							"type": "uint256"
						},
						{
							"internalType": "uint256",
							"name": "claimedAt",
							"type": "uint256"
						},
						{
							"internalType": "uint256",
							"name": "refundedAt",
							"type": "uint256"
						}
					],
					"stateMutability": "view",
					"type": "function"
				},
				{
					"inputs": [
						{
							"internalType": "address",
							"name": "user",
							"type": "address"
						}
					],
					"name": "getPendingActions",
					"outputs": [
						{
							"internalType": "uint256[]",
							"name": "claimable",
							"type": "uint256[]"
						},
						{
							"internalType": "uint256[]",
							"name": "refundable",
							"type": "uint256[]"
						}
					],
					"stateMutability": "view",
					"type": "function"
				},
				{
					"inputs": [
						{
							"internalType": "address",
							"name": "user",
							"type": "address"
						}
					],
					"name": "getUserReceivedEscrows",
					"outputs": [
						{
							"internalType": "uint256[]",
							"name": "",
							"type": "uint256[]"
						}
					],
					"stateMutability": "view",
					"type": "function"
				},
				{
					"inputs": [
						{
							"internalType": "address",
							"name": "user",
							"type": "address"
						}
					],
					"name": "getUserSentEscrows",
					"outputs": [
						{
							"internalType": "uint256[]",
							"name": "",
							"type": "uint256[]"
						}
					],
					"stateMutability": "view",
					"type": "function"
				},
				{
					"inputs": [
						{
							"internalType": "address",
							"name": "",
							"type": "address"
						},
						{
							"internalType": "uint256",
							"name": "",
							"type": "uint256"
						}
					],
					"name": "receivedEscrows",
					"outputs": [
						{
							"internalType": "uint256",
							"name": "",
							"type": "uint256"
						}
					],
					"stateMutability": "view",
					"type": "function"
				},
				{
					"inputs": [
						{
							"internalType": "uint256",
							"name": "escrowId",
							"type": "uint256"
						}
					],
					"name": "refund",
					"outputs": [],
					"stateMutability": "nonpayable",
					"type": "function"
				},
				{
					"inputs": [
						{
							"internalType": "address",
							"name": "",
							"type": "address"
						},
						{
							"internalType": "uint256",
							"name": "",
							"type": "uint256"
						}
					],
					"name": "sentEscrows",
					"outputs": [
						{
							"internalType": "uint256",
							"name": "",
							"type": "uint256"
						}
					],
					"stateMutability": "view",
					"type": "function"
				}
			],
			"devdoc": {
				"kind": "dev",
				"methods": {},
				"version": 1
			},
			"evm": {
				"assembly": "    /* \"contracts/Wallet.sol\":61:4752  contract WalletX {... */\n  mstore(0x40, 0x80)\n  callvalue\n  dup1\n  iszero\n  tag_1\n  jumpi\n  revert(0x00, 0x00)\ntag_1:\n  pop\n  dataSize(sub_0)\n  dup1\n  dataOffset(sub_0)\n  0x00\n  codecopy\n  0x00\n  return\nstop\n\nsub_0: assembly {\n        /* \"contracts/Wallet.sol\":61:4752  contract WalletX {... */\n      mstore(0x40, 0x80)\n      jumpi(tag_1, lt(calldatasize, 0x04))\n      shr(0xe0, calldataload(0x00))\n      dup1\n      0x49cb31ee\n      gt\n      tag_13\n      jumpi\n      dup1\n      0x49cb31ee\n      eq\n      tag_7\n      jumpi\n      dup1\n      0x675ac67a\n      eq\n      tag_8\n      jumpi\n      dup1\n      0xb59ed878\n      eq\n      tag_9\n      jumpi\n      dup1\n      0xb996ec2a\n      eq\n      tag_10\n      jumpi\n      dup1\n      0xe23ab08e\n      eq\n      tag_11\n      jumpi\n      dup1\n      0xf6a8419e\n      eq\n      tag_12\n      jumpi\n      jump(tag_1)\n    tag_13:\n      dup1\n      0x012f52ee\n      eq\n      tag_2\n      jumpi\n      dup1\n      0x20d73edf\n      eq\n      tag_3\n      jumpi\n      dup1\n      0x278ecde1\n      eq\n      tag_4\n      jumpi\n      dup1\n      0x379607f5\n      eq\n      tag_5\n      jumpi\n      dup1\n      0x45fde2ae\n      eq\n      tag_6\n      jumpi\n    tag_1:\n      revert(0x00, 0x00)\n        /* \"contracts/Wallet.sol\":396:437  mapping(uint256 => Escrow) public escrows */\n    tag_2:\n      callvalue\n      dup1\n      iszero\n      tag_14\n      jumpi\n      revert(0x00, 0x00)\n    tag_14:\n      pop\n      tag_15\n      0x04\n      dup1\n      calldatasize\n      sub\n      dup2\n      add\n      swap1\n      tag_16\n      swap2\n      swap1\n      tag_17\n      jump\t// in\n    tag_16:\n      tag_18\n      jump\t// in\n    tag_15:\n      mload(0x40)\n      tag_19\n      swap8\n      swap7\n      swap6\n      swap5\n      swap4\n      swap3\n      swap2\n      swap1\n      tag_20\n      jump\t// in\n    tag_19:\n      mload(0x40)\n      dup1\n      swap2\n      sub\n      swap1\n      return\n        /* \"contracts/Wallet.sol\":2708:2834  function getUserSentEscrows(address user) external view returns (uint256[] memory) {... */\n    tag_3:\n      callvalue\n      dup1\n      iszero\n      tag_21\n      jumpi\n      revert(0x00, 0x00)\n    tag_21:\n      pop\n      tag_22\n      0x04\n      dup1\n      calldatasize\n      sub\n      dup2\n      add\n      swap1\n      tag_23\n      swap2\n      swap1\n      tag_24\n      jump\t// in\n    tag_23:\n      tag_25\n      jump\t// in\n    tag_22:\n      mload(0x40)\n      tag_26\n      swap2\n      swap1\n      tag_27\n      jump\t// in\n    tag_26:\n      mload(0x40)\n      dup1\n      swap2\n      sub\n      swap1\n      return\n        /* \"contracts/Wallet.sol\":2172:2700  function refund(uint256 escrowId) external {... */\n    tag_4:\n      callvalue\n      dup1\n      iszero\n      tag_28\n      jumpi\n      revert(0x00, 0x00)\n    tag_28:\n      pop\n      tag_29\n      0x04\n      dup1\n      calldatasize\n      sub\n      dup2\n      add\n      swap1\n      tag_30\n      swap2\n      swap1\n      tag_17\n      jump\t// in\n    tag_30:\n      tag_31\n      jump\t// in\n    tag_29:\n      stop\n        /* \"contracts/Wallet.sol\":1636:2164  function claim(uint256 escrowId) external {... */\n    tag_5:\n      callvalue\n      dup1\n      iszero\n      tag_32\n      jumpi\n      revert(0x00, 0x00)\n    tag_32:\n      pop\n      tag_33\n      0x04\n      dup1\n      calldatasize\n      sub\n      dup2\n      add\n      swap1\n      tag_34\n      swap2\n      swap1\n      tag_17\n      jump\t// in\n    tag_34:\n      tag_35\n      jump\t// in\n    tag_33:\n      stop\n        /* \"contracts/Wallet.sol\":3428:4749  function getPendingActions(address user) external view returns (uint256[] memory claimable, uint256[] memory refundable) {... */\n    tag_6:\n      callvalue\n      dup1\n      iszero\n      tag_36\n      jumpi\n      revert(0x00, 0x00)\n    tag_36:\n      pop\n      tag_37\n      0x04\n      dup1\n      calldatasize\n      sub\n      dup2\n      add\n      swap1\n      tag_38\n      swap2\n      swap1\n      tag_24\n      jump\t// in\n    tag_38:\n      tag_39\n      jump\t// in\n    tag_37:\n      mload(0x40)\n      tag_40\n      swap3\n      swap2\n      swap1\n      tag_41\n      jump\t// in\n    tag_40:\n      mload(0x40)\n      dup1\n      swap2\n      sub\n      swap1\n      return\n        /* \"contracts/Wallet.sol\":2842:2976  function getUserReceivedEscrows(address user) external view returns (uint256[] memory) {... */\n    tag_7:\n      callvalue\n      dup1\n      iszero\n      tag_42\n      jumpi\n      revert(0x00, 0x00)\n    tag_42:\n      pop\n      tag_43\n      0x04\n      dup1\n      calldatasize\n      sub\n      dup2\n      add\n      swap1\n      tag_44\n      swap2\n      swap1\n      tag_24\n      jump\t// in\n    tag_44:\n      tag_45\n      jump\t// in\n    tag_43:\n      mload(0x40)\n      tag_46\n      swap2\n      swap1\n      tag_27\n      jump\t// in\n    tag_46:\n      mload(0x40)\n      dup1\n      swap2\n      sub\n      swap1\n      return\n        /* \"contracts/Wallet.sol\":363:389  uint256 public escrowCount */\n    tag_8:\n      callvalue\n      dup1\n      iszero\n      tag_47\n      jumpi\n      revert(0x00, 0x00)\n    tag_47:\n      pop\n      tag_48\n      tag_49\n      jump\t// in\n    tag_48:\n      mload(0x40)\n      tag_50\n      swap2\n      swap1\n      tag_51\n      jump\t// in\n    tag_50:\n      mload(0x40)\n      dup1\n      swap2\n      sub\n      swap1\n      return\n        /* \"contracts/Wallet.sol\":499:551  mapping(address => uint256[]) public receivedEscrows */\n    tag_9:\n      callvalue\n      dup1\n      iszero\n      tag_52\n      jumpi\n      revert(0x00, 0x00)\n    tag_52:\n      pop\n      tag_53\n      0x04\n      dup1\n      calldatasize\n      sub\n      dup2\n      add\n      swap1\n      tag_54\n      swap2\n      swap1\n      tag_55\n      jump\t// in\n    tag_54:\n      tag_56\n      jump\t// in\n    tag_53:\n      mload(0x40)\n      tag_57\n      swap2\n      swap1\n      tag_51\n      jump\t// in\n    tag_57:\n      mload(0x40)\n      dup1\n      swap2\n      sub\n      swap1\n      return\n        /* \"contracts/Wallet.sol\":2984:3420  function getEscrowDetails(uint256 escrowId) external view returns (... */\n    tag_10:\n      callvalue\n      dup1\n      iszero\n      tag_58\n      jumpi\n      revert(0x00, 0x00)\n    tag_58:\n      pop\n      tag_59\n      0x04\n      dup1\n      calldatasize\n      sub\n      dup2\n      add\n      swap1\n      tag_60\n      swap2\n      swap1\n      tag_17\n      jump\t// in\n    tag_60:\n      tag_61\n      jump\t// in\n    tag_59:\n      mload(0x40)\n      tag_62\n      swap8\n      swap7\n      swap6\n      swap5\n      swap4\n      swap3\n      swap2\n      swap1\n      tag_20\n      jump\t// in\n    tag_62:\n      mload(0x40)\n      dup1\n      swap2\n      sub\n      swap1\n      return\n        /* \"contracts/Wallet.sol\":444:492  mapping(address => uint256[]) public sentEscrows */\n    tag_11:\n      callvalue\n      dup1\n      iszero\n      tag_63\n      jumpi\n      revert(0x00, 0x00)\n    tag_63:\n      pop\n      tag_64\n      0x04\n      dup1\n      calldatasize\n      sub\n      dup2\n      add\n      swap1\n      tag_65\n      swap2\n      swap1\n      tag_55\n      jump\t// in\n    tag_65:\n      tag_66\n      jump\t// in\n    tag_64:\n      mload(0x40)\n      tag_67\n      swap2\n      swap1\n      tag_51\n      jump\t// in\n    tag_67:\n      mload(0x40)\n      dup1\n      swap2\n      sub\n      swap1\n      return\n        /* \"contracts/Wallet.sol\":895:1628  function createEscrow(address receiver) external payable returns (uint256) {... */\n    tag_12:\n      tag_68\n      0x04\n      dup1\n      calldatasize\n      sub\n      dup2\n      add\n      swap1\n      tag_69\n      swap2\n      swap1\n      tag_24\n      jump\t// in\n    tag_69:\n      tag_70\n      jump\t// in\n    tag_68:\n      mload(0x40)\n      tag_71\n      swap2\n      swap1\n      tag_51\n      jump\t// in\n    tag_71:\n      mload(0x40)\n      dup1\n      swap2\n      sub\n      swap1\n      return\n        /* \"contracts/Wallet.sol\":396:437  mapping(uint256 => Escrow) public escrows */\n    tag_18:\n      mstore(0x20, 0x01)\n      dup1\n      0x00\n      mstore\n      keccak256(0x00, 0x40)\n      0x00\n      swap2\n      pop\n      swap1\n      pop\n      dup1\n      0x00\n      add\n      0x00\n      swap1\n      sload\n      swap1\n      0x0100\n      exp\n      swap1\n      div\n      0xffffffffffffffffffffffffffffffffffffffff\n      and\n      swap1\n      dup1\n      0x01\n      add\n      0x00\n      swap1\n      sload\n      swap1\n      0x0100\n      exp\n      swap1\n      div\n      0xffffffffffffffffffffffffffffffffffffffff\n      and\n      swap1\n      dup1\n      0x02\n      add\n      sload\n      swap1\n      dup1\n      0x03\n      add\n      0x00\n      swap1\n      sload\n      swap1\n      0x0100\n      exp\n      swap1\n      div\n      0xff\n      and\n      swap1\n      dup1\n      0x04\n      add\n      sload\n      swap1\n      dup1\n      0x05\n      add\n      sload\n      swap1\n      dup1\n      0x06\n      add\n      sload\n      swap1\n      pop\n      dup8\n      jump\t// out\n        /* \"contracts/Wallet.sol\":2708:2834  function getUserSentEscrows(address user) external view returns (uint256[] memory) {... */\n    tag_25:\n        /* \"contracts/Wallet.sol\":2773:2789  uint256[] memory */\n      0x60\n        /* \"contracts/Wallet.sol\":2809:2820  sentEscrows */\n      0x02\n        /* \"contracts/Wallet.sol\":2809:2826  sentEscrows[user] */\n      0x00\n        /* \"contracts/Wallet.sol\":2821:2825  user */\n      dup4\n        /* \"contracts/Wallet.sol\":2809:2826  sentEscrows[user] */\n      0xffffffffffffffffffffffffffffffffffffffff\n      and\n      0xffffffffffffffffffffffffffffffffffffffff\n      and\n      dup2\n      mstore\n      0x20\n      add\n      swap1\n      dup2\n      mstore\n      0x20\n      add\n      0x00\n      keccak256\n        /* \"contracts/Wallet.sol\":2802:2826  return sentEscrows[user] */\n      dup1\n      sload\n      dup1\n      0x20\n      mul\n      0x20\n      add\n      mload(0x40)\n      swap1\n      dup2\n      add\n      0x40\n      mstore\n      dup1\n      swap3\n      swap2\n      swap1\n      dup2\n      dup2\n      mstore\n      0x20\n      add\n      dup3\n      dup1\n      sload\n      dup1\n      iszero\n      tag_73\n      jumpi\n      0x20\n      mul\n      dup3\n      add\n      swap2\n      swap1\n      0x00\n      mstore\n      keccak256(0x00, 0x20)\n      swap1\n    tag_74:\n      dup2\n      sload\n      dup2\n      mstore\n      0x20\n      add\n      swap1\n      0x01\n      add\n      swap1\n      dup1\n      dup4\n      gt\n      tag_74\n      jumpi\n    tag_73:\n      pop\n      pop\n      pop\n      pop\n      pop\n      swap1\n      pop\n        /* \"contracts/Wallet.sol\":2708:2834  function getUserSentEscrows(address user) external view returns (uint256[] memory) {... */\n      swap2\n      swap1\n      pop\n      jump\t// out\n        /* \"contracts/Wallet.sol\":2172:2700  function refund(uint256 escrowId) external {... */\n    tag_31:\n        /* \"contracts/Wallet.sol\":2226:2244  Escrow storage esc */\n      0x00\n        /* \"contracts/Wallet.sol\":2247:2254  escrows */\n      0x01\n        /* \"contracts/Wallet.sol\":2247:2264  escrows[escrowId] */\n      0x00\n        /* \"contracts/Wallet.sol\":2255:2263  escrowId */\n      dup4\n        /* \"contracts/Wallet.sol\":2247:2264  escrows[escrowId] */\n      dup2\n      mstore\n      0x20\n      add\n      swap1\n      dup2\n      mstore\n      0x20\n      add\n      0x00\n      keccak256\n        /* \"contracts/Wallet.sol\":2226:2264  Escrow storage esc = escrows[escrowId] */\n      swap1\n      pop\n        /* \"contracts/Wallet.sol\":2297:2317  EscrowStatus.Pending */\n      0x00\n        /* \"contracts/Wallet.sol\":2283:2317  esc.status == EscrowStatus.Pending */\n      0x02\n      dup2\n      gt\n      iszero\n      tag_76\n      jumpi\n      tag_77\n      tag_78\n      jump\t// in\n    tag_77:\n    tag_76:\n        /* \"contracts/Wallet.sol\":2283:2286  esc */\n      dup2\n        /* \"contracts/Wallet.sol\":2283:2293  esc.status */\n      0x03\n      add\n      0x00\n      swap1\n      sload\n      swap1\n      0x0100\n      exp\n      swap1\n      div\n      0xff\n      and\n        /* \"contracts/Wallet.sol\":2283:2317  esc.status == EscrowStatus.Pending */\n      0x02\n      dup2\n      gt\n      iszero\n      tag_79\n      jumpi\n      tag_80\n      tag_78\n      jump\t// in\n    tag_80:\n    tag_79:\n      eq\n        /* \"contracts/Wallet.sol\":2275:2336  require(esc.status == EscrowStatus.Pending, \"Not refundable\") */\n      tag_81\n      jumpi\n      mload(0x40)\n      0x08c379a000000000000000000000000000000000000000000000000000000000\n      dup2\n      mstore\n      0x04\n      add\n      tag_82\n      swap1\n      tag_83\n      jump\t// in\n    tag_82:\n      mload(0x40)\n      dup1\n      swap2\n      sub\n      swap1\n      revert\n    tag_81:\n        /* \"contracts/Wallet.sol\":2369:2372  esc */\n      dup1\n        /* \"contracts/Wallet.sol\":2369:2379  esc.sender */\n      0x00\n      add\n      0x00\n      swap1\n      sload\n      swap1\n      0x0100\n      exp\n      swap1\n      div\n      0xffffffffffffffffffffffffffffffffffffffff\n      and\n        /* \"contracts/Wallet.sol\":2355:2379  msg.sender == esc.sender */\n      0xffffffffffffffffffffffffffffffffffffffff\n      and\n        /* \"contracts/Wallet.sol\":2355:2365  msg.sender */\n      caller\n        /* \"contracts/Wallet.sol\":2355:2379  msg.sender == esc.sender */\n      0xffffffffffffffffffffffffffffffffffffffff\n      and\n      eq\n        /* \"contracts/Wallet.sol\":2347:2406  require(msg.sender == esc.sender, \"Only sender can refund\") */\n      tag_84\n      jumpi\n      mload(0x40)\n      0x08c379a000000000000000000000000000000000000000000000000000000000\n      dup2\n      mstore\n      0x04\n      add\n      tag_85\n      swap1\n      tag_86\n      jump\t// in\n    tag_85:\n      mload(0x40)\n      dup1\n      swap2\n      sub\n      swap1\n      revert\n    tag_84:\n        /* \"contracts/Wallet.sol\":2432:2453  EscrowStatus.Refunded */\n      0x02\n        /* \"contracts/Wallet.sol\":2419:2422  esc */\n      dup2\n        /* \"contracts/Wallet.sol\":2419:2429  esc.status */\n      0x03\n      add\n      0x00\n        /* \"contracts/Wallet.sol\":2419:2453  esc.status = EscrowStatus.Refunded */\n      0x0100\n      exp\n      dup2\n      sload\n      dup2\n      0xff\n      mul\n      not\n      and\n      swap1\n      dup4\n      0x02\n      dup2\n      gt\n      iszero\n      tag_87\n      jumpi\n      tag_88\n      tag_78\n      jump\t// in\n    tag_88:\n    tag_87:\n      mul\n      or\n      swap1\n      sstore\n      pop\n        /* \"contracts/Wallet.sol\":2481:2496  block.timestamp */\n      timestamp\n        /* \"contracts/Wallet.sol\":2464:2467  esc */\n      dup2\n        /* \"contracts/Wallet.sol\":2464:2478  esc.refundedAt */\n      0x06\n      add\n        /* \"contracts/Wallet.sol\":2464:2496  esc.refundedAt = block.timestamp */\n      dup2\n      swap1\n      sstore\n      pop\n        /* \"contracts/Wallet.sol\":2510:2522  bool success */\n      0x00\n        /* \"contracts/Wallet.sol\":2536:2539  esc */\n      dup2\n        /* \"contracts/Wallet.sol\":2536:2546  esc.sender */\n      0x00\n      add\n      0x00\n      swap1\n      sload\n      swap1\n      0x0100\n      exp\n      swap1\n      div\n      0xffffffffffffffffffffffffffffffffffffffff\n      and\n        /* \"contracts/Wallet.sol\":2528:2552  payable(esc.sender).call */\n      0xffffffffffffffffffffffffffffffffffffffff\n      and\n        /* \"contracts/Wallet.sol\":2560:2563  esc */\n      dup3\n        /* \"contracts/Wallet.sol\":2560:2570  esc.amount */\n      0x02\n      add\n      sload\n        /* \"contracts/Wallet.sol\":2528:2575  payable(esc.sender).call{value: esc.amount}(\"\") */\n      mload(0x40)\n      tag_89\n      swap1\n      tag_90\n      jump\t// in\n    tag_89:\n      0x00\n      mload(0x40)\n      dup1\n      dup4\n      sub\n      dup2\n      dup6\n      dup8\n      gas\n      call\n      swap3\n      pop\n      pop\n      pop\n      returndatasize\n      dup1\n      0x00\n      dup2\n      eq\n      tag_93\n      jumpi\n      mload(0x40)\n      swap2\n      pop\n      and(add(returndatasize, 0x3f), not(0x1f))\n      dup3\n      add\n      0x40\n      mstore\n      returndatasize\n      dup3\n      mstore\n      returndatasize\n      0x00\n      0x20\n      dup5\n      add\n      returndatacopy\n      jump(tag_92)\n    tag_93:\n      0x60\n      swap2\n      pop\n    tag_92:\n      pop\n        /* \"contracts/Wallet.sol\":2509:2575  (bool success, ) = payable(esc.sender).call{value: esc.amount}(\"\") */\n      pop\n      swap1\n      pop\n        /* \"contracts/Wallet.sol\":2594:2601  success */\n      dup1\n        /* \"contracts/Wallet.sol\":2586:2628  require(success, \"Refund transfer failed\") */\n      tag_94\n      jumpi\n      mload(0x40)\n      0x08c379a000000000000000000000000000000000000000000000000000000000\n      dup2\n      mstore\n      0x04\n      add\n      tag_95\n      swap1\n      tag_96\n      jump\t// in\n    tag_95:\n      mload(0x40)\n      dup1\n      swap2\n      sub\n      swap1\n      revert\n    tag_94:\n        /* \"contracts/Wallet.sol\":2665:2668  esc */\n      dup2\n        /* \"contracts/Wallet.sol\":2665:2675  esc.sender */\n      0x00\n      add\n      0x00\n      swap1\n      sload\n      swap1\n      0x0100\n      exp\n      swap1\n      div\n      0xffffffffffffffffffffffffffffffffffffffff\n      and\n        /* \"contracts/Wallet.sol\":2646:2692  Refunded(escrowId, esc.sender, esc.refundedAt) */\n      0xffffffffffffffffffffffffffffffffffffffff\n      and\n        /* \"contracts/Wallet.sol\":2655:2663  escrowId */\n      dup4\n        /* \"contracts/Wallet.sol\":2646:2692  Refunded(escrowId, esc.sender, esc.refundedAt) */\n      0x7ca5472b7ea78c2c0141c5a12ee6d170cf4ce8ed06be3d22c8252ddfc7a6a2c4\n        /* \"contracts/Wallet.sol\":2677:2680  esc */\n      dup5\n        /* \"contracts/Wallet.sol\":2677:2691  esc.refundedAt */\n      0x06\n      add\n      sload\n        /* \"contracts/Wallet.sol\":2646:2692  Refunded(escrowId, esc.sender, esc.refundedAt) */\n      mload(0x40)\n      tag_97\n      swap2\n      swap1\n      tag_51\n      jump\t// in\n    tag_97:\n      mload(0x40)\n      dup1\n      swap2\n      sub\n      swap1\n      log3\n        /* \"contracts/Wallet.sol\":2215:2700  {... */\n      pop\n      pop\n        /* \"contracts/Wallet.sol\":2172:2700  function refund(uint256 escrowId) external {... */\n      pop\n      jump\t// out\n        /* \"contracts/Wallet.sol\":1636:2164  function claim(uint256 escrowId) external {... */\n    tag_35:\n        /* \"contracts/Wallet.sol\":1689:1707  Escrow storage esc */\n      0x00\n        /* \"contracts/Wallet.sol\":1710:1717  escrows */\n      0x01\n        /* \"contracts/Wallet.sol\":1710:1727  escrows[escrowId] */\n      0x00\n        /* \"contracts/Wallet.sol\":1718:1726  escrowId */\n      dup4\n        /* \"contracts/Wallet.sol\":1710:1727  escrows[escrowId] */\n      dup2\n      mstore\n      0x20\n      add\n      swap1\n      dup2\n      mstore\n      0x20\n      add\n      0x00\n      keccak256\n        /* \"contracts/Wallet.sol\":1689:1727  Escrow storage esc = escrows[escrowId] */\n      swap1\n      pop\n        /* \"contracts/Wallet.sol\":1760:1780  EscrowStatus.Pending */\n      0x00\n        /* \"contracts/Wallet.sol\":1746:1780  esc.status == EscrowStatus.Pending */\n      0x02\n      dup2\n      gt\n      iszero\n      tag_99\n      jumpi\n      tag_100\n      tag_78\n      jump\t// in\n    tag_100:\n    tag_99:\n        /* \"contracts/Wallet.sol\":1746:1749  esc */\n      dup2\n        /* \"contracts/Wallet.sol\":1746:1756  esc.status */\n      0x03\n      add\n      0x00\n      swap1\n      sload\n      swap1\n      0x0100\n      exp\n      swap1\n      div\n      0xff\n      and\n        /* \"contracts/Wallet.sol\":1746:1780  esc.status == EscrowStatus.Pending */\n      0x02\n      dup2\n      gt\n      iszero\n      tag_101\n      jumpi\n      tag_102\n      tag_78\n      jump\t// in\n    tag_102:\n    tag_101:\n      eq\n        /* \"contracts/Wallet.sol\":1738:1798  require(esc.status == EscrowStatus.Pending, \"Not claimable\") */\n      tag_103\n      jumpi\n      mload(0x40)\n      0x08c379a000000000000000000000000000000000000000000000000000000000\n      dup2\n      mstore\n      0x04\n      add\n      tag_104\n      swap1\n      tag_105\n      jump\t// in\n    tag_104:\n      mload(0x40)\n      dup1\n      swap2\n      sub\n      swap1\n      revert\n    tag_103:\n        /* \"contracts/Wallet.sol\":1831:1834  esc */\n      dup1\n        /* \"contracts/Wallet.sol\":1831:1843  esc.receiver */\n      0x01\n      add\n      0x00\n      swap1\n      sload\n      swap1\n      0x0100\n      exp\n      swap1\n      div\n      0xffffffffffffffffffffffffffffffffffffffff\n      and\n        /* \"contracts/Wallet.sol\":1817:1843  msg.sender == esc.receiver */\n      0xffffffffffffffffffffffffffffffffffffffff\n      and\n        /* \"contracts/Wallet.sol\":1817:1827  msg.sender */\n      caller\n        /* \"contracts/Wallet.sol\":1817:1843  msg.sender == esc.receiver */\n      0xffffffffffffffffffffffffffffffffffffffff\n      and\n      eq\n        /* \"contracts/Wallet.sol\":1809:1871  require(msg.sender == esc.receiver, \"Only receiver can claim\") */\n      tag_106\n      jumpi\n      mload(0x40)\n      0x08c379a000000000000000000000000000000000000000000000000000000000\n      dup2\n      mstore\n      0x04\n      add\n      tag_107\n      swap1\n      tag_108\n      jump\t// in\n    tag_107:\n      mload(0x40)\n      dup1\n      swap2\n      sub\n      swap1\n      revert\n    tag_106:\n        /* \"contracts/Wallet.sol\":1897:1917  EscrowStatus.Claimed */\n      0x01\n        /* \"contracts/Wallet.sol\":1884:1887  esc */\n      dup2\n        /* \"contracts/Wallet.sol\":1884:1894  esc.status */\n      0x03\n      add\n      0x00\n        /* \"contracts/Wallet.sol\":1884:1917  esc.status = EscrowStatus.Claimed */\n      0x0100\n      exp\n      dup2\n      sload\n      dup2\n      0xff\n      mul\n      not\n      and\n      swap1\n      dup4\n      0x02\n      dup2\n      gt\n      iszero\n      tag_109\n      jumpi\n      tag_110\n      tag_78\n      jump\t// in\n    tag_110:\n    tag_109:\n      mul\n      or\n      swap1\n      sstore\n      pop\n        /* \"contracts/Wallet.sol\":1944:1959  block.timestamp */\n      timestamp\n        /* \"contracts/Wallet.sol\":1928:1931  esc */\n      dup2\n        /* \"contracts/Wallet.sol\":1928:1941  esc.claimedAt */\n      0x05\n      add\n        /* \"contracts/Wallet.sol\":1928:1959  esc.claimedAt = block.timestamp */\n      dup2\n      swap1\n      sstore\n      pop\n        /* \"contracts/Wallet.sol\":1973:1985  bool success */\n      0x00\n        /* \"contracts/Wallet.sol\":1999:2002  esc */\n      dup2\n        /* \"contracts/Wallet.sol\":1999:2011  esc.receiver */\n      0x01\n      add\n      0x00\n      swap1\n      sload\n      swap1\n      0x0100\n      exp\n      swap1\n      div\n      0xffffffffffffffffffffffffffffffffffffffff\n      and\n        /* \"contracts/Wallet.sol\":1991:2017  payable(esc.receiver).call */\n      0xffffffffffffffffffffffffffffffffffffffff\n      and\n        /* \"contracts/Wallet.sol\":2025:2028  esc */\n      dup3\n        /* \"contracts/Wallet.sol\":2025:2035  esc.amount */\n      0x02\n      add\n      sload\n        /* \"contracts/Wallet.sol\":1991:2040  payable(esc.receiver).call{value: esc.amount}(\"\") */\n      mload(0x40)\n      tag_111\n      swap1\n      tag_90\n      jump\t// in\n    tag_111:\n      0x00\n      mload(0x40)\n      dup1\n      dup4\n      sub\n      dup2\n      dup6\n      dup8\n      gas\n      call\n      swap3\n      pop\n      pop\n      pop\n      returndatasize\n      dup1\n      0x00\n      dup2\n      eq\n      tag_114\n      jumpi\n      mload(0x40)\n      swap2\n      pop\n      and(add(returndatasize, 0x3f), not(0x1f))\n      dup3\n      add\n      0x40\n      mstore\n      returndatasize\n      dup3\n      mstore\n      returndatasize\n      0x00\n      0x20\n      dup5\n      add\n      returndatacopy\n      jump(tag_113)\n    tag_114:\n      0x60\n      swap2\n      pop\n    tag_113:\n      pop\n        /* \"contracts/Wallet.sol\":1972:2040  (bool success, ) = payable(esc.receiver).call{value: esc.amount}(\"\") */\n      pop\n      swap1\n      pop\n        /* \"contracts/Wallet.sol\":2059:2066  success */\n      dup1\n        /* \"contracts/Wallet.sol\":2051:2092  require(success, \"Claim transfer failed\") */\n      tag_115\n      jumpi\n      mload(0x40)\n      0x08c379a000000000000000000000000000000000000000000000000000000000\n      dup2\n      mstore\n      0x04\n      add\n      tag_116\n      swap1\n      tag_117\n      jump\t// in\n    tag_116:\n      mload(0x40)\n      dup1\n      swap2\n      sub\n      swap1\n      revert\n    tag_115:\n        /* \"contracts/Wallet.sol\":2128:2131  esc */\n      dup2\n        /* \"contracts/Wallet.sol\":2128:2140  esc.receiver */\n      0x01\n      add\n      0x00\n      swap1\n      sload\n      swap1\n      0x0100\n      exp\n      swap1\n      div\n      0xffffffffffffffffffffffffffffffffffffffff\n      and\n        /* \"contracts/Wallet.sol\":2110:2156  Claimed(escrowId, esc.receiver, esc.claimedAt) */\n      0xffffffffffffffffffffffffffffffffffffffff\n      and\n        /* \"contracts/Wallet.sol\":2118:2126  escrowId */\n      dup4\n        /* \"contracts/Wallet.sol\":2110:2156  Claimed(escrowId, esc.receiver, esc.claimedAt) */\n      0x4ec90e965519d92681267467f775ada5bd214aa92c0dc93d90a5e880ce9ed026\n        /* \"contracts/Wallet.sol\":2142:2145  esc */\n      dup5\n        /* \"contracts/Wallet.sol\":2142:2155  esc.claimedAt */\n      0x05\n      add\n      sload\n        /* \"contracts/Wallet.sol\":2110:2156  Claimed(escrowId, esc.receiver, esc.claimedAt) */\n      mload(0x40)\n      tag_118\n      swap2\n      swap1\n      tag_51\n      jump\t// in\n    tag_118:\n      mload(0x40)\n      dup1\n      swap2\n      sub\n      swap1\n      log3\n        /* \"contracts/Wallet.sol\":1678:2164  {... */\n      pop\n      pop\n        /* \"contracts/Wallet.sol\":1636:2164  function claim(uint256 escrowId) external {... */\n      pop\n      jump\t// out\n        /* \"contracts/Wallet.sol\":3428:4749  function getPendingActions(address user) external view returns (uint256[] memory claimable, uint256[] memory refundable) {... */\n    tag_39:\n        /* \"contracts/Wallet.sol\":3492:3518  uint256[] memory claimable */\n      0x60\n        /* \"contracts/Wallet.sol\":3520:3547  uint256[] memory refundable */\n      dup1\n        /* \"contracts/Wallet.sol\":3560:3578  uint256 sentLength */\n      0x00\n        /* \"contracts/Wallet.sol\":3581:3592  sentEscrows */\n      0x02\n        /* \"contracts/Wallet.sol\":3581:3598  sentEscrows[user] */\n      0x00\n        /* \"contracts/Wallet.sol\":3593:3597  user */\n      dup6\n        /* \"contracts/Wallet.sol\":3581:3598  sentEscrows[user] */\n      0xffffffffffffffffffffffffffffffffffffffff\n      and\n      0xffffffffffffffffffffffffffffffffffffffff\n      and\n      dup2\n      mstore\n      0x20\n      add\n      swap1\n      dup2\n      mstore\n      0x20\n      add\n      0x00\n      keccak256\n        /* \"contracts/Wallet.sol\":3581:3605  sentEscrows[user].length */\n      dup1\n      sload\n      swap1\n      pop\n        /* \"contracts/Wallet.sol\":3560:3605  uint256 sentLength = sentEscrows[user].length */\n      swap1\n      pop\n        /* \"contracts/Wallet.sol\":3616:3638  uint256 receivedLength */\n      0x00\n        /* \"contracts/Wallet.sol\":3641:3656  receivedEscrows */\n      0x03\n        /* \"contracts/Wallet.sol\":3641:3662  receivedEscrows[user] */\n      0x00\n        /* \"contracts/Wallet.sol\":3657:3661  user */\n      dup7\n        /* \"contracts/Wallet.sol\":3641:3662  receivedEscrows[user] */\n      0xffffffffffffffffffffffffffffffffffffffff\n      and\n      0xffffffffffffffffffffffffffffffffffffffff\n      and\n      dup2\n      mstore\n      0x20\n      add\n      swap1\n      dup2\n      mstore\n      0x20\n      add\n      0x00\n      keccak256\n        /* \"contracts/Wallet.sol\":3641:3669  receivedEscrows[user].length */\n      dup1\n      sload\n      swap1\n      pop\n        /* \"contracts/Wallet.sol\":3616:3669  uint256 receivedLength = receivedEscrows[user].length */\n      swap1\n      pop\n        /* \"contracts/Wallet.sol\":3680:3705  uint256[] memory tmpClaim */\n      0x00\n        /* \"contracts/Wallet.sol\":3722:3736  receivedLength */\n      dup2\n        /* \"contracts/Wallet.sol\":3708:3737  new uint256[](receivedLength) */\n      0xffffffffffffffff\n      dup2\n      gt\n      iszero\n      tag_120\n      jumpi\n      tag_121\n      tag_122\n      jump\t// in\n    tag_121:\n    tag_120:\n      mload(0x40)\n      swap1\n      dup1\n      dup3\n      mstore\n      dup1\n      0x20\n      mul\n      0x20\n      add\n      dup3\n      add\n      0x40\n      mstore\n      dup1\n      iszero\n      tag_123\n      jumpi\n      dup2\n      0x20\n      add\n      0x20\n      dup3\n      mul\n      dup1\n      calldatasize\n      dup4\n      calldatacopy\n      dup1\n      dup3\n      add\n      swap2\n      pop\n      pop\n      swap1\n      pop\n    tag_123:\n      pop\n        /* \"contracts/Wallet.sol\":3680:3737  uint256[] memory tmpClaim = new uint256[](receivedLength) */\n      swap1\n      pop\n        /* \"contracts/Wallet.sol\":3748:3774  uint256[] memory tmpRefund */\n      0x00\n        /* \"contracts/Wallet.sol\":3791:3801  sentLength */\n      dup4\n        /* \"contracts/Wallet.sol\":3777:3802  new uint256[](sentLength) */\n      0xffffffffffffffff\n      dup2\n      gt\n      iszero\n      tag_124\n      jumpi\n      tag_125\n      tag_122\n      jump\t// in\n    tag_125:\n    tag_124:\n      mload(0x40)\n      swap1\n      dup1\n      dup3\n      mstore\n      dup1\n      0x20\n      mul\n      0x20\n      add\n      dup3\n      add\n      0x40\n      mstore\n      dup1\n      iszero\n      tag_126\n      jumpi\n      dup2\n      0x20\n      add\n      0x20\n      dup3\n      mul\n      dup1\n      calldatasize\n      dup4\n      calldatacopy\n      dup1\n      dup3\n      add\n      swap2\n      pop\n      pop\n      swap1\n      pop\n    tag_126:\n      pop\n        /* \"contracts/Wallet.sol\":3748:3802  uint256[] memory tmpRefund = new uint256[](sentLength) */\n      swap1\n      pop\n        /* \"contracts/Wallet.sol\":3813:3822  uint256 c */\n      0x00\n        /* \"contracts/Wallet.sol\":3825:3826  0 */\n      0x00\n        /* \"contracts/Wallet.sol\":3813:3826  uint256 c = 0 */\n      swap1\n      pop\n        /* \"contracts/Wallet.sol\":3837:3846  uint256 r */\n      0x00\n        /* \"contracts/Wallet.sol\":3849:3850  0 */\n      0x00\n        /* \"contracts/Wallet.sol\":3837:3850  uint256 r = 0 */\n      swap1\n      pop\n        /* \"contracts/Wallet.sol\":3868:3877  uint256 i */\n      0x00\n        /* \"contracts/Wallet.sol\":3880:3881  0 */\n      0x00\n        /* \"contracts/Wallet.sol\":3868:3881  uint256 i = 0 */\n      swap1\n      pop\n        /* \"contracts/Wallet.sol\":3863:4110  for (uint256 i = 0; i < receivedLength; i++) {... */\n    tag_127:\n        /* \"contracts/Wallet.sol\":3887:3901  receivedLength */\n      dup6\n        /* \"contracts/Wallet.sol\":3883:3884  i */\n      dup2\n        /* \"contracts/Wallet.sol\":3883:3901  i < receivedLength */\n      lt\n        /* \"contracts/Wallet.sol\":3863:4110  for (uint256 i = 0; i < receivedLength; i++) {... */\n      iszero\n      tag_128\n      jumpi\n        /* \"contracts/Wallet.sol\":3923:3934  uint256 eid */\n      0x00\n        /* \"contracts/Wallet.sol\":3937:3952  receivedEscrows */\n      0x03\n        /* \"contracts/Wallet.sol\":3937:3958  receivedEscrows[user] */\n      0x00\n        /* \"contracts/Wallet.sol\":3953:3957  user */\n      dup13\n        /* \"contracts/Wallet.sol\":3937:3958  receivedEscrows[user] */\n      0xffffffffffffffffffffffffffffffffffffffff\n      and\n      0xffffffffffffffffffffffffffffffffffffffff\n      and\n      dup2\n      mstore\n      0x20\n      add\n      swap1\n      dup2\n      mstore\n      0x20\n      add\n      0x00\n      keccak256\n        /* \"contracts/Wallet.sol\":3959:3960  i */\n      dup3\n        /* \"contracts/Wallet.sol\":3937:3961  receivedEscrows[user][i] */\n      dup2\n      sload\n      dup2\n      lt\n      tag_130\n      jumpi\n      tag_131\n      tag_132\n      jump\t// in\n    tag_131:\n    tag_130:\n      swap1\n      0x00\n      mstore\n      keccak256(0x00, 0x20)\n      add\n      sload\n        /* \"contracts/Wallet.sol\":3923:3961  uint256 eid = receivedEscrows[user][i] */\n      swap1\n      pop\n        /* \"contracts/Wallet.sol\":4003:4023  EscrowStatus.Pending */\n      0x00\n        /* \"contracts/Wallet.sol\":3980:4023  escrows[eid].status == EscrowStatus.Pending */\n      0x02\n      dup2\n      gt\n      iszero\n      tag_134\n      jumpi\n      tag_135\n      tag_78\n      jump\t// in\n    tag_135:\n    tag_134:\n        /* \"contracts/Wallet.sol\":3980:3987  escrows */\n      0x01\n        /* \"contracts/Wallet.sol\":3980:3992  escrows[eid] */\n      0x00\n        /* \"contracts/Wallet.sol\":3988:3991  eid */\n      dup4\n        /* \"contracts/Wallet.sol\":3980:3992  escrows[eid] */\n      dup2\n      mstore\n      0x20\n      add\n      swap1\n      dup2\n      mstore\n      0x20\n      add\n      0x00\n      keccak256\n        /* \"contracts/Wallet.sol\":3980:3999  escrows[eid].status */\n      0x03\n      add\n      0x00\n      swap1\n      sload\n      swap1\n      0x0100\n      exp\n      swap1\n      div\n      0xff\n      and\n        /* \"contracts/Wallet.sol\":3980:4023  escrows[eid].status == EscrowStatus.Pending */\n      0x02\n      dup2\n      gt\n      iszero\n      tag_136\n      jumpi\n      tag_137\n      tag_78\n      jump\t// in\n    tag_137:\n    tag_136:\n      sub\n        /* \"contracts/Wallet.sol\":3976:4099  if (escrows[eid].status == EscrowStatus.Pending) {... */\n      tag_138\n      jumpi\n        /* \"contracts/Wallet.sol\":4058:4061  eid */\n      dup1\n        /* \"contracts/Wallet.sol\":4044:4052  tmpClaim */\n      dup7\n        /* \"contracts/Wallet.sol\":4053:4054  c */\n      dup6\n        /* \"contracts/Wallet.sol\":4044:4055  tmpClaim[c] */\n      dup2\n      mload\n      dup2\n      lt\n      tag_139\n      jumpi\n      tag_140\n      tag_132\n      jump\t// in\n    tag_140:\n    tag_139:\n      0x20\n      mul\n      0x20\n      add\n      add\n        /* \"contracts/Wallet.sol\":4044:4061  tmpClaim[c] = eid */\n      dup2\n      dup2\n      mstore\n      pop\n      pop\n        /* \"contracts/Wallet.sol\":4080:4083  c++ */\n      dup4\n      dup1\n      tag_141\n      swap1\n      tag_142\n      jump\t// in\n    tag_141:\n      swap5\n      pop\n      pop\n        /* \"contracts/Wallet.sol\":3976:4099  if (escrows[eid].status == EscrowStatus.Pending) {... */\n    tag_138:\n        /* \"contracts/Wallet.sol\":3908:4110  {... */\n      pop\n        /* \"contracts/Wallet.sol\":3903:3906  i++ */\n      dup1\n      dup1\n      0x01\n      add\n      swap2\n      pop\n      pop\n        /* \"contracts/Wallet.sol\":3863:4110  for (uint256 i = 0; i < receivedLength; i++) {... */\n      jump(tag_127)\n    tag_128:\n      pop\n        /* \"contracts/Wallet.sol\":4125:4134  uint256 i */\n      0x00\n        /* \"contracts/Wallet.sol\":4137:4138  0 */\n      0x00\n        /* \"contracts/Wallet.sol\":4125:4138  uint256 i = 0 */\n      swap1\n      pop\n        /* \"contracts/Wallet.sol\":4120:4360  for (uint256 i = 0; i < sentLength; i++) {... */\n    tag_143:\n        /* \"contracts/Wallet.sol\":4144:4154  sentLength */\n      dup7\n        /* \"contracts/Wallet.sol\":4140:4141  i */\n      dup2\n        /* \"contracts/Wallet.sol\":4140:4154  i < sentLength */\n      lt\n        /* \"contracts/Wallet.sol\":4120:4360  for (uint256 i = 0; i < sentLength; i++) {... */\n      iszero\n      tag_144\n      jumpi\n        /* \"contracts/Wallet.sol\":4176:4187  uint256 eid */\n      0x00\n        /* \"contracts/Wallet.sol\":4190:4201  sentEscrows */\n      0x02\n        /* \"contracts/Wallet.sol\":4190:4207  sentEscrows[user] */\n      0x00\n        /* \"contracts/Wallet.sol\":4202:4206  user */\n      dup13\n        /* \"contracts/Wallet.sol\":4190:4207  sentEscrows[user] */\n      0xffffffffffffffffffffffffffffffffffffffff\n      and\n      0xffffffffffffffffffffffffffffffffffffffff\n      and\n      dup2\n      mstore\n      0x20\n      add\n      swap1\n      dup2\n      mstore\n      0x20\n      add\n      0x00\n      keccak256\n        /* \"contracts/Wallet.sol\":4208:4209  i */\n      dup3\n        /* \"contracts/Wallet.sol\":4190:4210  sentEscrows[user][i] */\n      dup2\n      sload\n      dup2\n      lt\n      tag_146\n      jumpi\n      tag_147\n      tag_132\n      jump\t// in\n    tag_147:\n    tag_146:\n      swap1\n      0x00\n      mstore\n      keccak256(0x00, 0x20)\n      add\n      sload\n        /* \"contracts/Wallet.sol\":4176:4210  uint256 eid = sentEscrows[user][i] */\n      swap1\n      pop\n        /* \"contracts/Wallet.sol\":4252:4272  EscrowStatus.Pending */\n      0x00\n        /* \"contracts/Wallet.sol\":4229:4272  escrows[eid].status == EscrowStatus.Pending */\n      0x02\n      dup2\n      gt\n      iszero\n      tag_149\n      jumpi\n      tag_150\n      tag_78\n      jump\t// in\n    tag_150:\n    tag_149:\n        /* \"contracts/Wallet.sol\":4229:4236  escrows */\n      0x01\n        /* \"contracts/Wallet.sol\":4229:4241  escrows[eid] */\n      0x00\n        /* \"contracts/Wallet.sol\":4237:4240  eid */\n      dup4\n        /* \"contracts/Wallet.sol\":4229:4241  escrows[eid] */\n      dup2\n      mstore\n      0x20\n      add\n      swap1\n      dup2\n      mstore\n      0x20\n      add\n      0x00\n      keccak256\n        /* \"contracts/Wallet.sol\":4229:4248  escrows[eid].status */\n      0x03\n      add\n      0x00\n      swap1\n      sload\n      swap1\n      0x0100\n      exp\n      swap1\n      div\n      0xff\n      and\n        /* \"contracts/Wallet.sol\":4229:4272  escrows[eid].status == EscrowStatus.Pending */\n      0x02\n      dup2\n      gt\n      iszero\n      tag_151\n      jumpi\n      tag_152\n      tag_78\n      jump\t// in\n    tag_152:\n    tag_151:\n      sub\n        /* \"contracts/Wallet.sol\":4225:4349  if (escrows[eid].status == EscrowStatus.Pending) {... */\n      tag_153\n      jumpi\n        /* \"contracts/Wallet.sol\":4308:4311  eid */\n      dup1\n        /* \"contracts/Wallet.sol\":4293:4302  tmpRefund */\n      dup6\n        /* \"contracts/Wallet.sol\":4303:4304  r */\n      dup5\n        /* \"contracts/Wallet.sol\":4293:4305  tmpRefund[r] */\n      dup2\n      mload\n      dup2\n      lt\n      tag_154\n      jumpi\n      tag_155\n      tag_132\n      jump\t// in\n    tag_155:\n    tag_154:\n      0x20\n      mul\n      0x20\n      add\n      add\n        /* \"contracts/Wallet.sol\":4293:4311  tmpRefund[r] = eid */\n      dup2\n      dup2\n      mstore\n      pop\n      pop\n        /* \"contracts/Wallet.sol\":4330:4333  r++ */\n      dup3\n      dup1\n      tag_156\n      swap1\n      tag_142\n      jump\t// in\n    tag_156:\n      swap4\n      pop\n      pop\n        /* \"contracts/Wallet.sol\":4225:4349  if (escrows[eid].status == EscrowStatus.Pending) {... */\n    tag_153:\n        /* \"contracts/Wallet.sol\":4161:4360  {... */\n      pop\n        /* \"contracts/Wallet.sol\":4156:4159  i++ */\n      dup1\n      dup1\n      0x01\n      add\n      swap2\n      pop\n      pop\n        /* \"contracts/Wallet.sol\":4120:4360  for (uint256 i = 0; i < sentLength; i++) {... */\n      jump(tag_143)\n    tag_144:\n      pop\n        /* \"contracts/Wallet.sol\":4370:4402  uint256[] memory claimableResult */\n      0x00\n        /* \"contracts/Wallet.sol\":4419:4420  c */\n      dup3\n        /* \"contracts/Wallet.sol\":4405:4421  new uint256[](c) */\n      0xffffffffffffffff\n      dup2\n      gt\n      iszero\n      tag_157\n      jumpi\n      tag_158\n      tag_122\n      jump\t// in\n    tag_158:\n    tag_157:\n      mload(0x40)\n      swap1\n      dup1\n      dup3\n      mstore\n      dup1\n      0x20\n      mul\n      0x20\n      add\n      dup3\n      add\n      0x40\n      mstore\n      dup1\n      iszero\n      tag_159\n      jumpi\n      dup2\n      0x20\n      add\n      0x20\n      dup3\n      mul\n      dup1\n      calldatasize\n      dup4\n      calldatacopy\n      dup1\n      dup3\n      add\n      swap2\n      pop\n      pop\n      swap1\n      pop\n    tag_159:\n      pop\n        /* \"contracts/Wallet.sol\":4370:4421  uint256[] memory claimableResult = new uint256[](c) */\n      swap1\n      pop\n        /* \"contracts/Wallet.sol\":4432:4465  uint256[] memory refundableResult */\n      0x00\n        /* \"contracts/Wallet.sol\":4482:4483  r */\n      dup3\n        /* \"contracts/Wallet.sol\":4468:4484  new uint256[](r) */\n      0xffffffffffffffff\n      dup2\n      gt\n      iszero\n      tag_160\n      jumpi\n      tag_161\n      tag_122\n      jump\t// in\n    tag_161:\n    tag_160:\n      mload(0x40)\n      swap1\n      dup1\n      dup3\n      mstore\n      dup1\n      0x20\n      mul\n      0x20\n      add\n      dup3\n      add\n      0x40\n      mstore\n      dup1\n      iszero\n      tag_162\n      jumpi\n      dup2\n      0x20\n      add\n      0x20\n      dup3\n      mul\n      dup1\n      calldatasize\n      dup4\n      calldatacopy\n      dup1\n      dup3\n      add\n      swap2\n      pop\n      pop\n      swap1\n      pop\n    tag_162:\n      pop\n        /* \"contracts/Wallet.sol\":4432:4484  uint256[] memory refundableResult = new uint256[](r) */\n      swap1\n      pop\n        /* \"contracts/Wallet.sol\":4500:4509  uint256 i */\n      0x00\n        /* \"contracts/Wallet.sol\":4512:4513  0 */\n      0x00\n        /* \"contracts/Wallet.sol\":4500:4513  uint256 i = 0 */\n      swap1\n      pop\n        /* \"contracts/Wallet.sol\":4495:4586  for (uint256 i = 0; i < c; i++) {... */\n    tag_163:\n        /* \"contracts/Wallet.sol\":4519:4520  c */\n      dup5\n        /* \"contracts/Wallet.sol\":4515:4516  i */\n      dup2\n        /* \"contracts/Wallet.sol\":4515:4520  i < c */\n      lt\n        /* \"contracts/Wallet.sol\":4495:4586  for (uint256 i = 0; i < c; i++) {... */\n      iszero\n      tag_164\n      jumpi\n        /* \"contracts/Wallet.sol\":4563:4571  tmpClaim */\n      dup7\n        /* \"contracts/Wallet.sol\":4572:4573  i */\n      dup2\n        /* \"contracts/Wallet.sol\":4563:4574  tmpClaim[i] */\n      dup2\n      mload\n      dup2\n      lt\n      tag_166\n      jumpi\n      tag_167\n      tag_132\n      jump\t// in\n    tag_167:\n    tag_166:\n      0x20\n      mul\n      0x20\n      add\n      add\n      mload\n        /* \"contracts/Wallet.sol\":4542:4557  claimableResult */\n      dup4\n        /* \"contracts/Wallet.sol\":4558:4559  i */\n      dup3\n        /* \"contracts/Wallet.sol\":4542:4560  claimableResult[i] */\n      dup2\n      mload\n      dup2\n      lt\n      tag_168\n      jumpi\n      tag_169\n      tag_132\n      jump\t// in\n    tag_169:\n    tag_168:\n      0x20\n      mul\n      0x20\n      add\n      add\n        /* \"contracts/Wallet.sol\":4542:4574  claimableResult[i] = tmpClaim[i] */\n      dup2\n      dup2\n      mstore\n      pop\n      pop\n        /* \"contracts/Wallet.sol\":4522:4525  i++ */\n      dup1\n      dup1\n      0x01\n      add\n      swap2\n      pop\n      pop\n        /* \"contracts/Wallet.sol\":4495:4586  for (uint256 i = 0; i < c; i++) {... */\n      jump(tag_163)\n    tag_164:\n      pop\n        /* \"contracts/Wallet.sol\":4601:4610  uint256 i */\n      0x00\n        /* \"contracts/Wallet.sol\":4613:4614  0 */\n      0x00\n        /* \"contracts/Wallet.sol\":4601:4614  uint256 i = 0 */\n      swap1\n      pop\n        /* \"contracts/Wallet.sol\":4596:4689  for (uint256 i = 0; i < r; i++) {... */\n    tag_170:\n        /* \"contracts/Wallet.sol\":4620:4621  r */\n      dup4\n        /* \"contracts/Wallet.sol\":4616:4617  i */\n      dup2\n        /* \"contracts/Wallet.sol\":4616:4621  i < r */\n      lt\n        /* \"contracts/Wallet.sol\":4596:4689  for (uint256 i = 0; i < r; i++) {... */\n      iszero\n      tag_171\n      jumpi\n        /* \"contracts/Wallet.sol\":4665:4674  tmpRefund */\n      dup6\n        /* \"contracts/Wallet.sol\":4675:4676  i */\n      dup2\n        /* \"contracts/Wallet.sol\":4665:4677  tmpRefund[i] */\n      dup2\n      mload\n      dup2\n      lt\n      tag_173\n      jumpi\n      tag_174\n      tag_132\n      jump\t// in\n    tag_174:\n    tag_173:\n      0x20\n      mul\n      0x20\n      add\n      add\n      mload\n        /* \"contracts/Wallet.sol\":4643:4659  refundableResult */\n      dup3\n        /* \"contracts/Wallet.sol\":4660:4661  i */\n      dup3\n        /* \"contracts/Wallet.sol\":4643:4662  refundableResult[i] */\n      dup2\n      mload\n      dup2\n      lt\n      tag_175\n      jumpi\n      tag_176\n      tag_132\n      jump\t// in\n    tag_176:\n    tag_175:\n      0x20\n      mul\n      0x20\n      add\n      add\n        /* \"contracts/Wallet.sol\":4643:4677  refundableResult[i] = tmpRefund[i] */\n      dup2\n      dup2\n      mstore\n      pop\n      pop\n        /* \"contracts/Wallet.sol\":4623:4626  i++ */\n      dup1\n      dup1\n      0x01\n      add\n      swap2\n      pop\n      pop\n        /* \"contracts/Wallet.sol\":4596:4689  for (uint256 i = 0; i < r; i++) {... */\n      jump(tag_170)\n    tag_171:\n      pop\n        /* \"contracts/Wallet.sol\":4707:4722  claimableResult */\n      dup2\n        /* \"contracts/Wallet.sol\":4724:4740  refundableResult */\n      dup2\n        /* \"contracts/Wallet.sol\":4699:4741  return (claimableResult, refundableResult) */\n      swap10\n      pop\n      swap10\n      pop\n      pop\n      pop\n      pop\n      pop\n      pop\n      pop\n      pop\n      pop\n        /* \"contracts/Wallet.sol\":3428:4749  function getPendingActions(address user) external view returns (uint256[] memory claimable, uint256[] memory refundable) {... */\n      swap2\n      pop\n      swap2\n      jump\t// out\n        /* \"contracts/Wallet.sol\":2842:2976  function getUserReceivedEscrows(address user) external view returns (uint256[] memory) {... */\n    tag_45:\n        /* \"contracts/Wallet.sol\":2911:2927  uint256[] memory */\n      0x60\n        /* \"contracts/Wallet.sol\":2947:2962  receivedEscrows */\n      0x03\n        /* \"contracts/Wallet.sol\":2947:2968  receivedEscrows[user] */\n      0x00\n        /* \"contracts/Wallet.sol\":2963:2967  user */\n      dup4\n        /* \"contracts/Wallet.sol\":2947:2968  receivedEscrows[user] */\n      0xffffffffffffffffffffffffffffffffffffffff\n      and\n      0xffffffffffffffffffffffffffffffffffffffff\n      and\n      dup2\n      mstore\n      0x20\n      add\n      swap1\n      dup2\n      mstore\n      0x20\n      add\n      0x00\n      keccak256\n        /* \"contracts/Wallet.sol\":2940:2968  return receivedEscrows[user] */\n      dup1\n      sload\n      dup1\n      0x20\n      mul\n      0x20\n      add\n      mload(0x40)\n      swap1\n      dup2\n      add\n      0x40\n      mstore\n      dup1\n      swap3\n      swap2\n      swap1\n      dup2\n      dup2\n      mstore\n      0x20\n      add\n      dup3\n      dup1\n      sload\n      dup1\n      iszero\n      tag_178\n      jumpi\n      0x20\n      mul\n      dup3\n      add\n      swap2\n      swap1\n      0x00\n      mstore\n      keccak256(0x00, 0x20)\n      swap1\n    tag_179:\n      dup2\n      sload\n      dup2\n      mstore\n      0x20\n      add\n      swap1\n      0x01\n      add\n      swap1\n      dup1\n      dup4\n      gt\n      tag_179\n      jumpi\n    tag_178:\n      pop\n      pop\n      pop\n      pop\n      pop\n      swap1\n      pop\n        /* \"contracts/Wallet.sol\":2842:2976  function getUserReceivedEscrows(address user) external view returns (uint256[] memory) {... */\n      swap2\n      swap1\n      pop\n      jump\t// out\n        /* \"contracts/Wallet.sol\":363:389  uint256 public escrowCount */\n    tag_49:\n      sload(0x00)\n      dup2\n      jump\t// out\n        /* \"contracts/Wallet.sol\":499:551  mapping(address => uint256[]) public receivedEscrows */\n    tag_56:\n      mstore(0x20, 0x03)\n      dup2\n      0x00\n      mstore\n      keccak256(0x00, 0x40)\n      dup2\n      dup2\n      sload\n      dup2\n      lt\n      tag_180\n      jumpi\n      0x00\n      dup1\n      revert\n    tag_180:\n      swap1\n      0x00\n      mstore\n      keccak256(0x00, 0x20)\n      add\n      0x00\n      swap2\n      pop\n      swap2\n      pop\n      pop\n      sload\n      dup2\n      jump\t// out\n        /* \"contracts/Wallet.sol\":2984:3420  function getEscrowDetails(uint256 escrowId) external view returns (... */\n    tag_61:\n        /* \"contracts/Wallet.sol\":3061:3075  address sender */\n      0x00\n        /* \"contracts/Wallet.sol\":3086:3102  address receiver */\n      0x00\n        /* \"contracts/Wallet.sol\":3113:3127  uint256 amount */\n      0x00\n        /* \"contracts/Wallet.sol\":3138:3157  EscrowStatus status */\n      0x00\n        /* \"contracts/Wallet.sol\":3168:3185  uint256 createdAt */\n      0x00\n        /* \"contracts/Wallet.sol\":3196:3213  uint256 claimedAt */\n      0x00\n        /* \"contracts/Wallet.sol\":3224:3242  uint256 refundedAt */\n      0x00\n        /* \"contracts/Wallet.sol\":3261:3278  Escrow memory esc */\n      0x00\n        /* \"contracts/Wallet.sol\":3281:3288  escrows */\n      0x01\n        /* \"contracts/Wallet.sol\":3281:3298  escrows[escrowId] */\n      0x00\n        /* \"contracts/Wallet.sol\":3289:3297  escrowId */\n      dup11\n        /* \"contracts/Wallet.sol\":3281:3298  escrows[escrowId] */\n      dup2\n      mstore\n      0x20\n      add\n      swap1\n      dup2\n      mstore\n      0x20\n      add\n      0x00\n      keccak256\n        /* \"contracts/Wallet.sol\":3261:3298  Escrow memory esc = escrows[escrowId] */\n      mload(0x40)\n      dup1\n      0xe0\n      add\n      0x40\n      mstore\n      swap1\n      dup2\n      0x00\n      dup3\n      add\n      0x00\n      swap1\n      sload\n      swap1\n      0x0100\n      exp\n      swap1\n      div\n      0xffffffffffffffffffffffffffffffffffffffff\n      and\n      0xffffffffffffffffffffffffffffffffffffffff\n      and\n      0xffffffffffffffffffffffffffffffffffffffff\n      and\n      dup2\n      mstore\n      0x20\n      add\n      0x01\n      dup3\n      add\n      0x00\n      swap1\n      sload\n      swap1\n      0x0100\n      exp\n      swap1\n      div\n      0xffffffffffffffffffffffffffffffffffffffff\n      and\n      0xffffffffffffffffffffffffffffffffffffffff\n      and\n      0xffffffffffffffffffffffffffffffffffffffff\n      and\n      dup2\n      mstore\n      0x20\n      add\n      0x02\n      dup3\n      add\n      sload\n      dup2\n      mstore\n      0x20\n      add\n      0x03\n      dup3\n      add\n      0x00\n      swap1\n      sload\n      swap1\n      0x0100\n      exp\n      swap1\n      div\n      0xff\n      and\n      0x02\n      dup2\n      gt\n      iszero\n      tag_183\n      jumpi\n      tag_184\n      tag_78\n      jump\t// in\n    tag_184:\n    tag_183:\n      0x02\n      dup2\n      gt\n      iszero\n      tag_185\n      jumpi\n      tag_186\n      tag_78\n      jump\t// in\n    tag_186:\n    tag_185:\n      dup2\n      mstore\n      0x20\n      add\n      0x04\n      dup3\n      add\n      sload\n      dup2\n      mstore\n      0x20\n      add\n      0x05\n      dup3\n      add\n      sload\n      dup2\n      mstore\n      0x20\n      add\n      0x06\n      dup3\n      add\n      sload\n      dup2\n      mstore\n      pop\n      pop\n      swap1\n      pop\n        /* \"contracts/Wallet.sol\":3317:3320  esc */\n      dup1\n        /* \"contracts/Wallet.sol\":3317:3327  esc.sender */\n      0x00\n      add\n      mload\n        /* \"contracts/Wallet.sol\":3329:3332  esc */\n      dup2\n        /* \"contracts/Wallet.sol\":3329:3341  esc.receiver */\n      0x20\n      add\n      mload\n        /* \"contracts/Wallet.sol\":3343:3346  esc */\n      dup3\n        /* \"contracts/Wallet.sol\":3343:3353  esc.amount */\n      0x40\n      add\n      mload\n        /* \"contracts/Wallet.sol\":3355:3358  esc */\n      dup4\n        /* \"contracts/Wallet.sol\":3355:3365  esc.status */\n      0x60\n      add\n      mload\n        /* \"contracts/Wallet.sol\":3367:3370  esc */\n      dup5\n        /* \"contracts/Wallet.sol\":3367:3380  esc.createdAt */\n      0x80\n      add\n      mload\n        /* \"contracts/Wallet.sol\":3382:3385  esc */\n      dup6\n        /* \"contracts/Wallet.sol\":3382:3395  esc.claimedAt */\n      0xa0\n      add\n      mload\n        /* \"contracts/Wallet.sol\":3397:3400  esc */\n      dup7\n        /* \"contracts/Wallet.sol\":3397:3411  esc.refundedAt */\n      0xc0\n      add\n      mload\n        /* \"contracts/Wallet.sol\":3309:3412  return (esc.sender, esc.receiver, esc.amount, esc.status, esc.createdAt, esc.claimedAt, esc.refundedAt) */\n      swap8\n      pop\n      swap8\n      pop\n      swap8\n      pop\n      swap8\n      pop\n      swap8\n      pop\n      swap8\n      pop\n      swap8\n      pop\n      pop\n        /* \"contracts/Wallet.sol\":2984:3420  function getEscrowDetails(uint256 escrowId) external view returns (... */\n      swap2\n      swap4\n      swap6\n      swap8\n      swap1\n      swap3\n      swap5\n      swap7\n      pop\n      jump\t// out\n        /* \"contracts/Wallet.sol\":444:492  mapping(address => uint256[]) public sentEscrows */\n    tag_66:\n      mstore(0x20, 0x02)\n      dup2\n      0x00\n      mstore\n      keccak256(0x00, 0x40)\n      dup2\n      dup2\n      sload\n      dup2\n      lt\n      tag_187\n      jumpi\n      0x00\n      dup1\n      revert\n    tag_187:\n      swap1\n      0x00\n      mstore\n      keccak256(0x00, 0x20)\n      add\n      0x00\n      swap2\n      pop\n      swap2\n      pop\n      pop\n      sload\n      dup2\n      jump\t// out\n        /* \"contracts/Wallet.sol\":895:1628  function createEscrow(address receiver) external payable returns (uint256) {... */\n    tag_70:\n        /* \"contracts/Wallet.sol\":961:968  uint256 */\n      0x00\n        /* \"contracts/Wallet.sol\":1001:1002  0 */\n      0x00\n        /* \"contracts/Wallet.sol\":989:998  msg.value */\n      callvalue\n        /* \"contracts/Wallet.sol\":989:1002  msg.value > 0 */\n      gt\n        /* \"contracts/Wallet.sol\":981:1024  require(msg.value > 0, \"Amount must be >0\") */\n      tag_190\n      jumpi\n      mload(0x40)\n      0x08c379a000000000000000000000000000000000000000000000000000000000\n      dup2\n      mstore\n      0x04\n      add\n      tag_191\n      swap1\n      tag_192\n      jump\t// in\n    tag_191:\n      mload(0x40)\n      dup1\n      swap2\n      sub\n      swap1\n      revert\n    tag_190:\n        /* \"contracts/Wallet.sol\":1063:1064  0 */\n      0x00\n        /* \"contracts/Wallet.sol\":1043:1065  receiver != address(0) */\n      0xffffffffffffffffffffffffffffffffffffffff\n      and\n        /* \"contracts/Wallet.sol\":1043:1051  receiver */\n      dup3\n        /* \"contracts/Wallet.sol\":1043:1065  receiver != address(0) */\n      0xffffffffffffffffffffffffffffffffffffffff\n      and\n      sub\n        /* \"contracts/Wallet.sol\":1035:1087  require(receiver != address(0), \"Receiver required\") */\n      tag_193\n      jumpi\n      mload(0x40)\n      0x08c379a000000000000000000000000000000000000000000000000000000000\n      dup2\n      mstore\n      0x04\n      add\n      tag_194\n      swap1\n      tag_195\n      jump\t// in\n    tag_194:\n      mload(0x40)\n      dup1\n      swap2\n      sub\n      swap1\n      revert\n    tag_193:\n        /* \"contracts/Wallet.sol\":1115:1116  1 */\n      0x01\n        /* \"contracts/Wallet.sol\":1100:1111  escrowCount */\n      0x00\n      0x00\n        /* \"contracts/Wallet.sol\":1100:1116  escrowCount += 1 */\n      dup3\n      dup3\n      sload\n      tag_196\n      swap2\n      swap1\n      tag_197\n      jump\t// in\n    tag_196:\n      swap3\n      pop\n      pop\n      dup2\n      swap1\n      sstore\n      pop\n        /* \"contracts/Wallet.sol\":1150:1406  Escrow({... */\n      mload(0x40)\n      dup1\n      0xe0\n      add\n      0x40\n      mstore\n      dup1\n        /* \"contracts/Wallet.sol\":1180:1190  msg.sender */\n      caller\n        /* \"contracts/Wallet.sol\":1150:1406  Escrow({... */\n      0xffffffffffffffffffffffffffffffffffffffff\n      and\n      dup2\n      mstore\n      0x20\n      add\n        /* \"contracts/Wallet.sol\":1215:1223  receiver */\n      dup4\n        /* \"contracts/Wallet.sol\":1150:1406  Escrow({... */\n      0xffffffffffffffffffffffffffffffffffffffff\n      and\n      dup2\n      mstore\n      0x20\n      add\n        /* \"contracts/Wallet.sol\":1246:1255  msg.value */\n      callvalue\n        /* \"contracts/Wallet.sol\":1150:1406  Escrow({... */\n      dup2\n      mstore\n      0x20\n      add\n        /* \"contracts/Wallet.sol\":1278:1298  EscrowStatus.Pending */\n      0x00\n        /* \"contracts/Wallet.sol\":1150:1406  Escrow({... */\n      0x02\n      dup2\n      gt\n      iszero\n      tag_198\n      jumpi\n      tag_199\n      tag_78\n      jump\t// in\n    tag_199:\n    tag_198:\n      dup2\n      mstore\n      0x20\n      add\n        /* \"contracts/Wallet.sol\":1324:1339  block.timestamp */\n      timestamp\n        /* \"contracts/Wallet.sol\":1150:1406  Escrow({... */\n      dup2\n      mstore\n      0x20\n      add\n        /* \"contracts/Wallet.sol\":1365:1366  0 */\n      0x00\n        /* \"contracts/Wallet.sol\":1150:1406  Escrow({... */\n      dup2\n      mstore\n      0x20\n      add\n        /* \"contracts/Wallet.sol\":1393:1394  0 */\n      0x00\n        /* \"contracts/Wallet.sol\":1150:1406  Escrow({... */\n      dup2\n      mstore\n      pop\n        /* \"contracts/Wallet.sol\":1127:1134  escrows */\n      0x01\n        /* \"contracts/Wallet.sol\":1127:1147  escrows[escrowCount] */\n      0x00\n        /* \"contracts/Wallet.sol\":1135:1146  escrowCount */\n      sload(0x00)\n        /* \"contracts/Wallet.sol\":1127:1147  escrows[escrowCount] */\n      dup2\n      mstore\n      0x20\n      add\n      swap1\n      dup2\n      mstore\n      0x20\n      add\n      0x00\n      keccak256\n        /* \"contracts/Wallet.sol\":1127:1406  escrows[escrowCount] = Escrow({... */\n      0x00\n      dup3\n      add\n      mload\n      dup2\n      0x00\n      add\n      exp(0x0100, 0x00)\n      dup2\n      sload\n      dup2\n      0xffffffffffffffffffffffffffffffffffffffff\n      mul\n      not\n      and\n      swap1\n      dup4\n      0xffffffffffffffffffffffffffffffffffffffff\n      and\n      mul\n      or\n      swap1\n      sstore\n      pop\n      0x20\n      dup3\n      add\n      mload\n      dup2\n      0x01\n      add\n      exp(0x0100, 0x00)\n      dup2\n      sload\n      dup2\n      0xffffffffffffffffffffffffffffffffffffffff\n      mul\n      not\n      and\n      swap1\n      dup4\n      0xffffffffffffffffffffffffffffffffffffffff\n      and\n      mul\n      or\n      swap1\n      sstore\n      pop\n      0x40\n      dup3\n      add\n      mload\n      dup2\n      0x02\n      add\n      sstore\n      0x60\n      dup3\n      add\n      mload\n      dup2\n      0x03\n      add\n      exp(0x0100, 0x00)\n      dup2\n      sload\n      dup2\n      0xff\n      mul\n      not\n      and\n      swap1\n      dup4\n      0x02\n      dup2\n      gt\n      iszero\n      tag_200\n      jumpi\n      tag_201\n      tag_78\n      jump\t// in\n    tag_201:\n    tag_200:\n      mul\n      or\n      swap1\n      sstore\n      pop\n      0x80\n      dup3\n      add\n      mload\n      dup2\n      0x04\n      add\n      sstore\n      0xa0\n      dup3\n      add\n      mload\n      dup2\n      0x05\n      add\n      sstore\n      0xc0\n      dup3\n      add\n      mload\n      dup2\n      0x06\n      add\n      sstore\n      swap1\n      pop\n      pop\n        /* \"contracts/Wallet.sol\":1419:1430  sentEscrows */\n      0x02\n        /* \"contracts/Wallet.sol\":1419:1442  sentEscrows[msg.sender] */\n      0x00\n        /* \"contracts/Wallet.sol\":1431:1441  msg.sender */\n      caller\n        /* \"contracts/Wallet.sol\":1419:1442  sentEscrows[msg.sender] */\n      0xffffffffffffffffffffffffffffffffffffffff\n      and\n      0xffffffffffffffffffffffffffffffffffffffff\n      and\n      dup2\n      mstore\n      0x20\n      add\n      swap1\n      dup2\n      mstore\n      0x20\n      add\n      0x00\n      keccak256\n        /* \"contracts/Wallet.sol\":1448:1459  escrowCount */\n      sload(0x00)\n        /* \"contracts/Wallet.sol\":1419:1460  sentEscrows[msg.sender].push(escrowCount) */\n      swap1\n      dup1\n      0x01\n      dup2\n      sload\n      add\n      dup1\n      dup3\n      sstore\n      dup1\n      swap2\n      pop\n      pop\n      0x01\n      swap1\n      sub\n      swap1\n      0x00\n      mstore\n      keccak256(0x00, 0x20)\n      add\n      0x00\n      swap1\n      swap2\n      swap1\n      swap2\n      swap1\n      swap2\n      pop\n      sstore\n        /* \"contracts/Wallet.sol\":1471:1486  receivedEscrows */\n      0x03\n        /* \"contracts/Wallet.sol\":1471:1496  receivedEscrows[receiver] */\n      0x00\n        /* \"contracts/Wallet.sol\":1487:1495  receiver */\n      dup4\n        /* \"contracts/Wallet.sol\":1471:1496  receivedEscrows[receiver] */\n      0xffffffffffffffffffffffffffffffffffffffff\n      and\n      0xffffffffffffffffffffffffffffffffffffffff\n      and\n      dup2\n      mstore\n      0x20\n      add\n      swap1\n      dup2\n      mstore\n      0x20\n      add\n      0x00\n      keccak256\n        /* \"contracts/Wallet.sol\":1502:1513  escrowCount */\n      sload(0x00)\n        /* \"contracts/Wallet.sol\":1471:1514  receivedEscrows[receiver].push(escrowCount) */\n      swap1\n      dup1\n      0x01\n      dup2\n      sload\n      add\n      dup1\n      dup3\n      sstore\n      dup1\n      swap2\n      pop\n      pop\n      0x01\n      swap1\n      sub\n      swap1\n      0x00\n      mstore\n      keccak256(0x00, 0x20)\n      add\n      0x00\n      swap1\n      swap2\n      swap1\n      swap2\n      swap1\n      swap2\n      pop\n      sstore\n        /* \"contracts/Wallet.sol\":1571:1579  receiver */\n      dup2\n        /* \"contracts/Wallet.sol\":1532:1591  EscrowCreated(escrowCount, msg.sender, receiver, msg.value) */\n      0xffffffffffffffffffffffffffffffffffffffff\n      and\n        /* \"contracts/Wallet.sol\":1559:1569  msg.sender */\n      caller\n        /* \"contracts/Wallet.sol\":1532:1591  EscrowCreated(escrowCount, msg.sender, receiver, msg.value) */\n      0xffffffffffffffffffffffffffffffffffffffff\n      and\n        /* \"contracts/Wallet.sol\":1546:1557  escrowCount */\n      sload(0x00)\n        /* \"contracts/Wallet.sol\":1532:1591  EscrowCreated(escrowCount, msg.sender, receiver, msg.value) */\n      0x9405ad0a6208539879349284d71265479b1623846f70303da1f9890d6e8c10a7\n        /* \"contracts/Wallet.sol\":1581:1590  msg.value */\n      callvalue\n        /* \"contracts/Wallet.sol\":1532:1591  EscrowCreated(escrowCount, msg.sender, receiver, msg.value) */\n      mload(0x40)\n      tag_204\n      swap2\n      swap1\n      tag_51\n      jump\t// in\n    tag_204:\n      mload(0x40)\n      dup1\n      swap2\n      sub\n      swap1\n      log4\n        /* \"contracts/Wallet.sol\":1609:1620  escrowCount */\n      sload(0x00)\n        /* \"contracts/Wallet.sol\":1602:1620  return escrowCount */\n      swap1\n      pop\n        /* \"contracts/Wallet.sol\":895:1628  function createEscrow(address receiver) external payable returns (uint256) {... */\n      swap2\n      swap1\n      pop\n      jump\t// out\n        /* \"#utility.yul\":88:205   */\n    tag_206:\n        /* \"#utility.yul\":197:198   */\n      0x00\n        /* \"#utility.yul\":194:195   */\n      0x00\n        /* \"#utility.yul\":187:199   */\n      revert\n        /* \"#utility.yul\":334:411   */\n    tag_208:\n        /* \"#utility.yul\":371:378   */\n      0x00\n        /* \"#utility.yul\":400:405   */\n      dup2\n        /* \"#utility.yul\":389:405   */\n      swap1\n      pop\n        /* \"#utility.yul\":334:411   */\n      swap2\n      swap1\n      pop\n      jump\t// out\n        /* \"#utility.yul\":417:539   */\n    tag_209:\n        /* \"#utility.yul\":490:514   */\n      tag_255\n        /* \"#utility.yul\":508:513   */\n      dup2\n        /* \"#utility.yul\":490:514   */\n      tag_208\n      jump\t// in\n    tag_255:\n        /* \"#utility.yul\":483:488   */\n      dup2\n        /* \"#utility.yul\":480:515   */\n      eq\n        /* \"#utility.yul\":470:533   */\n      tag_256\n      jumpi\n        /* \"#utility.yul\":529:530   */\n      0x00\n        /* \"#utility.yul\":526:527   */\n      0x00\n        /* \"#utility.yul\":519:531   */\n      revert\n        /* \"#utility.yul\":470:533   */\n    tag_256:\n        /* \"#utility.yul\":417:539   */\n      pop\n      jump\t// out\n        /* \"#utility.yul\":545:684   */\n    tag_210:\n        /* \"#utility.yul\":591:596   */\n      0x00\n        /* \"#utility.yul\":629:635   */\n      dup2\n        /* \"#utility.yul\":616:636   */\n      calldataload\n        /* \"#utility.yul\":607:636   */\n      swap1\n      pop\n        /* \"#utility.yul\":645:678   */\n      tag_258\n        /* \"#utility.yul\":672:677   */\n      dup2\n        /* \"#utility.yul\":645:678   */\n      tag_209\n      jump\t// in\n    tag_258:\n        /* \"#utility.yul\":545:684   */\n      swap3\n      swap2\n      pop\n      pop\n      jump\t// out\n        /* \"#utility.yul\":690:1019   */\n    tag_17:\n        /* \"#utility.yul\":749:755   */\n      0x00\n        /* \"#utility.yul\":798:800   */\n      0x20\n        /* \"#utility.yul\":786:795   */\n      dup3\n        /* \"#utility.yul\":777:784   */\n      dup5\n        /* \"#utility.yul\":773:796   */\n      sub\n        /* \"#utility.yul\":769:801   */\n      slt\n        /* \"#utility.yul\":766:885   */\n      iszero\n      tag_260\n      jumpi\n        /* \"#utility.yul\":804:883   */\n      tag_261\n      tag_206\n      jump\t// in\n    tag_261:\n        /* \"#utility.yul\":766:885   */\n    tag_260:\n        /* \"#utility.yul\":924:925   */\n      0x00\n        /* \"#utility.yul\":949:1002   */\n      tag_262\n        /* \"#utility.yul\":994:1001   */\n      dup5\n        /* \"#utility.yul\":985:991   */\n      dup3\n        /* \"#utility.yul\":974:983   */\n      dup6\n        /* \"#utility.yul\":970:992   */\n      add\n        /* \"#utility.yul\":949:1002   */\n      tag_210\n      jump\t// in\n    tag_262:\n        /* \"#utility.yul\":939:1002   */\n      swap2\n      pop\n        /* \"#utility.yul\":895:1012   */\n      pop\n        /* \"#utility.yul\":690:1019   */\n      swap3\n      swap2\n      pop\n      pop\n      jump\t// out\n        /* \"#utility.yul\":1025:1151   */\n    tag_211:\n        /* \"#utility.yul\":1062:1069   */\n      0x00\n        /* \"#utility.yul\":1102:1144   */\n      0xffffffffffffffffffffffffffffffffffffffff\n        /* \"#utility.yul\":1095:1100   */\n      dup3\n        /* \"#utility.yul\":1091:1145   */\n      and\n        /* \"#utility.yul\":1080:1145   */\n      swap1\n      pop\n        /* \"#utility.yul\":1025:1151   */\n      swap2\n      swap1\n      pop\n      jump\t// out\n        /* \"#utility.yul\":1157:1253   */\n    tag_212:\n        /* \"#utility.yul\":1194:1201   */\n      0x00\n        /* \"#utility.yul\":1223:1247   */\n      tag_265\n        /* \"#utility.yul\":1241:1246   */\n      dup3\n        /* \"#utility.yul\":1223:1247   */\n      tag_211\n      jump\t// in\n    tag_265:\n        /* \"#utility.yul\":1212:1247   */\n      swap1\n      pop\n        /* \"#utility.yul\":1157:1253   */\n      swap2\n      swap1\n      pop\n      jump\t// out\n        /* \"#utility.yul\":1259:1377   */\n    tag_213:\n        /* \"#utility.yul\":1346:1370   */\n      tag_267\n        /* \"#utility.yul\":1364:1369   */\n      dup2\n        /* \"#utility.yul\":1346:1370   */\n      tag_212\n      jump\t// in\n    tag_267:\n        /* \"#utility.yul\":1341:1344   */\n      dup3\n        /* \"#utility.yul\":1334:1371   */\n      mstore\n        /* \"#utility.yul\":1259:1377   */\n      pop\n      pop\n      jump\t// out\n        /* \"#utility.yul\":1383:1501   */\n    tag_214:\n        /* \"#utility.yul\":1470:1494   */\n      tag_269\n        /* \"#utility.yul\":1488:1493   */\n      dup2\n        /* \"#utility.yul\":1470:1494   */\n      tag_208\n      jump\t// in\n    tag_269:\n        /* \"#utility.yul\":1465:1468   */\n      dup3\n        /* \"#utility.yul\":1458:1495   */\n      mstore\n        /* \"#utility.yul\":1383:1501   */\n      pop\n      pop\n      jump\t// out\n        /* \"#utility.yul\":1507:1687   */\n    tag_78:\n        /* \"#utility.yul\":1555:1632   */\n      0x4e487b7100000000000000000000000000000000000000000000000000000000\n        /* \"#utility.yul\":1552:1553   */\n      0x00\n        /* \"#utility.yul\":1545:1633   */\n      mstore\n        /* \"#utility.yul\":1652:1656   */\n      0x21\n        /* \"#utility.yul\":1649:1650   */\n      0x04\n        /* \"#utility.yul\":1642:1657   */\n      mstore\n        /* \"#utility.yul\":1676:1680   */\n      0x24\n        /* \"#utility.yul\":1673:1674   */\n      0x00\n        /* \"#utility.yul\":1666:1681   */\n      revert\n        /* \"#utility.yul\":1693:1812   */\n    tag_215:\n        /* \"#utility.yul\":1780:1781   */\n      0x03\n        /* \"#utility.yul\":1773:1778   */\n      dup2\n        /* \"#utility.yul\":1770:1782   */\n      lt\n        /* \"#utility.yul\":1760:1806   */\n      tag_272\n      jumpi\n        /* \"#utility.yul\":1786:1804   */\n      tag_273\n      tag_78\n      jump\t// in\n    tag_273:\n        /* \"#utility.yul\":1760:1806   */\n    tag_272:\n        /* \"#utility.yul\":1693:1812   */\n      pop\n      jump\t// out\n        /* \"#utility.yul\":1818:1957   */\n    tag_216:\n        /* \"#utility.yul\":1869:1876   */\n      0x00\n        /* \"#utility.yul\":1898:1903   */\n      dup2\n        /* \"#utility.yul\":1887:1903   */\n      swap1\n      pop\n        /* \"#utility.yul\":1904:1951   */\n      tag_275\n        /* \"#utility.yul\":1945:1950   */\n      dup3\n        /* \"#utility.yul\":1904:1951   */\n      tag_215\n      jump\t// in\n    tag_275:\n        /* \"#utility.yul\":1818:1957   */\n      swap2\n      swap1\n      pop\n      jump\t// out\n        /* \"#utility.yul\":1963:2102   */\n    tag_217:\n        /* \"#utility.yul\":2025:2034   */\n      0x00\n        /* \"#utility.yul\":2058:2096   */\n      tag_277\n        /* \"#utility.yul\":2090:2095   */\n      dup3\n        /* \"#utility.yul\":2058:2096   */\n      tag_216\n      jump\t// in\n    tag_277:\n        /* \"#utility.yul\":2045:2096   */\n      swap1\n      pop\n        /* \"#utility.yul\":1963:2102   */\n      swap2\n      swap1\n      pop\n      jump\t// out\n        /* \"#utility.yul\":2108:2263   */\n    tag_218:\n        /* \"#utility.yul\":2207:2256   */\n      tag_279\n        /* \"#utility.yul\":2250:2255   */\n      dup2\n        /* \"#utility.yul\":2207:2256   */\n      tag_217\n      jump\t// in\n    tag_279:\n        /* \"#utility.yul\":2202:2205   */\n      dup3\n        /* \"#utility.yul\":2195:2257   */\n      mstore\n        /* \"#utility.yul\":2108:2263   */\n      pop\n      pop\n      jump\t// out\n        /* \"#utility.yul\":2269:3179   */\n    tag_20:\n        /* \"#utility.yul\":2542:2546   */\n      0x00\n        /* \"#utility.yul\":2580:2583   */\n      0xe0\n        /* \"#utility.yul\":2569:2578   */\n      dup3\n        /* \"#utility.yul\":2565:2584   */\n      add\n        /* \"#utility.yul\":2557:2584   */\n      swap1\n      pop\n        /* \"#utility.yul\":2594:2665   */\n      tag_281\n        /* \"#utility.yul\":2662:2663   */\n      0x00\n        /* \"#utility.yul\":2651:2660   */\n      dup4\n        /* \"#utility.yul\":2647:2664   */\n      add\n        /* \"#utility.yul\":2638:2644   */\n      dup11\n        /* \"#utility.yul\":2594:2665   */\n      tag_213\n      jump\t// in\n    tag_281:\n        /* \"#utility.yul\":2675:2747   */\n      tag_282\n        /* \"#utility.yul\":2743:2745   */\n      0x20\n        /* \"#utility.yul\":2732:2741   */\n      dup4\n        /* \"#utility.yul\":2728:2746   */\n      add\n        /* \"#utility.yul\":2719:2725   */\n      dup10\n        /* \"#utility.yul\":2675:2747   */\n      tag_213\n      jump\t// in\n    tag_282:\n        /* \"#utility.yul\":2757:2829   */\n      tag_283\n        /* \"#utility.yul\":2825:2827   */\n      0x40\n        /* \"#utility.yul\":2814:2823   */\n      dup4\n        /* \"#utility.yul\":2810:2828   */\n      add\n        /* \"#utility.yul\":2801:2807   */\n      dup9\n        /* \"#utility.yul\":2757:2829   */\n      tag_214\n      jump\t// in\n    tag_283:\n        /* \"#utility.yul\":2839:2923   */\n      tag_284\n        /* \"#utility.yul\":2919:2921   */\n      0x60\n        /* \"#utility.yul\":2908:2917   */\n      dup4\n        /* \"#utility.yul\":2904:2922   */\n      add\n        /* \"#utility.yul\":2895:2901   */\n      dup8\n        /* \"#utility.yul\":2839:2923   */\n      tag_218\n      jump\t// in\n    tag_284:\n        /* \"#utility.yul\":2933:3006   */\n      tag_285\n        /* \"#utility.yul\":3001:3004   */\n      0x80\n        /* \"#utility.yul\":2990:2999   */\n      dup4\n        /* \"#utility.yul\":2986:3005   */\n      add\n        /* \"#utility.yul\":2977:2983   */\n      dup7\n        /* \"#utility.yul\":2933:3006   */\n      tag_214\n      jump\t// in\n    tag_285:\n        /* \"#utility.yul\":3016:3089   */\n      tag_286\n        /* \"#utility.yul\":3084:3087   */\n      0xa0\n        /* \"#utility.yul\":3073:3082   */\n      dup4\n        /* \"#utility.yul\":3069:3088   */\n      add\n        /* \"#utility.yul\":3060:3066   */\n      dup6\n        /* \"#utility.yul\":3016:3089   */\n      tag_214\n      jump\t// in\n    tag_286:\n        /* \"#utility.yul\":3099:3172   */\n      tag_287\n        /* \"#utility.yul\":3167:3170   */\n      0xc0\n        /* \"#utility.yul\":3156:3165   */\n      dup4\n        /* \"#utility.yul\":3152:3171   */\n      add\n        /* \"#utility.yul\":3143:3149   */\n      dup5\n        /* \"#utility.yul\":3099:3172   */\n      tag_214\n      jump\t// in\n    tag_287:\n        /* \"#utility.yul\":2269:3179   */\n      swap9\n      swap8\n      pop\n      pop\n      pop\n      pop\n      pop\n      pop\n      pop\n      pop\n      jump\t// out\n        /* \"#utility.yul\":3185:3307   */\n    tag_219:\n        /* \"#utility.yul\":3258:3282   */\n      tag_289\n        /* \"#utility.yul\":3276:3281   */\n      dup2\n        /* \"#utility.yul\":3258:3282   */\n      tag_212\n      jump\t// in\n    tag_289:\n        /* \"#utility.yul\":3251:3256   */\n      dup2\n        /* \"#utility.yul\":3248:3283   */\n      eq\n        /* \"#utility.yul\":3238:3301   */\n      tag_290\n      jumpi\n        /* \"#utility.yul\":3297:3298   */\n      0x00\n        /* \"#utility.yul\":3294:3295   */\n      0x00\n        /* \"#utility.yul\":3287:3299   */\n      revert\n        /* \"#utility.yul\":3238:3301   */\n    tag_290:\n        /* \"#utility.yul\":3185:3307   */\n      pop\n      jump\t// out\n        /* \"#utility.yul\":3313:3452   */\n    tag_220:\n        /* \"#utility.yul\":3359:3364   */\n      0x00\n        /* \"#utility.yul\":3397:3403   */\n      dup2\n        /* \"#utility.yul\":3384:3404   */\n      calldataload\n        /* \"#utility.yul\":3375:3404   */\n      swap1\n      pop\n        /* \"#utility.yul\":3413:3446   */\n      tag_292\n        /* \"#utility.yul\":3440:3445   */\n      dup2\n        /* \"#utility.yul\":3413:3446   */\n      tag_219\n      jump\t// in\n    tag_292:\n        /* \"#utility.yul\":3313:3452   */\n      swap3\n      swap2\n      pop\n      pop\n      jump\t// out\n        /* \"#utility.yul\":3458:3787   */\n    tag_24:\n        /* \"#utility.yul\":3517:3523   */\n      0x00\n        /* \"#utility.yul\":3566:3568   */\n      0x20\n        /* \"#utility.yul\":3554:3563   */\n      dup3\n        /* \"#utility.yul\":3545:3552   */\n      dup5\n        /* \"#utility.yul\":3541:3564   */\n      sub\n        /* \"#utility.yul\":3537:3569   */\n      slt\n        /* \"#utility.yul\":3534:3653   */\n      iszero\n      tag_294\n      jumpi\n        /* \"#utility.yul\":3572:3651   */\n      tag_295\n      tag_206\n      jump\t// in\n    tag_295:\n        /* \"#utility.yul\":3534:3653   */\n    tag_294:\n        /* \"#utility.yul\":3692:3693   */\n      0x00\n        /* \"#utility.yul\":3717:3770   */\n      tag_296\n        /* \"#utility.yul\":3762:3769   */\n      dup5\n        /* \"#utility.yul\":3753:3759   */\n      dup3\n        /* \"#utility.yul\":3742:3751   */\n      dup6\n        /* \"#utility.yul\":3738:3760   */\n      add\n        /* \"#utility.yul\":3717:3770   */\n      tag_220\n      jump\t// in\n    tag_296:\n        /* \"#utility.yul\":3707:3770   */\n      swap2\n      pop\n        /* \"#utility.yul\":3663:3780   */\n      pop\n        /* \"#utility.yul\":3458:3787   */\n      swap3\n      swap2\n      pop\n      pop\n      jump\t// out\n        /* \"#utility.yul\":3793:3907   */\n    tag_221:\n        /* \"#utility.yul\":3860:3866   */\n      0x00\n        /* \"#utility.yul\":3894:3899   */\n      dup2\n        /* \"#utility.yul\":3888:3900   */\n      mload\n        /* \"#utility.yul\":3878:3900   */\n      swap1\n      pop\n        /* \"#utility.yul\":3793:3907   */\n      swap2\n      swap1\n      pop\n      jump\t// out\n        /* \"#utility.yul\":3913:4097   */\n    tag_222:\n        /* \"#utility.yul\":4012:4023   */\n      0x00\n        /* \"#utility.yul\":4046:4052   */\n      dup3\n        /* \"#utility.yul\":4041:4044   */\n      dup3\n        /* \"#utility.yul\":4034:4053   */\n      mstore\n        /* \"#utility.yul\":4086:4090   */\n      0x20\n        /* \"#utility.yul\":4081:4084   */\n      dup3\n        /* \"#utility.yul\":4077:4091   */\n      add\n        /* \"#utility.yul\":4062:4091   */\n      swap1\n      pop\n        /* \"#utility.yul\":3913:4097   */\n      swap3\n      swap2\n      pop\n      pop\n      jump\t// out\n        /* \"#utility.yul\":4103:4235   */\n    tag_223:\n        /* \"#utility.yul\":4170:4174   */\n      0x00\n        /* \"#utility.yul\":4193:4196   */\n      dup2\n        /* \"#utility.yul\":4185:4196   */\n      swap1\n      pop\n        /* \"#utility.yul\":4223:4227   */\n      0x20\n        /* \"#utility.yul\":4218:4221   */\n      dup3\n        /* \"#utility.yul\":4214:4228   */\n      add\n        /* \"#utility.yul\":4206:4228   */\n      swap1\n      pop\n        /* \"#utility.yul\":4103:4235   */\n      swap2\n      swap1\n      pop\n      jump\t// out\n        /* \"#utility.yul\":4241:4349   */\n    tag_224:\n        /* \"#utility.yul\":4318:4342   */\n      tag_301\n        /* \"#utility.yul\":4336:4341   */\n      dup2\n        /* \"#utility.yul\":4318:4342   */\n      tag_208\n      jump\t// in\n    tag_301:\n        /* \"#utility.yul\":4313:4316   */\n      dup3\n        /* \"#utility.yul\":4306:4343   */\n      mstore\n        /* \"#utility.yul\":4241:4349   */\n      pop\n      pop\n      jump\t// out\n        /* \"#utility.yul\":4355:4534   */\n    tag_225:\n        /* \"#utility.yul\":4424:4434   */\n      0x00\n        /* \"#utility.yul\":4445:4491   */\n      tag_303\n        /* \"#utility.yul\":4487:4490   */\n      dup4\n        /* \"#utility.yul\":4479:4485   */\n      dup4\n        /* \"#utility.yul\":4445:4491   */\n      tag_224\n      jump\t// in\n    tag_303:\n        /* \"#utility.yul\":4523:4527   */\n      0x20\n        /* \"#utility.yul\":4518:4521   */\n      dup4\n        /* \"#utility.yul\":4514:4528   */\n      add\n        /* \"#utility.yul\":4500:4528   */\n      swap1\n      pop\n        /* \"#utility.yul\":4355:4534   */\n      swap3\n      swap2\n      pop\n      pop\n      jump\t// out\n        /* \"#utility.yul\":4540:4653   */\n    tag_226:\n        /* \"#utility.yul\":4610:4614   */\n      0x00\n        /* \"#utility.yul\":4642:4646   */\n      0x20\n        /* \"#utility.yul\":4637:4640   */\n      dup3\n        /* \"#utility.yul\":4633:4647   */\n      add\n        /* \"#utility.yul\":4625:4647   */\n      swap1\n      pop\n        /* \"#utility.yul\":4540:4653   */\n      swap2\n      swap1\n      pop\n      jump\t// out\n        /* \"#utility.yul\":4689:5421   */\n    tag_227:\n        /* \"#utility.yul\":4808:4811   */\n      0x00\n        /* \"#utility.yul\":4837:4891   */\n      tag_306\n        /* \"#utility.yul\":4885:4890   */\n      dup3\n        /* \"#utility.yul\":4837:4891   */\n      tag_221\n      jump\t// in\n    tag_306:\n        /* \"#utility.yul\":4907:4993   */\n      tag_307\n        /* \"#utility.yul\":4986:4992   */\n      dup2\n        /* \"#utility.yul\":4981:4984   */\n      dup6\n        /* \"#utility.yul\":4907:4993   */\n      tag_222\n      jump\t// in\n    tag_307:\n        /* \"#utility.yul\":4900:4993   */\n      swap4\n      pop\n        /* \"#utility.yul\":5017:5073   */\n      tag_308\n        /* \"#utility.yul\":5067:5072   */\n      dup4\n        /* \"#utility.yul\":5017:5073   */\n      tag_223\n      jump\t// in\n    tag_308:\n        /* \"#utility.yul\":5096:5103   */\n      dup1\n        /* \"#utility.yul\":5127:5128   */\n      0x00\n        /* \"#utility.yul\":5112:5396   */\n    tag_309:\n        /* \"#utility.yul\":5137:5143   */\n      dup4\n        /* \"#utility.yul\":5134:5135   */\n      dup2\n        /* \"#utility.yul\":5131:5144   */\n      lt\n        /* \"#utility.yul\":5112:5396   */\n      iszero\n      tag_311\n      jumpi\n        /* \"#utility.yul\":5213:5219   */\n      dup2\n        /* \"#utility.yul\":5207:5220   */\n      mload\n        /* \"#utility.yul\":5240:5303   */\n      tag_312\n        /* \"#utility.yul\":5299:5302   */\n      dup9\n        /* \"#utility.yul\":5284:5297   */\n      dup3\n        /* \"#utility.yul\":5240:5303   */\n      tag_225\n      jump\t// in\n    tag_312:\n        /* \"#utility.yul\":5233:5303   */\n      swap8\n      pop\n        /* \"#utility.yul\":5326:5386   */\n      tag_313\n        /* \"#utility.yul\":5379:5385   */\n      dup4\n        /* \"#utility.yul\":5326:5386   */\n      tag_226\n      jump\t// in\n    tag_313:\n        /* \"#utility.yul\":5316:5386   */\n      swap3\n      pop\n        /* \"#utility.yul\":5172:5396   */\n      pop\n        /* \"#utility.yul\":5159:5160   */\n      0x01\n        /* \"#utility.yul\":5156:5157   */\n      dup2\n        /* \"#utility.yul\":5152:5161   */\n      add\n        /* \"#utility.yul\":5147:5161   */\n      swap1\n      pop\n        /* \"#utility.yul\":5112:5396   */\n      jump(tag_309)\n    tag_311:\n        /* \"#utility.yul\":5116:5130   */\n      pop\n        /* \"#utility.yul\":5412:5415   */\n      dup6\n        /* \"#utility.yul\":5405:5415   */\n      swap4\n      pop\n        /* \"#utility.yul\":4813:5421   */\n      pop\n      pop\n      pop\n        /* \"#utility.yul\":4689:5421   */\n      swap3\n      swap2\n      pop\n      pop\n      jump\t// out\n        /* \"#utility.yul\":5427:5800   */\n    tag_27:\n        /* \"#utility.yul\":5570:5574   */\n      0x00\n        /* \"#utility.yul\":5608:5610   */\n      0x20\n        /* \"#utility.yul\":5597:5606   */\n      dup3\n        /* \"#utility.yul\":5593:5611   */\n      add\n        /* \"#utility.yul\":5585:5611   */\n      swap1\n      pop\n        /* \"#utility.yul\":5657:5666   */\n      dup2\n        /* \"#utility.yul\":5651:5655   */\n      dup2\n        /* \"#utility.yul\":5647:5667   */\n      sub\n        /* \"#utility.yul\":5643:5644   */\n      0x00\n        /* \"#utility.yul\":5632:5641   */\n      dup4\n        /* \"#utility.yul\":5628:5645   */\n      add\n        /* \"#utility.yul\":5621:5668   */\n      mstore\n        /* \"#utility.yul\":5685:5793   */\n      tag_315\n        /* \"#utility.yul\":5788:5792   */\n      dup2\n        /* \"#utility.yul\":5779:5785   */\n      dup5\n        /* \"#utility.yul\":5685:5793   */\n      tag_227\n      jump\t// in\n    tag_315:\n        /* \"#utility.yul\":5677:5793   */\n      swap1\n      pop\n        /* \"#utility.yul\":5427:5800   */\n      swap3\n      swap2\n      pop\n      pop\n      jump\t// out\n        /* \"#utility.yul\":5806:6440   */\n    tag_41:\n        /* \"#utility.yul\":6027:6031   */\n      0x00\n        /* \"#utility.yul\":6065:6067   */\n      0x40\n        /* \"#utility.yul\":6054:6063   */\n      dup3\n        /* \"#utility.yul\":6050:6068   */\n      add\n        /* \"#utility.yul\":6042:6068   */\n      swap1\n      pop\n        /* \"#utility.yul\":6114:6123   */\n      dup2\n        /* \"#utility.yul\":6108:6112   */\n      dup2\n        /* \"#utility.yul\":6104:6124   */\n      sub\n        /* \"#utility.yul\":6100:6101   */\n      0x00\n        /* \"#utility.yul\":6089:6098   */\n      dup4\n        /* \"#utility.yul\":6085:6102   */\n      add\n        /* \"#utility.yul\":6078:6125   */\n      mstore\n        /* \"#utility.yul\":6142:6250   */\n      tag_317\n        /* \"#utility.yul\":6245:6249   */\n      dup2\n        /* \"#utility.yul\":6236:6242   */\n      dup6\n        /* \"#utility.yul\":6142:6250   */\n      tag_227\n      jump\t// in\n    tag_317:\n        /* \"#utility.yul\":6134:6250   */\n      swap1\n      pop\n        /* \"#utility.yul\":6297:6306   */\n      dup2\n        /* \"#utility.yul\":6291:6295   */\n      dup2\n        /* \"#utility.yul\":6287:6307   */\n      sub\n        /* \"#utility.yul\":6282:6284   */\n      0x20\n        /* \"#utility.yul\":6271:6280   */\n      dup4\n        /* \"#utility.yul\":6267:6285   */\n      add\n        /* \"#utility.yul\":6260:6308   */\n      mstore\n        /* \"#utility.yul\":6325:6433   */\n      tag_318\n        /* \"#utility.yul\":6428:6432   */\n      dup2\n        /* \"#utility.yul\":6419:6425   */\n      dup5\n        /* \"#utility.yul\":6325:6433   */\n      tag_227\n      jump\t// in\n    tag_318:\n        /* \"#utility.yul\":6317:6433   */\n      swap1\n      pop\n        /* \"#utility.yul\":5806:6440   */\n      swap4\n      swap3\n      pop\n      pop\n      pop\n      jump\t// out\n        /* \"#utility.yul\":6446:6668   */\n    tag_51:\n        /* \"#utility.yul\":6539:6543   */\n      0x00\n        /* \"#utility.yul\":6577:6579   */\n      0x20\n        /* \"#utility.yul\":6566:6575   */\n      dup3\n        /* \"#utility.yul\":6562:6580   */\n      add\n        /* \"#utility.yul\":6554:6580   */\n      swap1\n      pop\n        /* \"#utility.yul\":6590:6661   */\n      tag_320\n        /* \"#utility.yul\":6658:6659   */\n      0x00\n        /* \"#utility.yul\":6647:6656   */\n      dup4\n        /* \"#utility.yul\":6643:6660   */\n      add\n        /* \"#utility.yul\":6634:6640   */\n      dup5\n        /* \"#utility.yul\":6590:6661   */\n      tag_214\n      jump\t// in\n    tag_320:\n        /* \"#utility.yul\":6446:6668   */\n      swap3\n      swap2\n      pop\n      pop\n      jump\t// out\n        /* \"#utility.yul\":6674:7148   */\n    tag_55:\n        /* \"#utility.yul\":6742:6748   */\n      0x00\n        /* \"#utility.yul\":6750:6756   */\n      0x00\n        /* \"#utility.yul\":6799:6801   */\n      0x40\n        /* \"#utility.yul\":6787:6796   */\n      dup4\n        /* \"#utility.yul\":6778:6785   */\n      dup6\n        /* \"#utility.yul\":6774:6797   */\n      sub\n        /* \"#utility.yul\":6770:6802   */\n      slt\n        /* \"#utility.yul\":6767:6886   */\n      iszero\n      tag_322\n      jumpi\n        /* \"#utility.yul\":6805:6884   */\n      tag_323\n      tag_206\n      jump\t// in\n    tag_323:\n        /* \"#utility.yul\":6767:6886   */\n    tag_322:\n        /* \"#utility.yul\":6925:6926   */\n      0x00\n        /* \"#utility.yul\":6950:7003   */\n      tag_324\n        /* \"#utility.yul\":6995:7002   */\n      dup6\n        /* \"#utility.yul\":6986:6992   */\n      dup3\n        /* \"#utility.yul\":6975:6984   */\n      dup7\n        /* \"#utility.yul\":6971:6993   */\n      add\n        /* \"#utility.yul\":6950:7003   */\n      tag_220\n      jump\t// in\n    tag_324:\n        /* \"#utility.yul\":6940:7003   */\n      swap3\n      pop\n        /* \"#utility.yul\":6896:7013   */\n      pop\n        /* \"#utility.yul\":7052:7054   */\n      0x20\n        /* \"#utility.yul\":7078:7131   */\n      tag_325\n        /* \"#utility.yul\":7123:7130   */\n      dup6\n        /* \"#utility.yul\":7114:7120   */\n      dup3\n        /* \"#utility.yul\":7103:7112   */\n      dup7\n        /* \"#utility.yul\":7099:7121   */\n      add\n        /* \"#utility.yul\":7078:7131   */\n      tag_210\n      jump\t// in\n    tag_325:\n        /* \"#utility.yul\":7068:7131   */\n      swap2\n      pop\n        /* \"#utility.yul\":7023:7141   */\n      pop\n        /* \"#utility.yul\":6674:7148   */\n      swap3\n      pop\n      swap3\n      swap1\n      pop\n      jump\t// out\n        /* \"#utility.yul\":7154:7323   */\n    tag_228:\n        /* \"#utility.yul\":7238:7249   */\n      0x00\n        /* \"#utility.yul\":7272:7278   */\n      dup3\n        /* \"#utility.yul\":7267:7270   */\n      dup3\n        /* \"#utility.yul\":7260:7279   */\n      mstore\n        /* \"#utility.yul\":7312:7316   */\n      0x20\n        /* \"#utility.yul\":7307:7310   */\n      dup3\n        /* \"#utility.yul\":7303:7317   */\n      add\n        /* \"#utility.yul\":7288:7317   */\n      swap1\n      pop\n        /* \"#utility.yul\":7154:7323   */\n      swap3\n      swap2\n      pop\n      pop\n      jump\t// out\n        /* \"#utility.yul\":7329:7493   */\n    tag_229:\n        /* \"#utility.yul\":7469:7485   */\n      0x4e6f7420726566756e6461626c65000000000000000000000000000000000000\n        /* \"#utility.yul\":7465:7466   */\n      0x00\n        /* \"#utility.yul\":7457:7463   */\n      dup3\n        /* \"#utility.yul\":7453:7467   */\n      add\n        /* \"#utility.yul\":7446:7486   */\n      mstore\n        /* \"#utility.yul\":7329:7493   */\n      pop\n      jump\t// out\n        /* \"#utility.yul\":7499:7865   */\n    tag_230:\n        /* \"#utility.yul\":7641:7644   */\n      0x00\n        /* \"#utility.yul\":7662:7729   */\n      tag_329\n        /* \"#utility.yul\":7726:7728   */\n      0x0e\n        /* \"#utility.yul\":7721:7724   */\n      dup4\n        /* \"#utility.yul\":7662:7729   */\n      tag_228\n      jump\t// in\n    tag_329:\n        /* \"#utility.yul\":7655:7729   */\n      swap2\n      pop\n        /* \"#utility.yul\":7738:7831   */\n      tag_330\n        /* \"#utility.yul\":7827:7830   */\n      dup3\n        /* \"#utility.yul\":7738:7831   */\n      tag_229\n      jump\t// in\n    tag_330:\n        /* \"#utility.yul\":7856:7858   */\n      0x20\n        /* \"#utility.yul\":7851:7854   */\n      dup3\n        /* \"#utility.yul\":7847:7859   */\n      add\n        /* \"#utility.yul\":7840:7859   */\n      swap1\n      pop\n        /* \"#utility.yul\":7499:7865   */\n      swap2\n      swap1\n      pop\n      jump\t// out\n        /* \"#utility.yul\":7871:8290   */\n    tag_83:\n        /* \"#utility.yul\":8037:8041   */\n      0x00\n        /* \"#utility.yul\":8075:8077   */\n      0x20\n        /* \"#utility.yul\":8064:8073   */\n      dup3\n        /* \"#utility.yul\":8060:8078   */\n      add\n        /* \"#utility.yul\":8052:8078   */\n      swap1\n      pop\n        /* \"#utility.yul\":8124:8133   */\n      dup2\n        /* \"#utility.yul\":8118:8122   */\n      dup2\n        /* \"#utility.yul\":8114:8134   */\n      sub\n        /* \"#utility.yul\":8110:8111   */\n      0x00\n        /* \"#utility.yul\":8099:8108   */\n      dup4\n        /* \"#utility.yul\":8095:8112   */\n      add\n        /* \"#utility.yul\":8088:8135   */\n      mstore\n        /* \"#utility.yul\":8152:8283   */\n      tag_332\n        /* \"#utility.yul\":8278:8282   */\n      dup2\n        /* \"#utility.yul\":8152:8283   */\n      tag_230\n      jump\t// in\n    tag_332:\n        /* \"#utility.yul\":8144:8283   */\n      swap1\n      pop\n        /* \"#utility.yul\":7871:8290   */\n      swap2\n      swap1\n      pop\n      jump\t// out\n        /* \"#utility.yul\":8296:8468   */\n    tag_231:\n        /* \"#utility.yul\":8436:8460   */\n      0x4f6e6c792073656e6465722063616e20726566756e6400000000000000000000\n        /* \"#utility.yul\":8432:8433   */\n      0x00\n        /* \"#utility.yul\":8424:8430   */\n      dup3\n        /* \"#utility.yul\":8420:8434   */\n      add\n        /* \"#utility.yul\":8413:8461   */\n      mstore\n        /* \"#utility.yul\":8296:8468   */\n      pop\n      jump\t// out\n        /* \"#utility.yul\":8474:8840   */\n    tag_232:\n        /* \"#utility.yul\":8616:8619   */\n      0x00\n        /* \"#utility.yul\":8637:8704   */\n      tag_335\n        /* \"#utility.yul\":8701:8703   */\n      0x16\n        /* \"#utility.yul\":8696:8699   */\n      dup4\n        /* \"#utility.yul\":8637:8704   */\n      tag_228\n      jump\t// in\n    tag_335:\n        /* \"#utility.yul\":8630:8704   */\n      swap2\n      pop\n        /* \"#utility.yul\":8713:8806   */\n      tag_336\n        /* \"#utility.yul\":8802:8805   */\n      dup3\n        /* \"#utility.yul\":8713:8806   */\n      tag_231\n      jump\t// in\n    tag_336:\n        /* \"#utility.yul\":8831:8833   */\n      0x20\n        /* \"#utility.yul\":8826:8829   */\n      dup3\n        /* \"#utility.yul\":8822:8834   */\n      add\n        /* \"#utility.yul\":8815:8834   */\n      swap1\n      pop\n        /* \"#utility.yul\":8474:8840   */\n      swap2\n      swap1\n      pop\n      jump\t// out\n        /* \"#utility.yul\":8846:9265   */\n    tag_86:\n        /* \"#utility.yul\":9012:9016   */\n      0x00\n        /* \"#utility.yul\":9050:9052   */\n      0x20\n        /* \"#utility.yul\":9039:9048   */\n      dup3\n        /* \"#utility.yul\":9035:9053   */\n      add\n        /* \"#utility.yul\":9027:9053   */\n      swap1\n      pop\n        /* \"#utility.yul\":9099:9108   */\n      dup2\n        /* \"#utility.yul\":9093:9097   */\n      dup2\n        /* \"#utility.yul\":9089:9109   */\n      sub\n        /* \"#utility.yul\":9085:9086   */\n      0x00\n        /* \"#utility.yul\":9074:9083   */\n      dup4\n        /* \"#utility.yul\":9070:9087   */\n      add\n        /* \"#utility.yul\":9063:9110   */\n      mstore\n        /* \"#utility.yul\":9127:9258   */\n      tag_338\n        /* \"#utility.yul\":9253:9257   */\n      dup2\n        /* \"#utility.yul\":9127:9258   */\n      tag_232\n      jump\t// in\n    tag_338:\n        /* \"#utility.yul\":9119:9258   */\n      swap1\n      pop\n        /* \"#utility.yul\":8846:9265   */\n      swap2\n      swap1\n      pop\n      jump\t// out\n        /* \"#utility.yul\":9271:9418   */\n    tag_233:\n        /* \"#utility.yul\":9372:9383   */\n      0x00\n        /* \"#utility.yul\":9409:9412   */\n      dup2\n        /* \"#utility.yul\":9394:9412   */\n      swap1\n      pop\n        /* \"#utility.yul\":9271:9418   */\n      swap3\n      swap2\n      pop\n      pop\n      jump\t// out\n        /* \"#utility.yul\":9424:9538   */\n    tag_234:\n      pop\n      jump\t// out\n        /* \"#utility.yul\":9544:9942   */\n    tag_235:\n        /* \"#utility.yul\":9703:9706   */\n      0x00\n        /* \"#utility.yul\":9724:9807   */\n      tag_342\n        /* \"#utility.yul\":9805:9806   */\n      0x00\n        /* \"#utility.yul\":9800:9803   */\n      dup4\n        /* \"#utility.yul\":9724:9807   */\n      tag_233\n      jump\t// in\n    tag_342:\n        /* \"#utility.yul\":9717:9807   */\n      swap2\n      pop\n        /* \"#utility.yul\":9816:9909   */\n      tag_343\n        /* \"#utility.yul\":9905:9908   */\n      dup3\n        /* \"#utility.yul\":9816:9909   */\n      tag_234\n      jump\t// in\n    tag_343:\n        /* \"#utility.yul\":9934:9935   */\n      0x00\n        /* \"#utility.yul\":9929:9932   */\n      dup3\n        /* \"#utility.yul\":9925:9936   */\n      add\n        /* \"#utility.yul\":9918:9936   */\n      swap1\n      pop\n        /* \"#utility.yul\":9544:9942   */\n      swap2\n      swap1\n      pop\n      jump\t// out\n        /* \"#utility.yul\":9948:10327   */\n    tag_90:\n        /* \"#utility.yul\":10132:10135   */\n      0x00\n        /* \"#utility.yul\":10154:10301   */\n      tag_345\n        /* \"#utility.yul\":10297:10300   */\n      dup3\n        /* \"#utility.yul\":10154:10301   */\n      tag_235\n      jump\t// in\n    tag_345:\n        /* \"#utility.yul\":10147:10301   */\n      swap2\n      pop\n        /* \"#utility.yul\":10318:10321   */\n      dup2\n        /* \"#utility.yul\":10311:10321   */\n      swap1\n      pop\n        /* \"#utility.yul\":9948:10327   */\n      swap2\n      swap1\n      pop\n      jump\t// out\n        /* \"#utility.yul\":10333:10505   */\n    tag_236:\n        /* \"#utility.yul\":10473:10497   */\n      0x526566756e64207472616e73666572206661696c656400000000000000000000\n        /* \"#utility.yul\":10469:10470   */\n      0x00\n        /* \"#utility.yul\":10461:10467   */\n      dup3\n        /* \"#utility.yul\":10457:10471   */\n      add\n        /* \"#utility.yul\":10450:10498   */\n      mstore\n        /* \"#utility.yul\":10333:10505   */\n      pop\n      jump\t// out\n        /* \"#utility.yul\":10511:10877   */\n    tag_237:\n        /* \"#utility.yul\":10653:10656   */\n      0x00\n        /* \"#utility.yul\":10674:10741   */\n      tag_348\n        /* \"#utility.yul\":10738:10740   */\n      0x16\n        /* \"#utility.yul\":10733:10736   */\n      dup4\n        /* \"#utility.yul\":10674:10741   */\n      tag_228\n      jump\t// in\n    tag_348:\n        /* \"#utility.yul\":10667:10741   */\n      swap2\n      pop\n        /* \"#utility.yul\":10750:10843   */\n      tag_349\n        /* \"#utility.yul\":10839:10842   */\n      dup3\n        /* \"#utility.yul\":10750:10843   */\n      tag_236\n      jump\t// in\n    tag_349:\n        /* \"#utility.yul\":10868:10870   */\n      0x20\n        /* \"#utility.yul\":10863:10866   */\n      dup3\n        /* \"#utility.yul\":10859:10871   */\n      add\n        /* \"#utility.yul\":10852:10871   */\n      swap1\n      pop\n        /* \"#utility.yul\":10511:10877   */\n      swap2\n      swap1\n      pop\n      jump\t// out\n        /* \"#utility.yul\":10883:11302   */\n    tag_96:\n        /* \"#utility.yul\":11049:11053   */\n      0x00\n        /* \"#utility.yul\":11087:11089   */\n      0x20\n        /* \"#utility.yul\":11076:11085   */\n      dup3\n        /* \"#utility.yul\":11072:11090   */\n      add\n        /* \"#utility.yul\":11064:11090   */\n      swap1\n      pop\n        /* \"#utility.yul\":11136:11145   */\n      dup2\n        /* \"#utility.yul\":11130:11134   */\n      dup2\n        /* \"#utility.yul\":11126:11146   */\n      sub\n        /* \"#utility.yul\":11122:11123   */\n      0x00\n        /* \"#utility.yul\":11111:11120   */\n      dup4\n        /* \"#utility.yul\":11107:11124   */\n      add\n        /* \"#utility.yul\":11100:11147   */\n      mstore\n        /* \"#utility.yul\":11164:11295   */\n      tag_351\n        /* \"#utility.yul\":11290:11294   */\n      dup2\n        /* \"#utility.yul\":11164:11295   */\n      tag_237\n      jump\t// in\n    tag_351:\n        /* \"#utility.yul\":11156:11295   */\n      swap1\n      pop\n        /* \"#utility.yul\":10883:11302   */\n      swap2\n      swap1\n      pop\n      jump\t// out\n        /* \"#utility.yul\":11308:11471   */\n    tag_238:\n        /* \"#utility.yul\":11448:11463   */\n      0x4e6f7420636c61696d61626c6500000000000000000000000000000000000000\n        /* \"#utility.yul\":11444:11445   */\n      0x00\n        /* \"#utility.yul\":11436:11442   */\n      dup3\n        /* \"#utility.yul\":11432:11446   */\n      add\n        /* \"#utility.yul\":11425:11464   */\n      mstore\n        /* \"#utility.yul\":11308:11471   */\n      pop\n      jump\t// out\n        /* \"#utility.yul\":11477:11843   */\n    tag_239:\n        /* \"#utility.yul\":11619:11622   */\n      0x00\n        /* \"#utility.yul\":11640:11707   */\n      tag_354\n        /* \"#utility.yul\":11704:11706   */\n      0x0d\n        /* \"#utility.yul\":11699:11702   */\n      dup4\n        /* \"#utility.yul\":11640:11707   */\n      tag_228\n      jump\t// in\n    tag_354:\n        /* \"#utility.yul\":11633:11707   */\n      swap2\n      pop\n        /* \"#utility.yul\":11716:11809   */\n      tag_355\n        /* \"#utility.yul\":11805:11808   */\n      dup3\n        /* \"#utility.yul\":11716:11809   */\n      tag_238\n      jump\t// in\n    tag_355:\n        /* \"#utility.yul\":11834:11836   */\n      0x20\n        /* \"#utility.yul\":11829:11832   */\n      dup3\n        /* \"#utility.yul\":11825:11837   */\n      add\n        /* \"#utility.yul\":11818:11837   */\n      swap1\n      pop\n        /* \"#utility.yul\":11477:11843   */\n      swap2\n      swap1\n      pop\n      jump\t// out\n        /* \"#utility.yul\":11849:12268   */\n    tag_105:\n        /* \"#utility.yul\":12015:12019   */\n      0x00\n        /* \"#utility.yul\":12053:12055   */\n      0x20\n        /* \"#utility.yul\":12042:12051   */\n      dup3\n        /* \"#utility.yul\":12038:12056   */\n      add\n        /* \"#utility.yul\":12030:12056   */\n      swap1\n      pop\n        /* \"#utility.yul\":12102:12111   */\n      dup2\n        /* \"#utility.yul\":12096:12100   */\n      dup2\n        /* \"#utility.yul\":12092:12112   */\n      sub\n        /* \"#utility.yul\":12088:12089   */\n      0x00\n        /* \"#utility.yul\":12077:12086   */\n      dup4\n        /* \"#utility.yul\":12073:12090   */\n      add\n        /* \"#utility.yul\":12066:12113   */\n      mstore\n        /* \"#utility.yul\":12130:12261   */\n      tag_357\n        /* \"#utility.yul\":12256:12260   */\n      dup2\n        /* \"#utility.yul\":12130:12261   */\n      tag_239\n      jump\t// in\n    tag_357:\n        /* \"#utility.yul\":12122:12261   */\n      swap1\n      pop\n        /* \"#utility.yul\":11849:12268   */\n      swap2\n      swap1\n      pop\n      jump\t// out\n        /* \"#utility.yul\":12274:12447   */\n    tag_240:\n        /* \"#utility.yul\":12414:12439   */\n      0x4f6e6c792072656365697665722063616e20636c61696d000000000000000000\n        /* \"#utility.yul\":12410:12411   */\n      0x00\n        /* \"#utility.yul\":12402:12408   */\n      dup3\n        /* \"#utility.yul\":12398:12412   */\n      add\n        /* \"#utility.yul\":12391:12440   */\n      mstore\n        /* \"#utility.yul\":12274:12447   */\n      pop\n      jump\t// out\n        /* \"#utility.yul\":12453:12819   */\n    tag_241:\n        /* \"#utility.yul\":12595:12598   */\n      0x00\n        /* \"#utility.yul\":12616:12683   */\n      tag_360\n        /* \"#utility.yul\":12680:12682   */\n      0x17\n        /* \"#utility.yul\":12675:12678   */\n      dup4\n        /* \"#utility.yul\":12616:12683   */\n      tag_228\n      jump\t// in\n    tag_360:\n        /* \"#utility.yul\":12609:12683   */\n      swap2\n      pop\n        /* \"#utility.yul\":12692:12785   */\n      tag_361\n        /* \"#utility.yul\":12781:12784   */\n      dup3\n        /* \"#utility.yul\":12692:12785   */\n      tag_240\n      jump\t// in\n    tag_361:\n        /* \"#utility.yul\":12810:12812   */\n      0x20\n        /* \"#utility.yul\":12805:12808   */\n      dup3\n        /* \"#utility.yul\":12801:12813   */\n      add\n        /* \"#utility.yul\":12794:12813   */\n      swap1\n      pop\n        /* \"#utility.yul\":12453:12819   */\n      swap2\n      swap1\n      pop\n      jump\t// out\n        /* \"#utility.yul\":12825:13244   */\n    tag_108:\n        /* \"#utility.yul\":12991:12995   */\n      0x00\n        /* \"#utility.yul\":13029:13031   */\n      0x20\n        /* \"#utility.yul\":13018:13027   */\n      dup3\n        /* \"#utility.yul\":13014:13032   */\n      add\n        /* \"#utility.yul\":13006:13032   */\n      swap1\n      pop\n        /* \"#utility.yul\":13078:13087   */\n      dup2\n        /* \"#utility.yul\":13072:13076   */\n      dup2\n        /* \"#utility.yul\":13068:13088   */\n      sub\n        /* \"#utility.yul\":13064:13065   */\n      0x00\n        /* \"#utility.yul\":13053:13062   */\n      dup4\n        /* \"#utility.yul\":13049:13066   */\n      add\n        /* \"#utility.yul\":13042:13089   */\n      mstore\n        /* \"#utility.yul\":13106:13237   */\n      tag_363\n        /* \"#utility.yul\":13232:13236   */\n      dup2\n        /* \"#utility.yul\":13106:13237   */\n      tag_241\n      jump\t// in\n    tag_363:\n        /* \"#utility.yul\":13098:13237   */\n      swap1\n      pop\n        /* \"#utility.yul\":12825:13244   */\n      swap2\n      swap1\n      pop\n      jump\t// out\n        /* \"#utility.yul\":13250:13421   */\n    tag_242:\n        /* \"#utility.yul\":13390:13413   */\n      0x436c61696d207472616e73666572206661696c65640000000000000000000000\n        /* \"#utility.yul\":13386:13387   */\n      0x00\n        /* \"#utility.yul\":13378:13384   */\n      dup3\n        /* \"#utility.yul\":13374:13388   */\n      add\n        /* \"#utility.yul\":13367:13414   */\n      mstore\n        /* \"#utility.yul\":13250:13421   */\n      pop\n      jump\t// out\n        /* \"#utility.yul\":13427:13793   */\n    tag_243:\n        /* \"#utility.yul\":13569:13572   */\n      0x00\n        /* \"#utility.yul\":13590:13657   */\n      tag_366\n        /* \"#utility.yul\":13654:13656   */\n      0x15\n        /* \"#utility.yul\":13649:13652   */\n      dup4\n        /* \"#utility.yul\":13590:13657   */\n      tag_228\n      jump\t// in\n    tag_366:\n        /* \"#utility.yul\":13583:13657   */\n      swap2\n      pop\n        /* \"#utility.yul\":13666:13759   */\n      tag_367\n        /* \"#utility.yul\":13755:13758   */\n      dup3\n        /* \"#utility.yul\":13666:13759   */\n      tag_242\n      jump\t// in\n    tag_367:\n        /* \"#utility.yul\":13784:13786   */\n      0x20\n        /* \"#utility.yul\":13779:13782   */\n      dup3\n        /* \"#utility.yul\":13775:13787   */\n      add\n        /* \"#utility.yul\":13768:13787   */\n      swap1\n      pop\n        /* \"#utility.yul\":13427:13793   */\n      swap2\n      swap1\n      pop\n      jump\t// out\n        /* \"#utility.yul\":13799:14218   */\n    tag_117:\n        /* \"#utility.yul\":13965:13969   */\n      0x00\n        /* \"#utility.yul\":14003:14005   */\n      0x20\n        /* \"#utility.yul\":13992:14001   */\n      dup3\n        /* \"#utility.yul\":13988:14006   */\n      add\n        /* \"#utility.yul\":13980:14006   */\n      swap1\n      pop\n        /* \"#utility.yul\":14052:14061   */\n      dup2\n        /* \"#utility.yul\":14046:14050   */\n      dup2\n        /* \"#utility.yul\":14042:14062   */\n      sub\n        /* \"#utility.yul\":14038:14039   */\n      0x00\n        /* \"#utility.yul\":14027:14036   */\n      dup4\n        /* \"#utility.yul\":14023:14040   */\n      add\n        /* \"#utility.yul\":14016:14063   */\n      mstore\n        /* \"#utility.yul\":14080:14211   */\n      tag_369\n        /* \"#utility.yul\":14206:14210   */\n      dup2\n        /* \"#utility.yul\":14080:14211   */\n      tag_243\n      jump\t// in\n    tag_369:\n        /* \"#utility.yul\":14072:14211   */\n      swap1\n      pop\n        /* \"#utility.yul\":13799:14218   */\n      swap2\n      swap1\n      pop\n      jump\t// out\n        /* \"#utility.yul\":14224:14404   */\n    tag_122:\n        /* \"#utility.yul\":14272:14349   */\n      0x4e487b7100000000000000000000000000000000000000000000000000000000\n        /* \"#utility.yul\":14269:14270   */\n      0x00\n        /* \"#utility.yul\":14262:14350   */\n      mstore\n        /* \"#utility.yul\":14369:14373   */\n      0x41\n        /* \"#utility.yul\":14366:14367   */\n      0x04\n        /* \"#utility.yul\":14359:14374   */\n      mstore\n        /* \"#utility.yul\":14393:14397   */\n      0x24\n        /* \"#utility.yul\":14390:14391   */\n      0x00\n        /* \"#utility.yul\":14383:14398   */\n      revert\n        /* \"#utility.yul\":14410:14590   */\n    tag_132:\n        /* \"#utility.yul\":14458:14535   */\n      0x4e487b7100000000000000000000000000000000000000000000000000000000\n        /* \"#utility.yul\":14455:14456   */\n      0x00\n        /* \"#utility.yul\":14448:14536   */\n      mstore\n        /* \"#utility.yul\":14555:14559   */\n      0x32\n        /* \"#utility.yul\":14552:14553   */\n      0x04\n        /* \"#utility.yul\":14545:14560   */\n      mstore\n        /* \"#utility.yul\":14579:14583   */\n      0x24\n        /* \"#utility.yul\":14576:14577   */\n      0x00\n        /* \"#utility.yul\":14569:14584   */\n      revert\n        /* \"#utility.yul\":14596:14776   */\n    tag_244:\n        /* \"#utility.yul\":14644:14721   */\n      0x4e487b7100000000000000000000000000000000000000000000000000000000\n        /* \"#utility.yul\":14641:14642   */\n      0x00\n        /* \"#utility.yul\":14634:14722   */\n      mstore\n        /* \"#utility.yul\":14741:14745   */\n      0x11\n        /* \"#utility.yul\":14738:14739   */\n      0x04\n        /* \"#utility.yul\":14731:14746   */\n      mstore\n        /* \"#utility.yul\":14765:14769   */\n      0x24\n        /* \"#utility.yul\":14762:14763   */\n      0x00\n        /* \"#utility.yul\":14755:14770   */\n      revert\n        /* \"#utility.yul\":14782:15015   */\n    tag_142:\n        /* \"#utility.yul\":14821:14824   */\n      0x00\n        /* \"#utility.yul\":14844:14868   */\n      tag_374\n        /* \"#utility.yul\":14862:14867   */\n      dup3\n        /* \"#utility.yul\":14844:14868   */\n      tag_208\n      jump\t// in\n    tag_374:\n        /* \"#utility.yul\":14835:14868   */\n      swap2\n      pop\n        /* \"#utility.yul\":14890:14956   */\n      0xffffffffffffffffffffffffffffffffffffffffffffffffffffffffffffffff\n        /* \"#utility.yul\":14883:14888   */\n      dup3\n        /* \"#utility.yul\":14880:14957   */\n      sub\n        /* \"#utility.yul\":14877:14980   */\n      tag_375\n      jumpi\n        /* \"#utility.yul\":14960:14978   */\n      tag_376\n      tag_244\n      jump\t// in\n    tag_376:\n        /* \"#utility.yul\":14877:14980   */\n    tag_375:\n        /* \"#utility.yul\":15007:15008   */\n      0x01\n        /* \"#utility.yul\":15000:15005   */\n      dup3\n        /* \"#utility.yul\":14996:15009   */\n      add\n        /* \"#utility.yul\":14989:15009   */\n      swap1\n      pop\n        /* \"#utility.yul\":14782:15015   */\n      swap2\n      swap1\n      pop\n      jump\t// out\n        /* \"#utility.yul\":15021:15188   */\n    tag_245:\n        /* \"#utility.yul\":15161:15180   */\n      0x416d6f756e74206d757374206265203e30000000000000000000000000000000\n        /* \"#utility.yul\":15157:15158   */\n      0x00\n        /* \"#utility.yul\":15149:15155   */\n      dup3\n        /* \"#utility.yul\":15145:15159   */\n      add\n        /* \"#utility.yul\":15138:15181   */\n      mstore\n        /* \"#utility.yul\":15021:15188   */\n      pop\n      jump\t// out\n        /* \"#utility.yul\":15194:15560   */\n    tag_246:\n        /* \"#utility.yul\":15336:15339   */\n      0x00\n        /* \"#utility.yul\":15357:15424   */\n      tag_379\n        /* \"#utility.yul\":15421:15423   */\n      0x11\n        /* \"#utility.yul\":15416:15419   */\n      dup4\n        /* \"#utility.yul\":15357:15424   */\n      tag_228\n      jump\t// in\n    tag_379:\n        /* \"#utility.yul\":15350:15424   */\n      swap2\n      pop\n        /* \"#utility.yul\":15433:15526   */\n      tag_380\n        /* \"#utility.yul\":15522:15525   */\n      dup3\n        /* \"#utility.yul\":15433:15526   */\n      tag_245\n      jump\t// in\n    tag_380:\n        /* \"#utility.yul\":15551:15553   */\n      0x20\n        /* \"#utility.yul\":15546:15549   */\n      dup3\n        /* \"#utility.yul\":15542:15554   */\n      add\n        /* \"#utility.yul\":15535:15554   */\n      swap1\n      pop\n        /* \"#utility.yul\":15194:15560   */\n      swap2\n      swap1\n      pop\n      jump\t// out\n        /* \"#utility.yul\":15566:15985   */\n    tag_192:\n        /* \"#utility.yul\":15732:15736   */\n      0x00\n        /* \"#utility.yul\":15770:15772   */\n      0x20\n        /* \"#utility.yul\":15759:15768   */\n      dup3\n        /* \"#utility.yul\":15755:15773   */\n      add\n        /* \"#utility.yul\":15747:15773   */\n      swap1\n      pop\n        /* \"#utility.yul\":15819:15828   */\n      dup2\n        /* \"#utility.yul\":15813:15817   */\n      dup2\n        /* \"#utility.yul\":15809:15829   */\n      sub\n        /* \"#utility.yul\":15805:15806   */\n      0x00\n        /* \"#utility.yul\":15794:15803   */\n      dup4\n        /* \"#utility.yul\":15790:15807   */\n      add\n        /* \"#utility.yul\":15783:15830   */\n      mstore\n        /* \"#utility.yul\":15847:15978   */\n      tag_382\n        /* \"#utility.yul\":15973:15977   */\n      dup2\n        /* \"#utility.yul\":15847:15978   */\n      tag_246\n      jump\t// in\n    tag_382:\n        /* \"#utility.yul\":15839:15978   */\n      swap1\n      pop\n        /* \"#utility.yul\":15566:15985   */\n      swap2\n      swap1\n      pop\n      jump\t// out\n        /* \"#utility.yul\":15991:16158   */\n    tag_247:\n        /* \"#utility.yul\":16131:16150   */\n      0x5265636569766572207265717569726564000000000000000000000000000000\n        /* \"#utility.yul\":16127:16128   */\n      0x00\n        /* \"#utility.yul\":16119:16125   */\n      dup3\n        /* \"#utility.yul\":16115:16129   */\n      add\n        /* \"#utility.yul\":16108:16151   */\n      mstore\n        /* \"#utility.yul\":15991:16158   */\n      pop\n      jump\t// out\n        /* \"#utility.yul\":16164:16530   */\n    tag_248:\n        /* \"#utility.yul\":16306:16309   */\n      0x00\n        /* \"#utility.yul\":16327:16394   */\n      tag_385\n        /* \"#utility.yul\":16391:16393   */\n      0x11\n        /* \"#utility.yul\":16386:16389   */\n      dup4\n        /* \"#utility.yul\":16327:16394   */\n      tag_228\n      jump\t// in\n    tag_385:\n        /* \"#utility.yul\":16320:16394   */\n      swap2\n      pop\n        /* \"#utility.yul\":16403:16496   */\n      tag_386\n        /* \"#utility.yul\":16492:16495   */\n      dup3\n        /* \"#utility.yul\":16403:16496   */\n      tag_247\n      jump\t// in\n    tag_386:\n        /* \"#utility.yul\":16521:16523   */\n      0x20\n        /* \"#utility.yul\":16516:16519   */\n      dup3\n        /* \"#utility.yul\":16512:16524   */\n      add\n        /* \"#utility.yul\":16505:16524   */\n      swap1\n      pop\n        /* \"#utility.yul\":16164:16530   */\n      swap2\n      swap1\n      pop\n      jump\t// out\n        /* \"#utility.yul\":16536:16955   */\n    tag_195:\n        /* \"#utility.yul\":16702:16706   */\n      0x00\n        /* \"#utility.yul\":16740:16742   */\n      0x20\n        /* \"#utility.yul\":16729:16738   */\n      dup3\n        /* \"#utility.yul\":16725:16743   */\n      add\n        /* \"#utility.yul\":16717:16743   */\n      swap1\n      pop\n        /* \"#utility.yul\":16789:16798   */\n      dup2\n        /* \"#utility.yul\":16783:16787   */\n      dup2\n        /* \"#utility.yul\":16779:16799   */\n      sub\n        /* \"#utility.yul\":16775:16776   */\n      0x00\n        /* \"#utility.yul\":16764:16773   */\n      dup4\n        /* \"#utility.yul\":16760:16777   */\n      add\n        /* \"#utility.yul\":16753:16800   */\n      mstore\n        /* \"#utility.yul\":16817:16948   */\n      tag_388\n        /* \"#utility.yul\":16943:16947   */\n      dup2\n        /* \"#utility.yul\":16817:16948   */\n      tag_248\n      jump\t// in\n    tag_388:\n        /* \"#utility.yul\":16809:16948   */\n      swap1\n      pop\n        /* \"#utility.yul\":16536:16955   */\n      swap2\n      swap1\n      pop\n      jump\t// out\n        /* \"#utility.yul\":16961:17152   */\n    tag_197:\n        /* \"#utility.yul\":17001:17004   */\n      0x00\n        /* \"#utility.yul\":17020:17040   */\n      tag_390\n        /* \"#utility.yul\":17038:17039   */\n      dup3\n        /* \"#utility.yul\":17020:17040   */\n      tag_208\n      jump\t// in\n    tag_390:\n        /* \"#utility.yul\":17015:17040   */\n      swap2\n      pop\n        /* \"#utility.yul\":17054:17074   */\n      tag_391\n        /* \"#utility.yul\":17072:17073   */\n      dup4\n        /* \"#utility.yul\":17054:17074   */\n      tag_208\n      jump\t// in\n    tag_391:\n        /* \"#utility.yul\":17049:17074   */\n      swap3\n      pop\n        /* \"#utility.yul\":17097:17098   */\n      dup3\n        /* \"#utility.yul\":17094:17095   */\n      dup3\n        /* \"#utility.yul\":17090:17099   */\n      add\n        /* \"#utility.yul\":17083:17099   */\n      swap1\n      pop\n        /* \"#utility.yul\":17118:17121   */\n      dup1\n        /* \"#utility.yul\":17115:17116   */\n      dup3\n        /* \"#utility.yul\":17112:17122   */\n      gt\n        /* \"#utility.yul\":17109:17145   */\n      iszero\n      tag_392\n      jumpi\n        /* \"#utility.yul\":17125:17143   */\n      tag_393\n      tag_244\n      jump\t// in\n    tag_393:\n        /* \"#utility.yul\":17109:17145   */\n    tag_392:\n        /* \"#utility.yul\":16961:17152   */\n      swap3\n      swap2\n      pop\n      pop\n      jump\t// out\n\n    auxdata: 0xa2646970667358221220032defb1bcac8584f94f61b146bfd427166ba02240a5fb4665dfb46e9bc8510664736f6c634300081e0033\n}\n",
				"bytecode": {
					"linkReferences": {},
					"object": "6080604052348015600e575f5ffd5b50611b778061001c5f395ff3fe60806040526004361061009b575f3560e01c806349cb31ee1161006357806349cb31ee146101aa578063675ac67a146101e6578063b59ed87814610210578063b996ec2a1461024c578063e23ab08e1461028e578063f6a8419e146102ca5761009b565b8063012f52ee1461009f57806320d73edf146100e1578063278ecde11461011d578063379607f51461014557806345fde2ae1461016d575b5f5ffd5b3480156100aa575f5ffd5b506100c560048036038101906100c0919061139e565b6102fa565b6040516100d8979695949392919061148a565b60405180910390f35b3480156100ec575f5ffd5b5061010760048036038101906101029190611521565b610382565b6040516101149190611603565b60405180910390f35b348015610128575f5ffd5b50610143600480360381019061013e919061139e565b610415565b005b348015610150575f5ffd5b5061016b6004803603810190610166919061139e565b6106ac565b005b348015610178575f5ffd5b50610193600480360381019061018e9190611521565b610946565b6040516101a1929190611623565b60405180910390f35b3480156101b5575f5ffd5b506101d060048036038101906101cb9190611521565b610da8565b6040516101dd9190611603565b60405180910390f35b3480156101f1575f5ffd5b506101fa610e3b565b6040516102079190611658565b60405180910390f35b34801561021b575f5ffd5b5061023660048036038101906102319190611671565b610e40565b6040516102439190611658565b60405180910390f35b348015610257575f5ffd5b50610272600480360381019061026d919061139e565b610e6b565b604051610285979695949392919061148a565b60405180910390f35b348015610299575f5ffd5b506102b460048036038101906102af9190611671565b610fd8565b6040516102c19190611658565b60405180910390f35b6102e460048036038101906102df9190611521565b611003565b6040516102f19190611658565b60405180910390f35b6001602052805f5260405f205f91509050805f015f9054906101000a900473ffffffffffffffffffffffffffffffffffffffff1690806001015f9054906101000a900473ffffffffffffffffffffffffffffffffffffffff1690806002015490806003015f9054906101000a900460ff16908060040154908060050154908060060154905087565b606060025f8373ffffffffffffffffffffffffffffffffffffffff1673ffffffffffffffffffffffffffffffffffffffff1681526020019081526020015f2080548060200260200160405190810160405280929190818152602001828054801561040957602002820191905f5260205f20905b8154815260200190600101908083116103f5575b50505050509050919050565b5f60015f8381526020019081526020015f2090505f600281111561043c5761043b611417565b5b816003015f9054906101000a900460ff16600281111561045f5761045e611417565b5b1461049f576040517f08c379a000000000000000000000000000000000000000000000000000000000815260040161049690611709565b60405180910390fd5b805f015f9054906101000a900473ffffffffffffffffffffffffffffffffffffffff1673ffffffffffffffffffffffffffffffffffffffff163373ffffffffffffffffffffffffffffffffffffffff161461052f576040517f08c379a000000000000000000000000000000000000000000000000000000000815260040161052690611771565b60405180910390fd5b6002816003015f6101000a81548160ff0219169083600281111561055657610555611417565b5b02179055504281600601819055505f815f015f9054906101000a900473ffffffffffffffffffffffffffffffffffffffff1673ffffffffffffffffffffffffffffffffffffffff1682600201546040516105af906117bc565b5f6040518083038185875af1925050503d805f81146105e9576040519150601f19603f3d011682016040523d82523d5f602084013e6105ee565b606091505b5050905080610632576040517f08c379a00000000000000000000000000000000000000000000000000000000081526004016106299061181a565b60405180910390fd5b815f015f9054906101000a900473ffffffffffffffffffffffffffffffffffffffff1673ffffffffffffffffffffffffffffffffffffffff16837f7ca5472b7ea78c2c0141c5a12ee6d170cf4ce8ed06be3d22c8252ddfc7a6a2c4846006015460405161069f9190611658565b60405180910390a3505050565b5f60015f8381526020019081526020015f2090505f60028111156106d3576106d2611417565b5b816003015f9054906101000a900460ff1660028111156106f6576106f5611417565b5b14610736576040517f08c379a000000000000000000000000000000000000000000000000000000000815260040161072d90611882565b60405180910390fd5b806001015f9054906101000a900473ffffffffffffffffffffffffffffffffffffffff1673ffffffffffffffffffffffffffffffffffffffff163373ffffffffffffffffffffffffffffffffffffffff16146107c7576040517f08c379a00000000000000000000000000000000000000000000000000000000081526004016107be906118ea565b60405180910390fd5b6001816003015f6101000a81548160ff021916908360028111156107ee576107ed611417565b5b02179055504281600501819055505f816001015f9054906101000a900473ffffffffffffffffffffffffffffffffffffffff1673ffffffffffffffffffffffffffffffffffffffff168260020154604051610848906117bc565b5f6040518083038185875af1925050503d805f8114610882576040519150601f19603f3d011682016040523d82523d5f602084013e610887565b606091505b50509050806108cb576040517f08c379a00000000000000000000000000000000000000000000000000000000081526004016108c290611952565b60405180910390fd5b816001015f9054906101000a900473ffffffffffffffffffffffffffffffffffffffff1673ffffffffffffffffffffffffffffffffffffffff16837f4ec90e965519d92681267467f775ada5bd214aa92c0dc93d90a5e880ce9ed02684600501546040516109399190611658565b60405180910390a3505050565b6060805f60025f8573ffffffffffffffffffffffffffffffffffffffff1673ffffffffffffffffffffffffffffffffffffffff1681526020019081526020015f208054905090505f60035f8673ffffffffffffffffffffffffffffffffffffffff1673ffffffffffffffffffffffffffffffffffffffff1681526020019081526020015f208054905090505f8167ffffffffffffffff8111156109ec576109eb611970565b5b604051908082528060200260200182016040528015610a1a5781602001602082028036833780820191505090505b5090505f8367ffffffffffffffff811115610a3857610a37611970565b5b604051908082528060200260200182016040528015610a665781602001602082028036833780820191505090505b5090505f5f90505f5f90505f5f90505b85811015610b61575f60035f8c73ffffffffffffffffffffffffffffffffffffffff1673ffffffffffffffffffffffffffffffffffffffff1681526020019081526020015f208281548110610ace57610acd61199d565b5b905f5260205f20015490505f6002811115610aec57610aeb611417565b5b60015f8381526020019081526020015f206003015f9054906101000a900460ff166002811115610b1f57610b1e611417565b5b03610b535780868581518110610b3857610b3761199d565b5b6020026020010181815250508380610b4f906119f7565b9450505b508080600101915050610a76565b505f5f90505b86811015610c52575f60025f8c73ffffffffffffffffffffffffffffffffffffffff1673ffffffffffffffffffffffffffffffffffffffff1681526020019081526020015f208281548110610bbf57610bbe61199d565b5b905f5260205f20015490505f6002811115610bdd57610bdc611417565b5b60015f8381526020019081526020015f206003015f9054906101000a900460ff166002811115610c1057610c0f611417565b5b03610c445780858481518110610c2957610c2861199d565b5b6020026020010181815250508280610c40906119f7565b9350505b508080600101915050610b67565b505f8267ffffffffffffffff811115610c6e57610c6d611970565b5b604051908082528060200260200182016040528015610c9c5781602001602082028036833780820191505090505b5090505f8267ffffffffffffffff811115610cba57610cb9611970565b5b604051908082528060200260200182016040528015610ce85781602001602082028036833780820191505090505b5090505f5f90505b84811015610d3f57868181518110610d0b57610d0a61199d565b5b6020026020010151838281518110610d2657610d2561199d565b5b6020026020010181815250508080600101915050610cf0565b505f5f90505b83811015610d9457858181518110610d6057610d5f61199d565b5b6020026020010151828281518110610d7b57610d7a61199d565b5b6020026020010181815250508080600101915050610d45565b508181995099505050505050505050915091565b606060035f8373ffffffffffffffffffffffffffffffffffffffff1673ffffffffffffffffffffffffffffffffffffffff1681526020019081526020015f20805480602002602001604051908101604052809291908181526020018280548015610e2f57602002820191905f5260205f20905b815481526020019060010190808311610e1b575b50505050509050919050565b5f5481565b6003602052815f5260405f208181548110610e59575f80fd5b905f5260205f20015f91509150505481565b5f5f5f5f5f5f5f5f60015f8a81526020019081526020015f206040518060e00160405290815f82015f9054906101000a900473ffffffffffffffffffffffffffffffffffffffff1673ffffffffffffffffffffffffffffffffffffffff1673ffffffffffffffffffffffffffffffffffffffff168152602001600182015f9054906101000a900473ffffffffffffffffffffffffffffffffffffffff1673ffffffffffffffffffffffffffffffffffffffff1673ffffffffffffffffffffffffffffffffffffffff16815260200160028201548152602001600382015f9054906101000a900460ff166002811115610f6657610f65611417565b5b6002811115610f7857610f77611417565b5b815260200160048201548152602001600582015481526020016006820154815250509050805f015181602001518260400151836060015184608001518560a001518660c00151975097509750975097509750975050919395979092949650565b6002602052815f5260405f208181548110610ff1575f80fd5b905f5260205f20015f91509150505481565b5f5f3411611046576040517f08c379a000000000000000000000000000000000000000000000000000000000815260040161103d90611a88565b60405180910390fd5b5f73ffffffffffffffffffffffffffffffffffffffff168273ffffffffffffffffffffffffffffffffffffffff16036110b4576040517f08c379a00000000000000000000000000000000000000000000000000000000081526004016110ab90611af0565b60405180910390fd5b60015f5f8282546110c59190611b0e565b925050819055506040518060e001604052803373ffffffffffffffffffffffffffffffffffffffff1681526020018373ffffffffffffffffffffffffffffffffffffffff1681526020013481526020015f600281111561112857611127611417565b5b81526020014281526020015f81526020015f81525060015f5f5481526020019081526020015f205f820151815f015f6101000a81548173ffffffffffffffffffffffffffffffffffffffff021916908373ffffffffffffffffffffffffffffffffffffffff1602179055506020820151816001015f6101000a81548173ffffffffffffffffffffffffffffffffffffffff021916908373ffffffffffffffffffffffffffffffffffffffff160217905550604082015181600201556060820151816003015f6101000a81548160ff0219169083600281111561120d5761120c611417565b5b02179055506080820151816004015560a0820151816005015560c0820151816006015590505060025f3373ffffffffffffffffffffffffffffffffffffffff1673ffffffffffffffffffffffffffffffffffffffff1681526020019081526020015f205f54908060018154018082558091505060019003905f5260205f20015f909190919091505560035f8373ffffffffffffffffffffffffffffffffffffffff1673ffffffffffffffffffffffffffffffffffffffff1681526020019081526020015f205f54908060018154018082558091505060019003905f5260205f20015f90919091909150558173ffffffffffffffffffffffffffffffffffffffff163373ffffffffffffffffffffffffffffffffffffffff165f547f9405ad0a6208539879349284d71265479b1623846f70303da1f9890d6e8c10a7346040516113569190611658565b60405180910390a45f549050919050565b5f5ffd5b5f819050919050565b61137d8161136b565b8114611387575f5ffd5b50565b5f8135905061139881611374565b92915050565b5f602082840312156113b3576113b2611367565b5b5f6113c08482850161138a565b91505092915050565b5f73ffffffffffffffffffffffffffffffffffffffff82169050919050565b5f6113f2826113c9565b9050919050565b611402816113e8565b82525050565b6114118161136b565b82525050565b7f4e487b71000000000000000000000000000000000000000000000000000000005f52602160045260245ffd5b6003811061145557611454611417565b5b50565b5f81905061146582611444565b919050565b5f61147482611458565b9050919050565b6114848161146a565b82525050565b5f60e08201905061149d5f83018a6113f9565b6114aa60208301896113f9565b6114b76040830188611408565b6114c4606083018761147b565b6114d16080830186611408565b6114de60a0830185611408565b6114eb60c0830184611408565b98975050505050505050565b611500816113e8565b811461150a575f5ffd5b50565b5f8135905061151b816114f7565b92915050565b5f6020828403121561153657611535611367565b5b5f6115438482850161150d565b91505092915050565b5f81519050919050565b5f82825260208201905092915050565b5f819050602082019050919050565b61157e8161136b565b82525050565b5f61158f8383611575565b60208301905092915050565b5f602082019050919050565b5f6115b18261154c565b6115bb8185611556565b93506115c683611566565b805f5b838110156115f65781516115dd8882611584565b97506115e88361159b565b9250506001810190506115c9565b5085935050505092915050565b5f6020820190508181035f83015261161b81846115a7565b905092915050565b5f6040820190508181035f83015261163b81856115a7565b9050818103602083015261164f81846115a7565b90509392505050565b5f60208201905061166b5f830184611408565b92915050565b5f5f6040838503121561168757611686611367565b5b5f6116948582860161150d565b92505060206116a58582860161138a565b9150509250929050565b5f82825260208201905092915050565b7f4e6f7420726566756e6461626c650000000000000000000000000000000000005f82015250565b5f6116f3600e836116af565b91506116fe826116bf565b602082019050919050565b5f6020820190508181035f830152611720816116e7565b9050919050565b7f4f6e6c792073656e6465722063616e20726566756e64000000000000000000005f82015250565b5f61175b6016836116af565b915061176682611727565b602082019050919050565b5f6020820190508181035f8301526117888161174f565b9050919050565b5f81905092915050565b50565b5f6117a75f8361178f565b91506117b282611799565b5f82019050919050565b5f6117c68261179c565b9150819050919050565b7f526566756e64207472616e73666572206661696c6564000000000000000000005f82015250565b5f6118046016836116af565b915061180f826117d0565b602082019050919050565b5f6020820190508181035f830152611831816117f8565b9050919050565b7f4e6f7420636c61696d61626c65000000000000000000000000000000000000005f82015250565b5f61186c600d836116af565b915061187782611838565b602082019050919050565b5f6020820190508181035f83015261189981611860565b9050919050565b7f4f6e6c792072656365697665722063616e20636c61696d0000000000000000005f82015250565b5f6118d46017836116af565b91506118df826118a0565b602082019050919050565b5f6020820190508181035f830152611901816118c8565b9050919050565b7f436c61696d207472616e73666572206661696c656400000000000000000000005f82015250565b5f61193c6015836116af565b915061194782611908565b602082019050919050565b5f6020820190508181035f83015261196981611930565b9050919050565b7f4e487b71000000000000000000000000000000000000000000000000000000005f52604160045260245ffd5b7f4e487b71000000000000000000000000000000000000000000000000000000005f52603260045260245ffd5b7f4e487b71000000000000000000000000000000000000000000000000000000005f52601160045260245ffd5b5f611a018261136b565b91507fffffffffffffffffffffffffffffffffffffffffffffffffffffffffffffffff8203611a3357611a326119ca565b5b600182019050919050565b7f416d6f756e74206d757374206265203e300000000000000000000000000000005f82015250565b5f611a726011836116af565b9150611a7d82611a3e565b602082019050919050565b5f6020820190508181035f830152611a9f81611a66565b9050919050565b7f52656365697665722072657175697265640000000000000000000000000000005f82015250565b5f611ada6011836116af565b9150611ae582611aa6565b602082019050919050565b5f6020820190508181035f830152611b0781611ace565b9050919050565b5f611b188261136b565b9150611b238361136b565b9250828201905080821115611b3b57611b3a6119ca565b5b9291505056fea2646970667358221220032defb1bcac8584f94f61b146bfd427166ba02240a5fb4665dfb46e9bc8510664736f6c634300081e0033",
					"opcodes": "PUSH1 0x80 PUSH1 0x40 MSTORE CALLVALUE DUP1 ISZERO PUSH1 0xE JUMPI PUSH0 PUSH0 REVERT JUMPDEST POP PUSH2 0x1B77 DUP1 PUSH2 0x1C PUSH0 CODECOPY PUSH0 RETURN INVALID PUSH1 0x80 PUSH1 0x40 MSTORE PUSH1 0x4 CALLDATASIZE LT PUSH2 0x9B JUMPI PUSH0 CALLDATALOAD PUSH1 0xE0 SHR DUP1 PUSH4 0x49CB31EE GT PUSH2 0x63 JUMPI DUP1 PUSH4 0x49CB31EE EQ PUSH2 0x1AA JUMPI DUP1 PUSH4 0x675AC67A EQ PUSH2 0x1E6 JUMPI DUP1 PUSH4 0xB59ED878 EQ PUSH2 0x210 JUMPI DUP1 PUSH4 0xB996EC2A EQ PUSH2 0x24C JUMPI DUP1 PUSH4 0xE23AB08E EQ PUSH2 0x28E JUMPI DUP1 PUSH4 0xF6A8419E EQ PUSH2 0x2CA JUMPI PUSH2 0x9B JUMP JUMPDEST DUP1 PUSH4 0x12F52EE EQ PUSH2 0x9F JUMPI DUP1 PUSH4 0x20D73EDF EQ PUSH2 0xE1 JUMPI DUP1 PUSH4 0x278ECDE1 EQ PUSH2 0x11D JUMPI DUP1 PUSH4 0x379607F5 EQ PUSH2 0x145 JUMPI DUP1 PUSH4 0x45FDE2AE EQ PUSH2 0x16D JUMPI JUMPDEST PUSH0 PUSH0 REVERT JUMPDEST CALLVALUE DUP1 ISZERO PUSH2 0xAA JUMPI PUSH0 PUSH0 REVERT JUMPDEST POP PUSH2 0xC5 PUSH1 0x4 DUP1 CALLDATASIZE SUB DUP2 ADD SWAP1 PUSH2 0xC0 SWAP2 SWAP1 PUSH2 0x139E JUMP JUMPDEST PUSH2 0x2FA JUMP JUMPDEST PUSH1 0x40 MLOAD PUSH2 0xD8 SWAP8 SWAP7 SWAP6 SWAP5 SWAP4 SWAP3 SWAP2 SWAP1 PUSH2 0x148A JUMP JUMPDEST PUSH1 0x40 MLOAD DUP1 SWAP2 SUB SWAP1 RETURN JUMPDEST CALLVALUE DUP1 ISZERO PUSH2 0xEC JUMPI PUSH0 PUSH0 REVERT JUMPDEST POP PUSH2 0x107 PUSH1 0x4 DUP1 CALLDATASIZE SUB DUP2 ADD SWAP1 PUSH2 0x102 SWAP2 SWAP1 PUSH2 0x1521 JUMP JUMPDEST PUSH2 0x382 JUMP JUMPDEST PUSH1 0x40 MLOAD PUSH2 0x114 SWAP2 SWAP1 PUSH2 0x1603 JUMP JUMPDEST PUSH1 0x40 MLOAD DUP1 SWAP2 SUB SWAP1 RETURN JUMPDEST CALLVALUE DUP1 ISZERO PUSH2 0x128 JUMPI PUSH0 PUSH0 REVERT JUMPDEST POP PUSH2 0x143 PUSH1 0x4 DUP1 CALLDATASIZE SUB DUP2 ADD SWAP1 PUSH2 0x13E SWAP2 SWAP1 PUSH2 0x139E JUMP JUMPDEST PUSH2 0x415 JUMP JUMPDEST STOP JUMPDEST CALLVALUE DUP1 ISZERO PUSH2 0x150 JUMPI PUSH0 PUSH0 REVERT JUMPDEST POP PUSH2 0x16B PUSH1 0x4 DUP1 CALLDATASIZE SUB DUP2 ADD SWAP1 PUSH2 0x166 SWAP2 SWAP1 PUSH2 0x139E JUMP JUMPDEST PUSH2 0x6AC JUMP JUMPDEST STOP JUMPDEST CALLVALUE DUP1 ISZERO PUSH2 0x178 JUMPI PUSH0 PUSH0 REVERT JUMPDEST POP PUSH2 0x193 PUSH1 0x4 DUP1 CALLDATASIZE SUB DUP2 ADD SWAP1 PUSH2 0x18E SWAP2 SWAP1 PUSH2 0x1521 JUMP JUMPDEST PUSH2 0x946 JUMP JUMPDEST PUSH1 0x40 MLOAD PUSH2 0x1A1 SWAP3 SWAP2 SWAP1 PUSH2 0x1623 JUMP JUMPDEST PUSH1 0x40 MLOAD DUP1 SWAP2 SUB SWAP1 RETURN JUMPDEST CALLVALUE DUP1 ISZERO PUSH2 0x1B5 JUMPI PUSH0 PUSH0 REVERT JUMPDEST POP PUSH2 0x1D0 PUSH1 0x4 DUP1 CALLDATASIZE SUB DUP2 ADD SWAP1 PUSH2 0x1CB SWAP2 SWAP1 PUSH2 0x1521 JUMP JUMPDEST PUSH2 0xDA8 JUMP JUMPDEST PUSH1 0x40 MLOAD PUSH2 0x1DD SWAP2 SWAP1 PUSH2 0x1603 JUMP JUMPDEST PUSH1 0x40 MLOAD DUP1 SWAP2 SUB SWAP1 RETURN JUMPDEST CALLVALUE DUP1 ISZERO PUSH2 0x1F1 JUMPI PUSH0 PUSH0 REVERT JUMPDEST POP PUSH2 0x1FA PUSH2 0xE3B JUMP JUMPDEST PUSH1 0x40 MLOAD PUSH2 0x207 SWAP2 SWAP1 PUSH2 0x1658 JUMP JUMPDEST PUSH1 0x40 MLOAD DUP1 SWAP2 SUB SWAP1 RETURN JUMPDEST CALLVALUE DUP1 ISZERO PUSH2 0x21B JUMPI PUSH0 PUSH0 REVERT JUMPDEST POP PUSH2 0x236 PUSH1 0x4 DUP1 CALLDATASIZE SUB DUP2 ADD SWAP1 PUSH2 0x231 SWAP2 SWAP1 PUSH2 0x1671 JUMP JUMPDEST PUSH2 0xE40 JUMP JUMPDEST PUSH1 0x40 MLOAD PUSH2 0x243 SWAP2 SWAP1 PUSH2 0x1658 JUMP JUMPDEST PUSH1 0x40 MLOAD DUP1 SWAP2 SUB SWAP1 RETURN JUMPDEST CALLVALUE DUP1 ISZERO PUSH2 0x257 JUMPI PUSH0 PUSH0 REVERT JUMPDEST POP PUSH2 0x272 PUSH1 0x4 DUP1 CALLDATASIZE SUB DUP2 ADD SWAP1 PUSH2 0x26D SWAP2 SWAP1 PUSH2 0x139E JUMP JUMPDEST PUSH2 0xE6B JUMP JUMPDEST PUSH1 0x40 MLOAD PUSH2 0x285 SWAP8 SWAP7 SWAP6 SWAP5 SWAP4 SWAP3 SWAP2 SWAP1 PUSH2 0x148A JUMP JUMPDEST PUSH1 0x40 MLOAD DUP1 SWAP2 SUB SWAP1 RETURN JUMPDEST CALLVALUE DUP1 ISZERO PUSH2 0x299 JUMPI PUSH0 PUSH0 REVERT JUMPDEST POP PUSH2 0x2B4 PUSH1 0x4 DUP1 CALLDATASIZE SUB DUP2 ADD SWAP1 PUSH2 0x2AF SWAP2 SWAP1 PUSH2 0x1671 JUMP JUMPDEST PUSH2 0xFD8 JUMP JUMPDEST PUSH1 0x40 MLOAD PUSH2 0x2C1 SWAP2 SWAP1 PUSH2 0x1658 JUMP JUMPDEST PUSH1 0x40 MLOAD DUP1 SWAP2 SUB SWAP1 RETURN JUMPDEST PUSH2 0x2E4 PUSH1 0x4 DUP1 CALLDATASIZE SUB DUP2 ADD SWAP1 PUSH2 0x2DF SWAP2 SWAP1 PUSH2 0x1521 JUMP JUMPDEST PUSH2 0x1003 JUMP JUMPDEST PUSH1 0x40 MLOAD PUSH2 0x2F1 SWAP2 SWAP1 PUSH2 0x1658 JUMP JUMPDEST PUSH1 0x40 MLOAD DUP1 SWAP2 SUB SWAP1 RETURN JUMPDEST PUSH1 0x1 PUSH1 0x20 MSTORE DUP1 PUSH0 MSTORE PUSH1 0x40 PUSH0 KECCAK256 PUSH0 SWAP2 POP SWAP1 POP DUP1 PUSH0 ADD PUSH0 SWAP1 SLOAD SWAP1 PUSH2 0x100 EXP SWAP1 DIV PUSH20 0xFFFFFFFFFFFFFFFFFFFFFFFFFFFFFFFFFFFFFFFF AND SWAP1 DUP1 PUSH1 0x1 ADD PUSH0 SWAP1 SLOAD SWAP1 PUSH2 0x100 EXP SWAP1 DIV PUSH20 0xFFFFFFFFFFFFFFFFFFFFFFFFFFFFFFFFFFFFFFFF AND SWAP1 DUP1 PUSH1 0x2 ADD SLOAD SWAP1 DUP1 PUSH1 0x3 ADD PUSH0 SWAP1 SLOAD SWAP1 PUSH2 0x100 EXP SWAP1 DIV PUSH1 0xFF AND SWAP1 DUP1 PUSH1 0x4 ADD SLOAD SWAP1 DUP1 PUSH1 0x5 ADD SLOAD SWAP1 DUP1 PUSH1 0x6 ADD SLOAD SWAP1 POP DUP8 JUMP JUMPDEST PUSH1 0x60 PUSH1 0x2 PUSH0 DUP4 PUSH20 0xFFFFFFFFFFFFFFFFFFFFFFFFFFFFFFFFFFFFFFFF AND PUSH20 0xFFFFFFFFFFFFFFFFFFFFFFFFFFFFFFFFFFFFFFFF AND DUP2 MSTORE PUSH1 0x20 ADD SWAP1 DUP2 MSTORE PUSH1 0x20 ADD PUSH0 KECCAK256 DUP1 SLOAD DUP1 PUSH1 0x20 MUL PUSH1 0x20 ADD PUSH1 0x40 MLOAD SWAP1 DUP2 ADD PUSH1 0x40 MSTORE DUP1 SWAP3 SWAP2 SWAP1 DUP2 DUP2 MSTORE PUSH1 0x20 ADD DUP3 DUP1 SLOAD DUP1 ISZERO PUSH2 0x409 JUMPI PUSH1 0x20 MUL DUP3 ADD SWAP2 SWAP1 PUSH0 MSTORE PUSH1 0x20 PUSH0 KECCAK256 SWAP1 JUMPDEST DUP2 SLOAD DUP2 MSTORE PUSH1 0x20 ADD SWAP1 PUSH1 0x1 ADD SWAP1 DUP1 DUP4 GT PUSH2 0x3F5 JUMPI JUMPDEST POP POP POP POP POP SWAP1 POP SWAP2 SWAP1 POP JUMP JUMPDEST PUSH0 PUSH1 0x1 PUSH0 DUP4 DUP2 MSTORE PUSH1 0x20 ADD SWAP1 DUP2 MSTORE PUSH1 0x20 ADD PUSH0 KECCAK256 SWAP1 POP PUSH0 PUSH1 0x2 DUP2 GT ISZERO PUSH2 0x43C JUMPI PUSH2 0x43B PUSH2 0x1417 JUMP JUMPDEST JUMPDEST DUP2 PUSH1 0x3 ADD PUSH0 SWAP1 SLOAD SWAP1 PUSH2 0x100 EXP SWAP1 DIV PUSH1 0xFF AND PUSH1 0x2 DUP2 GT ISZERO PUSH2 0x45F JUMPI PUSH2 0x45E PUSH2 0x1417 JUMP JUMPDEST JUMPDEST EQ PUSH2 0x49F JUMPI PUSH1 0x40 MLOAD PUSH32 0x8C379A000000000000000000000000000000000000000000000000000000000 DUP2 MSTORE PUSH1 0x4 ADD PUSH2 0x496 SWAP1 PUSH2 0x1709 JUMP JUMPDEST PUSH1 0x40 MLOAD DUP1 SWAP2 SUB SWAP1 REVERT JUMPDEST DUP1 PUSH0 ADD PUSH0 SWAP1 SLOAD SWAP1 PUSH2 0x100 EXP SWAP1 DIV PUSH20 0xFFFFFFFFFFFFFFFFFFFFFFFFFFFFFFFFFFFFFFFF AND PUSH20 0xFFFFFFFFFFFFFFFFFFFFFFFFFFFFFFFFFFFFFFFF AND CALLER PUSH20 0xFFFFFFFFFFFFFFFFFFFFFFFFFFFFFFFFFFFFFFFF AND EQ PUSH2 0x52F JUMPI PUSH1 0x40 MLOAD PUSH32 0x8C379A000000000000000000000000000000000000000000000000000000000 DUP2 MSTORE PUSH1 0x4 ADD PUSH2 0x526 SWAP1 PUSH2 0x1771 JUMP JUMPDEST PUSH1 0x40 MLOAD DUP1 SWAP2 SUB SWAP1 REVERT JUMPDEST PUSH1 0x2 DUP2 PUSH1 0x3 ADD PUSH0 PUSH2 0x100 EXP DUP2 SLOAD DUP2 PUSH1 0xFF MUL NOT AND SWAP1 DUP4 PUSH1 0x2 DUP2 GT ISZERO PUSH2 0x556 JUMPI PUSH2 0x555 PUSH2 0x1417 JUMP JUMPDEST JUMPDEST MUL OR SWAP1 SSTORE POP TIMESTAMP DUP2 PUSH1 0x6 ADD DUP2 SWAP1 SSTORE POP PUSH0 DUP2 PUSH0 ADD PUSH0 SWAP1 SLOAD SWAP1 PUSH2 0x100 EXP SWAP1 DIV PUSH20 0xFFFFFFFFFFFFFFFFFFFFFFFFFFFFFFFFFFFFFFFF AND PUSH20 0xFFFFFFFFFFFFFFFFFFFFFFFFFFFFFFFFFFFFFFFF AND DUP3 PUSH1 0x2 ADD SLOAD PUSH1 0x40 MLOAD PUSH2 0x5AF SWAP1 PUSH2 0x17BC JUMP JUMPDEST PUSH0 PUSH1 0x40 MLOAD DUP1 DUP4 SUB DUP2 DUP6 DUP8 GAS CALL SWAP3 POP POP POP RETURNDATASIZE DUP1 PUSH0 DUP2 EQ PUSH2 0x5E9 JUMPI PUSH1 0x40 MLOAD SWAP2 POP PUSH1 0x1F NOT PUSH1 0x3F RETURNDATASIZE ADD AND DUP3 ADD PUSH1 0x40 MSTORE RETURNDATASIZE DUP3 MSTORE RETURNDATASIZE PUSH0 PUSH1 0x20 DUP5 ADD RETURNDATACOPY PUSH2 0x5EE JUMP JUMPDEST PUSH1 0x60 SWAP2 POP JUMPDEST POP POP SWAP1 POP DUP1 PUSH2 0x632 JUMPI PUSH1 0x40 MLOAD PUSH32 0x8C379A000000000000000000000000000000000000000000000000000000000 DUP2 MSTORE PUSH1 0x4 ADD PUSH2 0x629 SWAP1 PUSH2 0x181A JUMP JUMPDEST PUSH1 0x40 MLOAD DUP1 SWAP2 SUB SWAP1 REVERT JUMPDEST DUP2 PUSH0 ADD PUSH0 SWAP1 SLOAD SWAP1 PUSH2 0x100 EXP SWAP1 DIV PUSH20 0xFFFFFFFFFFFFFFFFFFFFFFFFFFFFFFFFFFFFFFFF AND PUSH20 0xFFFFFFFFFFFFFFFFFFFFFFFFFFFFFFFFFFFFFFFF AND DUP4 PUSH32 0x7CA5472B7EA78C2C0141C5A12EE6D170CF4CE8ED06BE3D22C8252DDFC7A6A2C4 DUP5 PUSH1 0x6 ADD SLOAD PUSH1 0x40 MLOAD PUSH2 0x69F SWAP2 SWAP1 PUSH2 0x1658 JUMP JUMPDEST PUSH1 0x40 MLOAD DUP1 SWAP2 SUB SWAP1 LOG3 POP POP POP JUMP JUMPDEST PUSH0 PUSH1 0x1 PUSH0 DUP4 DUP2 MSTORE PUSH1 0x20 ADD SWAP1 DUP2 MSTORE PUSH1 0x20 ADD PUSH0 KECCAK256 SWAP1 POP PUSH0 PUSH1 0x2 DUP2 GT ISZERO PUSH2 0x6D3 JUMPI PUSH2 0x6D2 PUSH2 0x1417 JUMP JUMPDEST JUMPDEST DUP2 PUSH1 0x3 ADD PUSH0 SWAP1 SLOAD SWAP1 PUSH2 0x100 EXP SWAP1 DIV PUSH1 0xFF AND PUSH1 0x2 DUP2 GT ISZERO PUSH2 0x6F6 JUMPI PUSH2 0x6F5 PUSH2 0x1417 JUMP JUMPDEST JUMPDEST EQ PUSH2 0x736 JUMPI PUSH1 0x40 MLOAD PUSH32 0x8C379A000000000000000000000000000000000000000000000000000000000 DUP2 MSTORE PUSH1 0x4 ADD PUSH2 0x72D SWAP1 PUSH2 0x1882 JUMP JUMPDEST PUSH1 0x40 MLOAD DUP1 SWAP2 SUB SWAP1 REVERT JUMPDEST DUP1 PUSH1 0x1 ADD PUSH0 SWAP1 SLOAD SWAP1 PUSH2 0x100 EXP SWAP1 DIV PUSH20 0xFFFFFFFFFFFFFFFFFFFFFFFFFFFFFFFFFFFFFFFF AND PUSH20 0xFFFFFFFFFFFFFFFFFFFFFFFFFFFFFFFFFFFFFFFF AND CALLER PUSH20 0xFFFFFFFFFFFFFFFFFFFFFFFFFFFFFFFFFFFFFFFF AND EQ PUSH2 0x7C7 JUMPI PUSH1 0x40 MLOAD PUSH32 0x8C379A000000000000000000000000000000000000000000000000000000000 DUP2 MSTORE PUSH1 0x4 ADD PUSH2 0x7BE SWAP1 PUSH2 0x18EA JUMP JUMPDEST PUSH1 0x40 MLOAD DUP1 SWAP2 SUB SWAP1 REVERT JUMPDEST PUSH1 0x1 DUP2 PUSH1 0x3 ADD PUSH0 PUSH2 0x100 EXP DUP2 SLOAD DUP2 PUSH1 0xFF MUL NOT AND SWAP1 DUP4 PUSH1 0x2 DUP2 GT ISZERO PUSH2 0x7EE JUMPI PUSH2 0x7ED PUSH2 0x1417 JUMP JUMPDEST JUMPDEST MUL OR SWAP1 SSTORE POP TIMESTAMP DUP2 PUSH1 0x5 ADD DUP2 SWAP1 SSTORE POP PUSH0 DUP2 PUSH1 0x1 ADD PUSH0 SWAP1 SLOAD SWAP1 PUSH2 0x100 EXP SWAP1 DIV PUSH20 0xFFFFFFFFFFFFFFFFFFFFFFFFFFFFFFFFFFFFFFFF AND PUSH20 0xFFFFFFFFFFFFFFFFFFFFFFFFFFFFFFFFFFFFFFFF AND DUP3 PUSH1 0x2 ADD SLOAD PUSH1 0x40 MLOAD PUSH2 0x848 SWAP1 PUSH2 0x17BC JUMP JUMPDEST PUSH0 PUSH1 0x40 MLOAD DUP1 DUP4 SUB DUP2 DUP6 DUP8 GAS CALL SWAP3 POP POP POP RETURNDATASIZE DUP1 PUSH0 DUP2 EQ PUSH2 0x882 JUMPI PUSH1 0x40 MLOAD SWAP2 POP PUSH1 0x1F NOT PUSH1 0x3F RETURNDATASIZE ADD AND DUP3 ADD PUSH1 0x40 MSTORE RETURNDATASIZE DUP3 MSTORE RETURNDATASIZE PUSH0 PUSH1 0x20 DUP5 ADD RETURNDATACOPY PUSH2 0x887 JUMP JUMPDEST PUSH1 0x60 SWAP2 POP JUMPDEST POP POP SWAP1 POP DUP1 PUSH2 0x8CB JUMPI PUSH1 0x40 MLOAD PUSH32 0x8C379A000000000000000000000000000000000000000000000000000000000 DUP2 MSTORE PUSH1 0x4 ADD PUSH2 0x8C2 SWAP1 PUSH2 0x1952 JUMP JUMPDEST PUSH1 0x40 MLOAD DUP1 SWAP2 SUB SWAP1 REVERT JUMPDEST DUP2 PUSH1 0x1 ADD PUSH0 SWAP1 SLOAD SWAP1 PUSH2 0x100 EXP SWAP1 DIV PUSH20 0xFFFFFFFFFFFFFFFFFFFFFFFFFFFFFFFFFFFFFFFF AND PUSH20 0xFFFFFFFFFFFFFFFFFFFFFFFFFFFFFFFFFFFFFFFF AND DUP4 PUSH32 0x4EC90E965519D92681267467F775ADA5BD214AA92C0DC93D90A5E880CE9ED026 DUP5 PUSH1 0x5 ADD SLOAD PUSH1 0x40 MLOAD PUSH2 0x939 SWAP2 SWAP1 PUSH2 0x1658 JUMP JUMPDEST PUSH1 0x40 MLOAD DUP1 SWAP2 SUB SWAP1 LOG3 POP POP POP JUMP JUMPDEST PUSH1 0x60 DUP1 PUSH0 PUSH1 0x2 PUSH0 DUP6 PUSH20 0xFFFFFFFFFFFFFFFFFFFFFFFFFFFFFFFFFFFFFFFF AND PUSH20 0xFFFFFFFFFFFFFFFFFFFFFFFFFFFFFFFFFFFFFFFF AND DUP2 MSTORE PUSH1 0x20 ADD SWAP1 DUP2 MSTORE PUSH1 0x20 ADD PUSH0 KECCAK256 DUP1 SLOAD SWAP1 POP SWAP1 POP PUSH0 PUSH1 0x3 PUSH0 DUP7 PUSH20 0xFFFFFFFFFFFFFFFFFFFFFFFFFFFFFFFFFFFFFFFF AND PUSH20 0xFFFFFFFFFFFFFFFFFFFFFFFFFFFFFFFFFFFFFFFF AND DUP2 MSTORE PUSH1 0x20 ADD SWAP1 DUP2 MSTORE PUSH1 0x20 ADD PUSH0 KECCAK256 DUP1 SLOAD SWAP1 POP SWAP1 POP PUSH0 DUP2 PUSH8 0xFFFFFFFFFFFFFFFF DUP2 GT ISZERO PUSH2 0x9EC JUMPI PUSH2 0x9EB PUSH2 0x1970 JUMP JUMPDEST JUMPDEST PUSH1 0x40 MLOAD SWAP1 DUP1 DUP3 MSTORE DUP1 PUSH1 0x20 MUL PUSH1 0x20 ADD DUP3 ADD PUSH1 0x40 MSTORE DUP1 ISZERO PUSH2 0xA1A JUMPI DUP2 PUSH1 0x20 ADD PUSH1 0x20 DUP3 MUL DUP1 CALLDATASIZE DUP4 CALLDATACOPY DUP1 DUP3 ADD SWAP2 POP POP SWAP1 POP JUMPDEST POP SWAP1 POP PUSH0 DUP4 PUSH8 0xFFFFFFFFFFFFFFFF DUP2 GT ISZERO PUSH2 0xA38 JUMPI PUSH2 0xA37 PUSH2 0x1970 JUMP JUMPDEST JUMPDEST PUSH1 0x40 MLOAD SWAP1 DUP1 DUP3 MSTORE DUP1 PUSH1 0x20 MUL PUSH1 0x20 ADD DUP3 ADD PUSH1 0x40 MSTORE DUP1 ISZERO PUSH2 0xA66 JUMPI DUP2 PUSH1 0x20 ADD PUSH1 0x20 DUP3 MUL DUP1 CALLDATASIZE DUP4 CALLDATACOPY DUP1 DUP3 ADD SWAP2 POP POP SWAP1 POP JUMPDEST POP SWAP1 POP PUSH0 PUSH0 SWAP1 POP PUSH0 PUSH0 SWAP1 POP PUSH0 PUSH0 SWAP1 POP JUMPDEST DUP6 DUP2 LT ISZERO PUSH2 0xB61 JUMPI PUSH0 PUSH1 0x3 PUSH0 DUP13 PUSH20 0xFFFFFFFFFFFFFFFFFFFFFFFFFFFFFFFFFFFFFFFF AND PUSH20 0xFFFFFFFFFFFFFFFFFFFFFFFFFFFFFFFFFFFFFFFF AND DUP2 MSTORE PUSH1 0x20 ADD SWAP1 DUP2 MSTORE PUSH1 0x20 ADD PUSH0 KECCAK256 DUP3 DUP2 SLOAD DUP2 LT PUSH2 0xACE JUMPI PUSH2 0xACD PUSH2 0x199D JUMP JUMPDEST JUMPDEST SWAP1 PUSH0 MSTORE PUSH1 0x20 PUSH0 KECCAK256 ADD SLOAD SWAP1 POP PUSH0 PUSH1 0x2 DUP2 GT ISZERO PUSH2 0xAEC JUMPI PUSH2 0xAEB PUSH2 0x1417 JUMP JUMPDEST JUMPDEST PUSH1 0x1 PUSH0 DUP4 DUP2 MSTORE PUSH1 0x20 ADD SWAP1 DUP2 MSTORE PUSH1 0x20 ADD PUSH0 KECCAK256 PUSH1 0x3 ADD PUSH0 SWAP1 SLOAD SWAP1 PUSH2 0x100 EXP SWAP1 DIV PUSH1 0xFF AND PUSH1 0x2 DUP2 GT ISZERO PUSH2 0xB1F JUMPI PUSH2 0xB1E PUSH2 0x1417 JUMP JUMPDEST JUMPDEST SUB PUSH2 0xB53 JUMPI DUP1 DUP7 DUP6 DUP2 MLOAD DUP2 LT PUSH2 0xB38 JUMPI PUSH2 0xB37 PUSH2 0x199D JUMP JUMPDEST JUMPDEST PUSH1 0x20 MUL PUSH1 0x20 ADD ADD DUP2 DUP2 MSTORE POP POP DUP4 DUP1 PUSH2 0xB4F SWAP1 PUSH2 0x19F7 JUMP JUMPDEST SWAP5 POP POP JUMPDEST POP DUP1 DUP1 PUSH1 0x1 ADD SWAP2 POP POP PUSH2 0xA76 JUMP JUMPDEST POP PUSH0 PUSH0 SWAP1 POP JUMPDEST DUP7 DUP2 LT ISZERO PUSH2 0xC52 JUMPI PUSH0 PUSH1 0x2 PUSH0 DUP13 PUSH20 0xFFFFFFFFFFFFFFFFFFFFFFFFFFFFFFFFFFFFFFFF AND PUSH20 0xFFFFFFFFFFFFFFFFFFFFFFFFFFFFFFFFFFFFFFFF AND DUP2 MSTORE PUSH1 0x20 ADD SWAP1 DUP2 MSTORE PUSH1 0x20 ADD PUSH0 KECCAK256 DUP3 DUP2 SLOAD DUP2 LT PUSH2 0xBBF JUMPI PUSH2 0xBBE PUSH2 0x199D JUMP JUMPDEST JUMPDEST SWAP1 PUSH0 MSTORE PUSH1 0x20 PUSH0 KECCAK256 ADD SLOAD SWAP1 POP PUSH0 PUSH1 0x2 DUP2 GT ISZERO PUSH2 0xBDD JUMPI PUSH2 0xBDC PUSH2 0x1417 JUMP JUMPDEST JUMPDEST PUSH1 0x1 PUSH0 DUP4 DUP2 MSTORE PUSH1 0x20 ADD SWAP1 DUP2 MSTORE PUSH1 0x20 ADD PUSH0 KECCAK256 PUSH1 0x3 ADD PUSH0 SWAP1 SLOAD SWAP1 PUSH2 0x100 EXP SWAP1 DIV PUSH1 0xFF AND PUSH1 0x2 DUP2 GT ISZERO PUSH2 0xC10 JUMPI PUSH2 0xC0F PUSH2 0x1417 JUMP JUMPDEST JUMPDEST SUB PUSH2 0xC44 JUMPI DUP1 DUP6 DUP5 DUP2 MLOAD DUP2 LT PUSH2 0xC29 JUMPI PUSH2 0xC28 PUSH2 0x199D JUMP JUMPDEST JUMPDEST PUSH1 0x20 MUL PUSH1 0x20 ADD ADD DUP2 DUP2 MSTORE POP POP DUP3 DUP1 PUSH2 0xC40 SWAP1 PUSH2 0x19F7 JUMP JUMPDEST SWAP4 POP POP JUMPDEST POP DUP1 DUP1 PUSH1 0x1 ADD SWAP2 POP POP PUSH2 0xB67 JUMP JUMPDEST POP PUSH0 DUP3 PUSH8 0xFFFFFFFFFFFFFFFF DUP2 GT ISZERO PUSH2 0xC6E JUMPI PUSH2 0xC6D PUSH2 0x1970 JUMP JUMPDEST JUMPDEST PUSH1 0x40 MLOAD SWAP1 DUP1 DUP3 MSTORE DUP1 PUSH1 0x20 MUL PUSH1 0x20 ADD DUP3 ADD PUSH1 0x40 MSTORE DUP1 ISZERO PUSH2 0xC9C JUMPI DUP2 PUSH1 0x20 ADD PUSH1 0x20 DUP3 MUL DUP1 CALLDATASIZE DUP4 CALLDATACOPY DUP1 DUP3 ADD SWAP2 POP POP SWAP1 POP JUMPDEST POP SWAP1 POP PUSH0 DUP3 PUSH8 0xFFFFFFFFFFFFFFFF DUP2 GT ISZERO PUSH2 0xCBA JUMPI PUSH2 0xCB9 PUSH2 0x1970 JUMP JUMPDEST JUMPDEST PUSH1 0x40 MLOAD SWAP1 DUP1 DUP3 MSTORE DUP1 PUSH1 0x20 MUL PUSH1 0x20 ADD DUP3 ADD PUSH1 0x40 MSTORE DUP1 ISZERO PUSH2 0xCE8 JUMPI DUP2 PUSH1 0x20 ADD PUSH1 0x20 DUP3 MUL DUP1 CALLDATASIZE DUP4 CALLDATACOPY DUP1 DUP3 ADD SWAP2 POP POP SWAP1 POP JUMPDEST POP SWAP1 POP PUSH0 PUSH0 SWAP1 POP JUMPDEST DUP5 DUP2 LT ISZERO PUSH2 0xD3F JUMPI DUP7 DUP2 DUP2 MLOAD DUP2 LT PUSH2 0xD0B JUMPI PUSH2 0xD0A PUSH2 0x199D JUMP JUMPDEST JUMPDEST PUSH1 0x20 MUL PUSH1 0x20 ADD ADD MLOAD DUP4 DUP3 DUP2 MLOAD DUP2 LT PUSH2 0xD26 JUMPI PUSH2 0xD25 PUSH2 0x199D JUMP JUMPDEST JUMPDEST PUSH1 0x20 MUL PUSH1 0x20 ADD ADD DUP2 DUP2 MSTORE POP POP DUP1 DUP1 PUSH1 0x1 ADD SWAP2 POP POP PUSH2 0xCF0 JUMP JUMPDEST POP PUSH0 PUSH0 SWAP1 POP JUMPDEST DUP4 DUP2 LT ISZERO PUSH2 0xD94 JUMPI DUP6 DUP2 DUP2 MLOAD DUP2 LT PUSH2 0xD60 JUMPI PUSH2 0xD5F PUSH2 0x199D JUMP JUMPDEST JUMPDEST PUSH1 0x20 MUL PUSH1 0x20 ADD ADD MLOAD DUP3 DUP3 DUP2 MLOAD DUP2 LT PUSH2 0xD7B JUMPI PUSH2 0xD7A PUSH2 0x199D JUMP JUMPDEST JUMPDEST PUSH1 0x20 MUL PUSH1 0x20 ADD ADD DUP2 DUP2 MSTORE POP POP DUP1 DUP1 PUSH1 0x1 ADD SWAP2 POP POP PUSH2 0xD45 JUMP JUMPDEST POP DUP2 DUP2 SWAP10 POP SWAP10 POP POP POP POP POP POP POP POP POP SWAP2 POP SWAP2 JUMP JUMPDEST PUSH1 0x60 PUSH1 0x3 PUSH0 DUP4 PUSH20 0xFFFFFFFFFFFFFFFFFFFFFFFFFFFFFFFFFFFFFFFF AND PUSH20 0xFFFFFFFFFFFFFFFFFFFFFFFFFFFFFFFFFFFFFFFF AND DUP2 MSTORE PUSH1 0x20 ADD SWAP1 DUP2 MSTORE PUSH1 0x20 ADD PUSH0 KECCAK256 DUP1 SLOAD DUP1 PUSH1 0x20 MUL PUSH1 0x20 ADD PUSH1 0x40 MLOAD SWAP1 DUP2 ADD PUSH1 0x40 MSTORE DUP1 SWAP3 SWAP2 SWAP1 DUP2 DUP2 MSTORE PUSH1 0x20 ADD DUP3 DUP1 SLOAD DUP1 ISZERO PUSH2 0xE2F JUMPI PUSH1 0x20 MUL DUP3 ADD SWAP2 SWAP1 PUSH0 MSTORE PUSH1 0x20 PUSH0 KECCAK256 SWAP1 JUMPDEST DUP2 SLOAD DUP2 MSTORE PUSH1 0x20 ADD SWAP1 PUSH1 0x1 ADD SWAP1 DUP1 DUP4 GT PUSH2 0xE1B JUMPI JUMPDEST POP POP POP POP POP SWAP1 POP SWAP2 SWAP1 POP JUMP JUMPDEST PUSH0 SLOAD DUP2 JUMP JUMPDEST PUSH1 0x3 PUSH1 0x20 MSTORE DUP2 PUSH0 MSTORE PUSH1 0x40 PUSH0 KECCAK256 DUP2 DUP2 SLOAD DUP2 LT PUSH2 0xE59 JUMPI PUSH0 DUP1 REVERT JUMPDEST SWAP1 PUSH0 MSTORE PUSH1 0x20 PUSH0 KECCAK256 ADD PUSH0 SWAP2 POP SWAP2 POP POP SLOAD DUP2 JUMP JUMPDEST PUSH0 PUSH0 PUSH0 PUSH0 PUSH0 PUSH0 PUSH0 PUSH0 PUSH1 0x1 PUSH0 DUP11 DUP2 MSTORE PUSH1 0x20 ADD SWAP1 DUP2 MSTORE PUSH1 0x20 ADD PUSH0 KECCAK256 PUSH1 0x40 MLOAD DUP1 PUSH1 0xE0 ADD PUSH1 0x40 MSTORE SWAP1 DUP2 PUSH0 DUP3 ADD PUSH0 SWAP1 SLOAD SWAP1 PUSH2 0x100 EXP SWAP1 DIV PUSH20 0xFFFFFFFFFFFFFFFFFFFFFFFFFFFFFFFFFFFFFFFF AND PUSH20 0xFFFFFFFFFFFFFFFFFFFFFFFFFFFFFFFFFFFFFFFF AND PUSH20 0xFFFFFFFFFFFFFFFFFFFFFFFFFFFFFFFFFFFFFFFF AND DUP2 MSTORE PUSH1 0x20 ADD PUSH1 0x1 DUP3 ADD PUSH0 SWAP1 SLOAD SWAP1 PUSH2 0x100 EXP SWAP1 DIV PUSH20 0xFFFFFFFFFFFFFFFFFFFFFFFFFFFFFFFFFFFFFFFF AND PUSH20 0xFFFFFFFFFFFFFFFFFFFFFFFFFFFFFFFFFFFFFFFF AND PUSH20 0xFFFFFFFFFFFFFFFFFFFFFFFFFFFFFFFFFFFFFFFF AND DUP2 MSTORE PUSH1 0x20 ADD PUSH1 0x2 DUP3 ADD SLOAD DUP2 MSTORE PUSH1 0x20 ADD PUSH1 0x3 DUP3 ADD PUSH0 SWAP1 SLOAD SWAP1 PUSH2 0x100 EXP SWAP1 DIV PUSH1 0xFF AND PUSH1 0x2 DUP2 GT ISZERO PUSH2 0xF66 JUMPI PUSH2 0xF65 PUSH2 0x1417 JUMP JUMPDEST JUMPDEST PUSH1 0x2 DUP2 GT ISZERO PUSH2 0xF78 JUMPI PUSH2 0xF77 PUSH2 0x1417 JUMP JUMPDEST JUMPDEST DUP2 MSTORE PUSH1 0x20 ADD PUSH1 0x4 DUP3 ADD SLOAD DUP2 MSTORE PUSH1 0x20 ADD PUSH1 0x5 DUP3 ADD SLOAD DUP2 MSTORE PUSH1 0x20 ADD PUSH1 0x6 DUP3 ADD SLOAD DUP2 MSTORE POP POP SWAP1 POP DUP1 PUSH0 ADD MLOAD DUP2 PUSH1 0x20 ADD MLOAD DUP3 PUSH1 0x40 ADD MLOAD DUP4 PUSH1 0x60 ADD MLOAD DUP5 PUSH1 0x80 ADD MLOAD DUP6 PUSH1 0xA0 ADD MLOAD DUP7 PUSH1 0xC0 ADD MLOAD SWAP8 POP SWAP8 POP SWAP8 POP SWAP8 POP SWAP8 POP SWAP8 POP SWAP8 POP POP SWAP2 SWAP4 SWAP6 SWAP8 SWAP1 SWAP3 SWAP5 SWAP7 POP JUMP JUMPDEST PUSH1 0x2 PUSH1 0x20 MSTORE DUP2 PUSH0 MSTORE PUSH1 0x40 PUSH0 KECCAK256 DUP2 DUP2 SLOAD DUP2 LT PUSH2 0xFF1 JUMPI PUSH0 DUP1 REVERT JUMPDEST SWAP1 PUSH0 MSTORE PUSH1 0x20 PUSH0 KECCAK256 ADD PUSH0 SWAP2 POP SWAP2 POP POP SLOAD DUP2 JUMP JUMPDEST PUSH0 PUSH0 CALLVALUE GT PUSH2 0x1046 JUMPI PUSH1 0x40 MLOAD PUSH32 0x8C379A000000000000000000000000000000000000000000000000000000000 DUP2 MSTORE PUSH1 0x4 ADD PUSH2 0x103D SWAP1 PUSH2 0x1A88 JUMP JUMPDEST PUSH1 0x40 MLOAD DUP1 SWAP2 SUB SWAP1 REVERT JUMPDEST PUSH0 PUSH20 0xFFFFFFFFFFFFFFFFFFFFFFFFFFFFFFFFFFFFFFFF AND DUP3 PUSH20 0xFFFFFFFFFFFFFFFFFFFFFFFFFFFFFFFFFFFFFFFF AND SUB PUSH2 0x10B4 JUMPI PUSH1 0x40 MLOAD PUSH32 0x8C379A000000000000000000000000000000000000000000000000000000000 DUP2 MSTORE PUSH1 0x4 ADD PUSH2 0x10AB SWAP1 PUSH2 0x1AF0 JUMP JUMPDEST PUSH1 0x40 MLOAD DUP1 SWAP2 SUB SWAP1 REVERT JUMPDEST PUSH1 0x1 PUSH0 PUSH0 DUP3 DUP3 SLOAD PUSH2 0x10C5 SWAP2 SWAP1 PUSH2 0x1B0E JUMP JUMPDEST SWAP3 POP POP DUP2 SWAP1 SSTORE POP PUSH1 0x40 MLOAD DUP1 PUSH1 0xE0 ADD PUSH1 0x40 MSTORE DUP1 CALLER PUSH20 0xFFFFFFFFFFFFFFFFFFFFFFFFFFFFFFFFFFFFFFFF AND DUP2 MSTORE PUSH1 0x20 ADD DUP4 PUSH20 0xFFFFFFFFFFFFFFFFFFFFFFFFFFFFFFFFFFFFFFFF AND DUP2 MSTORE PUSH1 0x20 ADD CALLVALUE DUP2 MSTORE PUSH1 0x20 ADD PUSH0 PUSH1 0x2 DUP2 GT ISZERO PUSH2 0x1128 JUMPI PUSH2 0x1127 PUSH2 0x1417 JUMP JUMPDEST JUMPDEST DUP2 MSTORE PUSH1 0x20 ADD TIMESTAMP DUP2 MSTORE PUSH1 0x20 ADD PUSH0 DUP2 MSTORE PUSH1 0x20 ADD PUSH0 DUP2 MSTORE POP PUSH1 0x1 PUSH0 PUSH0 SLOAD DUP2 MSTORE PUSH1 0x20 ADD SWAP1 DUP2 MSTORE PUSH1 0x20 ADD PUSH0 KECCAK256 PUSH0 DUP3 ADD MLOAD DUP2 PUSH0 ADD PUSH0 PUSH2 0x100 EXP DUP2 SLOAD DUP2 PUSH20 0xFFFFFFFFFFFFFFFFFFFFFFFFFFFFFFFFFFFFFFFF MUL NOT AND SWAP1 DUP4 PUSH20 0xFFFFFFFFFFFFFFFFFFFFFFFFFFFFFFFFFFFFFFFF AND MUL OR SWAP1 SSTORE POP PUSH1 0x20 DUP3 ADD MLOAD DUP2 PUSH1 0x1 ADD PUSH0 PUSH2 0x100 EXP DUP2 SLOAD DUP2 PUSH20 0xFFFFFFFFFFFFFFFFFFFFFFFFFFFFFFFFFFFFFFFF MUL NOT AND SWAP1 DUP4 PUSH20 0xFFFFFFFFFFFFFFFFFFFFFFFFFFFFFFFFFFFFFFFF AND MUL OR SWAP1 SSTORE POP PUSH1 0x40 DUP3 ADD MLOAD DUP2 PUSH1 0x2 ADD SSTORE PUSH1 0x60 DUP3 ADD MLOAD DUP2 PUSH1 0x3 ADD PUSH0 PUSH2 0x100 EXP DUP2 SLOAD DUP2 PUSH1 0xFF MUL NOT AND SWAP1 DUP4 PUSH1 0x2 DUP2 GT ISZERO PUSH2 0x120D JUMPI PUSH2 0x120C PUSH2 0x1417 JUMP JUMPDEST JUMPDEST MUL OR SWAP1 SSTORE POP PUSH1 0x80 DUP3 ADD MLOAD DUP2 PUSH1 0x4 ADD SSTORE PUSH1 0xA0 DUP3 ADD MLOAD DUP2 PUSH1 0x5 ADD SSTORE PUSH1 0xC0 DUP3 ADD MLOAD DUP2 PUSH1 0x6 ADD SSTORE SWAP1 POP POP PUSH1 0x2 PUSH0 CALLER PUSH20 0xFFFFFFFFFFFFFFFFFFFFFFFFFFFFFFFFFFFFFFFF AND PUSH20 0xFFFFFFFFFFFFFFFFFFFFFFFFFFFFFFFFFFFFFFFF AND DUP2 MSTORE PUSH1 0x20 ADD SWAP1 DUP2 MSTORE PUSH1 0x20 ADD PUSH0 KECCAK256 PUSH0 SLOAD SWAP1 DUP1 PUSH1 0x1 DUP2 SLOAD ADD DUP1 DUP3 SSTORE DUP1 SWAP2 POP POP PUSH1 0x1 SWAP1 SUB SWAP1 PUSH0 MSTORE PUSH1 0x20 PUSH0 KECCAK256 ADD PUSH0 SWAP1 SWAP2 SWAP1 SWAP2 SWAP1 SWAP2 POP SSTORE PUSH1 0x3 PUSH0 DUP4 PUSH20 0xFFFFFFFFFFFFFFFFFFFFFFFFFFFFFFFFFFFFFFFF AND PUSH20 0xFFFFFFFFFFFFFFFFFFFFFFFFFFFFFFFFFFFFFFFF AND DUP2 MSTORE PUSH1 0x20 ADD SWAP1 DUP2 MSTORE PUSH1 0x20 ADD PUSH0 KECCAK256 PUSH0 SLOAD SWAP1 DUP1 PUSH1 0x1 DUP2 SLOAD ADD DUP1 DUP3 SSTORE DUP1 SWAP2 POP POP PUSH1 0x1 SWAP1 SUB SWAP1 PUSH0 MSTORE PUSH1 0x20 PUSH0 KECCAK256 ADD PUSH0 SWAP1 SWAP2 SWAP1 SWAP2 SWAP1 SWAP2 POP SSTORE DUP2 PUSH20 0xFFFFFFFFFFFFFFFFFFFFFFFFFFFFFFFFFFFFFFFF AND CALLER PUSH20 0xFFFFFFFFFFFFFFFFFFFFFFFFFFFFFFFFFFFFFFFF AND PUSH0 SLOAD PUSH32 0x9405AD0A6208539879349284D71265479B1623846F70303DA1F9890D6E8C10A7 CALLVALUE PUSH1 0x40 MLOAD PUSH2 0x1356 SWAP2 SWAP1 PUSH2 0x1658 JUMP JUMPDEST PUSH1 0x40 MLOAD DUP1 SWAP2 SUB SWAP1 LOG4 PUSH0 SLOAD SWAP1 POP SWAP2 SWAP1 POP JUMP JUMPDEST PUSH0 PUSH0 REVERT JUMPDEST PUSH0 DUP2 SWAP1 POP SWAP2 SWAP1 POP JUMP JUMPDEST PUSH2 0x137D DUP2 PUSH2 0x136B JUMP JUMPDEST DUP2 EQ PUSH2 0x1387 JUMPI PUSH0 PUSH0 REVERT JUMPDEST POP JUMP JUMPDEST PUSH0 DUP2 CALLDATALOAD SWAP1 POP PUSH2 0x1398 DUP2 PUSH2 0x1374 JUMP JUMPDEST SWAP3 SWAP2 POP POP JUMP JUMPDEST PUSH0 PUSH1 0x20 DUP3 DUP5 SUB SLT ISZERO PUSH2 0x13B3 JUMPI PUSH2 0x13B2 PUSH2 0x1367 JUMP JUMPDEST JUMPDEST PUSH0 PUSH2 0x13C0 DUP5 DUP3 DUP6 ADD PUSH2 0x138A JUMP JUMPDEST SWAP2 POP POP SWAP3 SWAP2 POP POP JUMP JUMPDEST PUSH0 PUSH20 0xFFFFFFFFFFFFFFFFFFFFFFFFFFFFFFFFFFFFFFFF DUP3 AND SWAP1 POP SWAP2 SWAP1 POP JUMP JUMPDEST PUSH0 PUSH2 0x13F2 DUP3 PUSH2 0x13C9 JUMP JUMPDEST SWAP1 POP SWAP2 SWAP1 POP JUMP JUMPDEST PUSH2 0x1402 DUP2 PUSH2 0x13E8 JUMP JUMPDEST DUP3 MSTORE POP POP JUMP JUMPDEST PUSH2 0x1411 DUP2 PUSH2 0x136B JUMP JUMPDEST DUP3 MSTORE POP POP JUMP JUMPDEST PUSH32 0x4E487B7100000000000000000000000000000000000000000000000000000000 PUSH0 MSTORE PUSH1 0x21 PUSH1 0x4 MSTORE PUSH1 0x24 PUSH0 REVERT JUMPDEST PUSH1 0x3 DUP2 LT PUSH2 0x1455 JUMPI PUSH2 0x1454 PUSH2 0x1417 JUMP JUMPDEST JUMPDEST POP JUMP JUMPDEST PUSH0 DUP2 SWAP1 POP PUSH2 0x1465 DUP3 PUSH2 0x1444 JUMP JUMPDEST SWAP2 SWAP1 POP JUMP JUMPDEST PUSH0 PUSH2 0x1474 DUP3 PUSH2 0x1458 JUMP JUMPDEST SWAP1 POP SWAP2 SWAP1 POP JUMP JUMPDEST PUSH2 0x1484 DUP2 PUSH2 0x146A JUMP JUMPDEST DUP3 MSTORE POP POP JUMP JUMPDEST PUSH0 PUSH1 0xE0 DUP3 ADD SWAP1 POP PUSH2 0x149D PUSH0 DUP4 ADD DUP11 PUSH2 0x13F9 JUMP JUMPDEST PUSH2 0x14AA PUSH1 0x20 DUP4 ADD DUP10 PUSH2 0x13F9 JUMP JUMPDEST PUSH2 0x14B7 PUSH1 0x40 DUP4 ADD DUP9 PUSH2 0x1408 JUMP JUMPDEST PUSH2 0x14C4 PUSH1 0x60 DUP4 ADD DUP8 PUSH2 0x147B JUMP JUMPDEST PUSH2 0x14D1 PUSH1 0x80 DUP4 ADD DUP7 PUSH2 0x1408 JUMP JUMPDEST PUSH2 0x14DE PUSH1 0xA0 DUP4 ADD DUP6 PUSH2 0x1408 JUMP JUMPDEST PUSH2 0x14EB PUSH1 0xC0 DUP4 ADD DUP5 PUSH2 0x1408 JUMP JUMPDEST SWAP9 SWAP8 POP POP POP POP POP POP POP POP JUMP JUMPDEST PUSH2 0x1500 DUP2 PUSH2 0x13E8 JUMP JUMPDEST DUP2 EQ PUSH2 0x150A JUMPI PUSH0 PUSH0 REVERT JUMPDEST POP JUMP JUMPDEST PUSH0 DUP2 CALLDATALOAD SWAP1 POP PUSH2 0x151B DUP2 PUSH2 0x14F7 JUMP JUMPDEST SWAP3 SWAP2 POP POP JUMP JUMPDEST PUSH0 PUSH1 0x20 DUP3 DUP5 SUB SLT ISZERO PUSH2 0x1536 JUMPI PUSH2 0x1535 PUSH2 0x1367 JUMP JUMPDEST JUMPDEST PUSH0 PUSH2 0x1543 DUP5 DUP3 DUP6 ADD PUSH2 0x150D JUMP JUMPDEST SWAP2 POP POP SWAP3 SWAP2 POP POP JUMP JUMPDEST PUSH0 DUP2 MLOAD SWAP1 POP SWAP2 SWAP1 POP JUMP JUMPDEST PUSH0 DUP3 DUP3 MSTORE PUSH1 0x20 DUP3 ADD SWAP1 POP SWAP3 SWAP2 POP POP JUMP JUMPDEST PUSH0 DUP2 SWAP1 POP PUSH1 0x20 DUP3 ADD SWAP1 POP SWAP2 SWAP1 POP JUMP JUMPDEST PUSH2 0x157E DUP2 PUSH2 0x136B JUMP JUMPDEST DUP3 MSTORE POP POP JUMP JUMPDEST PUSH0 PUSH2 0x158F DUP4 DUP4 PUSH2 0x1575 JUMP JUMPDEST PUSH1 0x20 DUP4 ADD SWAP1 POP SWAP3 SWAP2 POP POP JUMP JUMPDEST PUSH0 PUSH1 0x20 DUP3 ADD SWAP1 POP SWAP2 SWAP1 POP JUMP JUMPDEST PUSH0 PUSH2 0x15B1 DUP3 PUSH2 0x154C JUMP JUMPDEST PUSH2 0x15BB DUP2 DUP6 PUSH2 0x1556 JUMP JUMPDEST SWAP4 POP PUSH2 0x15C6 DUP4 PUSH2 0x1566 JUMP JUMPDEST DUP1 PUSH0 JUMPDEST DUP4 DUP2 LT ISZERO PUSH2 0x15F6 JUMPI DUP2 MLOAD PUSH2 0x15DD DUP9 DUP3 PUSH2 0x1584 JUMP JUMPDEST SWAP8 POP PUSH2 0x15E8 DUP4 PUSH2 0x159B JUMP JUMPDEST SWAP3 POP POP PUSH1 0x1 DUP2 ADD SWAP1 POP PUSH2 0x15C9 JUMP JUMPDEST POP DUP6 SWAP4 POP POP POP POP SWAP3 SWAP2 POP POP JUMP JUMPDEST PUSH0 PUSH1 0x20 DUP3 ADD SWAP1 POP DUP2 DUP2 SUB PUSH0 DUP4 ADD MSTORE PUSH2 0x161B DUP2 DUP5 PUSH2 0x15A7 JUMP JUMPDEST SWAP1 POP SWAP3 SWAP2 POP POP JUMP JUMPDEST PUSH0 PUSH1 0x40 DUP3 ADD SWAP1 POP DUP2 DUP2 SUB PUSH0 DUP4 ADD MSTORE PUSH2 0x163B DUP2 DUP6 PUSH2 0x15A7 JUMP JUMPDEST SWAP1 POP DUP2 DUP2 SUB PUSH1 0x20 DUP4 ADD MSTORE PUSH2 0x164F DUP2 DUP5 PUSH2 0x15A7 JUMP JUMPDEST SWAP1 POP SWAP4 SWAP3 POP POP POP JUMP JUMPDEST PUSH0 PUSH1 0x20 DUP3 ADD SWAP1 POP PUSH2 0x166B PUSH0 DUP4 ADD DUP5 PUSH2 0x1408 JUMP JUMPDEST SWAP3 SWAP2 POP POP JUMP JUMPDEST PUSH0 PUSH0 PUSH1 0x40 DUP4 DUP6 SUB SLT ISZERO PUSH2 0x1687 JUMPI PUSH2 0x1686 PUSH2 0x1367 JUMP JUMPDEST JUMPDEST PUSH0 PUSH2 0x1694 DUP6 DUP3 DUP7 ADD PUSH2 0x150D JUMP JUMPDEST SWAP3 POP POP PUSH1 0x20 PUSH2 0x16A5 DUP6 DUP3 DUP7 ADD PUSH2 0x138A JUMP JUMPDEST SWAP2 POP POP SWAP3 POP SWAP3 SWAP1 POP JUMP JUMPDEST PUSH0 DUP3 DUP3 MSTORE PUSH1 0x20 DUP3 ADD SWAP1 POP SWAP3 SWAP2 POP POP JUMP JUMPDEST PUSH32 0x4E6F7420726566756E6461626C65000000000000000000000000000000000000 PUSH0 DUP3 ADD MSTORE POP JUMP JUMPDEST PUSH0 PUSH2 0x16F3 PUSH1 0xE DUP4 PUSH2 0x16AF JUMP JUMPDEST SWAP2 POP PUSH2 0x16FE DUP3 PUSH2 0x16BF JUMP JUMPDEST PUSH1 0x20 DUP3 ADD SWAP1 POP SWAP2 SWAP1 POP JUMP JUMPDEST PUSH0 PUSH1 0x20 DUP3 ADD SWAP1 POP DUP2 DUP2 SUB PUSH0 DUP4 ADD MSTORE PUSH2 0x1720 DUP2 PUSH2 0x16E7 JUMP JUMPDEST SWAP1 POP SWAP2 SWAP1 POP JUMP JUMPDEST PUSH32 0x4F6E6C792073656E6465722063616E20726566756E6400000000000000000000 PUSH0 DUP3 ADD MSTORE POP JUMP JUMPDEST PUSH0 PUSH2 0x175B PUSH1 0x16 DUP4 PUSH2 0x16AF JUMP JUMPDEST SWAP2 POP PUSH2 0x1766 DUP3 PUSH2 0x1727 JUMP JUMPDEST PUSH1 0x20 DUP3 ADD SWAP1 POP SWAP2 SWAP1 POP JUMP JUMPDEST PUSH0 PUSH1 0x20 DUP3 ADD SWAP1 POP DUP2 DUP2 SUB PUSH0 DUP4 ADD MSTORE PUSH2 0x1788 DUP2 PUSH2 0x174F JUMP JUMPDEST SWAP1 POP SWAP2 SWAP1 POP JUMP JUMPDEST PUSH0 DUP2 SWAP1 POP SWAP3 SWAP2 POP POP JUMP JUMPDEST POP JUMP JUMPDEST PUSH0 PUSH2 0x17A7 PUSH0 DUP4 PUSH2 0x178F JUMP JUMPDEST SWAP2 POP PUSH2 0x17B2 DUP3 PUSH2 0x1799 JUMP JUMPDEST PUSH0 DUP3 ADD SWAP1 POP SWAP2 SWAP1 POP JUMP JUMPDEST PUSH0 PUSH2 0x17C6 DUP3 PUSH2 0x179C JUMP JUMPDEST SWAP2 POP DUP2 SWAP1 POP SWAP2 SWAP1 POP JUMP JUMPDEST PUSH32 0x526566756E64207472616E73666572206661696C656400000000000000000000 PUSH0 DUP3 ADD MSTORE POP JUMP JUMPDEST PUSH0 PUSH2 0x1804 PUSH1 0x16 DUP4 PUSH2 0x16AF JUMP JUMPDEST SWAP2 POP PUSH2 0x180F DUP3 PUSH2 0x17D0 JUMP JUMPDEST PUSH1 0x20 DUP3 ADD SWAP1 POP SWAP2 SWAP1 POP JUMP JUMPDEST PUSH0 PUSH1 0x20 DUP3 ADD SWAP1 POP DUP2 DUP2 SUB PUSH0 DUP4 ADD MSTORE PUSH2 0x1831 DUP2 PUSH2 0x17F8 JUMP JUMPDEST SWAP1 POP SWAP2 SWAP1 POP JUMP JUMPDEST PUSH32 0x4E6F7420636C61696D61626C6500000000000000000000000000000000000000 PUSH0 DUP3 ADD MSTORE POP JUMP JUMPDEST PUSH0 PUSH2 0x186C PUSH1 0xD DUP4 PUSH2 0x16AF JUMP JUMPDEST SWAP2 POP PUSH2 0x1877 DUP3 PUSH2 0x1838 JUMP JUMPDEST PUSH1 0x20 DUP3 ADD SWAP1 POP SWAP2 SWAP1 POP JUMP JUMPDEST PUSH0 PUSH1 0x20 DUP3 ADD SWAP1 POP DUP2 DUP2 SUB PUSH0 DUP4 ADD MSTORE PUSH2 0x1899 DUP2 PUSH2 0x1860 JUMP JUMPDEST SWAP1 POP SWAP2 SWAP1 POP JUMP JUMPDEST PUSH32 0x4F6E6C792072656365697665722063616E20636C61696D000000000000000000 PUSH0 DUP3 ADD MSTORE POP JUMP JUMPDEST PUSH0 PUSH2 0x18D4 PUSH1 0x17 DUP4 PUSH2 0x16AF JUMP JUMPDEST SWAP2 POP PUSH2 0x18DF DUP3 PUSH2 0x18A0 JUMP JUMPDEST PUSH1 0x20 DUP3 ADD SWAP1 POP SWAP2 SWAP1 POP JUMP JUMPDEST PUSH0 PUSH1 0x20 DUP3 ADD SWAP1 POP DUP2 DUP2 SUB PUSH0 DUP4 ADD MSTORE PUSH2 0x1901 DUP2 PUSH2 0x18C8 JUMP JUMPDEST SWAP1 POP SWAP2 SWAP1 POP JUMP JUMPDEST PUSH32 0x436C61696D207472616E73666572206661696C65640000000000000000000000 PUSH0 DUP3 ADD MSTORE POP JUMP JUMPDEST PUSH0 PUSH2 0x193C PUSH1 0x15 DUP4 PUSH2 0x16AF JUMP JUMPDEST SWAP2 POP PUSH2 0x1947 DUP3 PUSH2 0x1908 JUMP JUMPDEST PUSH1 0x20 DUP3 ADD SWAP1 POP SWAP2 SWAP1 POP JUMP JUMPDEST PUSH0 PUSH1 0x20 DUP3 ADD SWAP1 POP DUP2 DUP2 SUB PUSH0 DUP4 ADD MSTORE PUSH2 0x1969 DUP2 PUSH2 0x1930 JUMP JUMPDEST SWAP1 POP SWAP2 SWAP1 POP JUMP JUMPDEST PUSH32 0x4E487B7100000000000000000000000000000000000000000000000000000000 PUSH0 MSTORE PUSH1 0x41 PUSH1 0x4 MSTORE PUSH1 0x24 PUSH0 REVERT JUMPDEST PUSH32 0x4E487B7100000000000000000000000000000000000000000000000000000000 PUSH0 MSTORE PUSH1 0x32 PUSH1 0x4 MSTORE PUSH1 0x24 PUSH0 REVERT JUMPDEST PUSH32 0x4E487B7100000000000000000000000000000000000000000000000000000000 PUSH0 MSTORE PUSH1 0x11 PUSH1 0x4 MSTORE PUSH1 0x24 PUSH0 REVERT JUMPDEST PUSH0 PUSH2 0x1A01 DUP3 PUSH2 0x136B JUMP JUMPDEST SWAP2 POP PUSH32 0xFFFFFFFFFFFFFFFFFFFFFFFFFFFFFFFFFFFFFFFFFFFFFFFFFFFFFFFFFFFFFFFF DUP3 SUB PUSH2 0x1A33 JUMPI PUSH2 0x1A32 PUSH2 0x19CA JUMP JUMPDEST JUMPDEST PUSH1 0x1 DUP3 ADD SWAP1 POP SWAP2 SWAP1 POP JUMP JUMPDEST PUSH32 0x416D6F756E74206D757374206265203E30000000000000000000000000000000 PUSH0 DUP3 ADD MSTORE POP JUMP JUMPDEST PUSH0 PUSH2 0x1A72 PUSH1 0x11 DUP4 PUSH2 0x16AF JUMP JUMPDEST SWAP2 POP PUSH2 0x1A7D DUP3 PUSH2 0x1A3E JUMP JUMPDEST PUSH1 0x20 DUP3 ADD SWAP1 POP SWAP2 SWAP1 POP JUMP JUMPDEST PUSH0 PUSH1 0x20 DUP3 ADD SWAP1 POP DUP2 DUP2 SUB PUSH0 DUP4 ADD MSTORE PUSH2 0x1A9F DUP2 PUSH2 0x1A66 JUMP JUMPDEST SWAP1 POP SWAP2 SWAP1 POP JUMP JUMPDEST PUSH32 0x5265636569766572207265717569726564000000000000000000000000000000 PUSH0 DUP3 ADD MSTORE POP JUMP JUMPDEST PUSH0 PUSH2 0x1ADA PUSH1 0x11 DUP4 PUSH2 0x16AF JUMP JUMPDEST SWAP2 POP PUSH2 0x1AE5 DUP3 PUSH2 0x1AA6 JUMP JUMPDEST PUSH1 0x20 DUP3 ADD SWAP1 POP SWAP2 SWAP1 POP JUMP JUMPDEST PUSH0 PUSH1 0x20 DUP3 ADD SWAP1 POP DUP2 DUP2 SUB PUSH0 DUP4 ADD MSTORE PUSH2 0x1B07 DUP2 PUSH2 0x1ACE JUMP JUMPDEST SWAP1 POP SWAP2 SWAP1 POP JUMP JUMPDEST PUSH0 PUSH2 0x1B18 DUP3 PUSH2 0x136B JUMP JUMPDEST SWAP2 POP PUSH2 0x1B23 DUP4 PUSH2 0x136B JUMP JUMPDEST SWAP3 POP DUP3 DUP3 ADD SWAP1 POP DUP1 DUP3 GT ISZERO PUSH2 0x1B3B JUMPI PUSH2 0x1B3A PUSH2 0x19CA JUMP JUMPDEST JUMPDEST SWAP3 SWAP2 POP POP JUMP INVALID LOG2 PUSH5 0x6970667358 0x22 SLT KECCAK256 SUB 0x2D 0xEF 0xB1 0xBC 0xAC DUP6 DUP5 EXTDELEGATECALL 0x4F PUSH2 0xB146 0xBF 0xD4 0x27 AND PUSH12 0xA02240A5FB4665DFB46E9BC8 MLOAD MOD PUSH5 0x736F6C6343 STOP ADDMOD 0x1E STOP CALLER "
				},
				"gasEstimates": {
					"creation": {
						"codeDepositCost": "1406200",
						"executionCost": "1463",
						"totalCost": "1407663"
					},
					"external": {
						"claim(uint256)": "infinite",
						"createEscrow(address)": "infinite",
						"escrowCount()": "2446",
						"escrows(uint256)": "infinite",
						"getEscrowDetails(uint256)": "infinite",
						"getPendingActions(address)": "infinite",
						"getUserReceivedEscrows(address)": "infinite",
						"getUserSentEscrows(address)": "infinite",
						"receivedEscrows(address,uint256)": "infinite",
						"refund(uint256)": "infinite",
						"sentEscrows(address,uint256)": "infinite"
					}
				},
				"methodIdentifiers": {
					"claim(uint256)": "379607f5",
					"createEscrow(address)": "f6a8419e",
					"escrowCount()": "675ac67a",
					"escrows(uint256)": "012f52ee",
					"getEscrowDetails(uint256)": "b996ec2a",
					"getPendingActions(address)": "45fde2ae",
					"getUserReceivedEscrows(address)": "49cb31ee",
					"getUserSentEscrows(address)": "20d73edf",
					"receivedEscrows(address,uint256)": "b59ed878",
					"refund(uint256)": "278ecde1",
					"sentEscrows(address,uint256)": "e23ab08e"
				}
			},
			"storageLayout": {
				"storage": [
					{
						"astId": 23,
						"contract": "contracts/Wallet.sol:WalletX",
						"label": "escrowCount",
						"offset": 0,
						"slot": "0",
						"type": "t_uint256"
					},
					{
						"astId": 28,
						"contract": "contracts/Wallet.sol:WalletX",
						"label": "escrows",
						"offset": 0,
						"slot": "1",
						"type": "t_mapping(t_uint256,t_struct(Escrow)21_storage)"
					},
					{
						"astId": 33,
						"contract": "contracts/Wallet.sol:WalletX",
						"label": "sentEscrows",
						"offset": 0,
						"slot": "2",
						"type": "t_mapping(t_address,t_array(t_uint256)dyn_storage)"
					},
					{
						"astId": 38,
						"contract": "contracts/Wallet.sol:WalletX",
						"label": "receivedEscrows",
						"offset": 0,
						"slot": "3",
						"type": "t_mapping(t_address,t_array(t_uint256)dyn_storage)"
					}
				],
				"types": {
					"t_address": {
						"encoding": "inplace",
						"label": "address",
						"numberOfBytes": "20"
					},
					"t_array(t_uint256)dyn_storage": {
						"base": "t_uint256",
						"encoding": "dynamic_array",
						"label": "uint256[]",
						"numberOfBytes": "32"
					},
					"t_enum(EscrowStatus)5": {
						"encoding": "inplace",
						"label": "enum WalletX.EscrowStatus",
						"numberOfBytes": "1"
					},
					"t_mapping(t_address,t_array(t_uint256)dyn_storage)": {
						"encoding": "mapping",
						"key": "t_address",
						"label": "mapping(address => uint256[])",
						"numberOfBytes": "32",
						"value": "t_array(t_uint256)dyn_storage"
					},
					"t_mapping(t_uint256,t_struct(Escrow)21_storage)": {
						"encoding": "mapping",
						"key": "t_uint256",
						"label": "mapping(uint256 => struct WalletX.Escrow)",
						"numberOfBytes": "32",
						"value": "t_struct(Escrow)21_storage"
					},
					"t_struct(Escrow)21_storage": {
						"encoding": "inplace",
						"label": "struct WalletX.Escrow",
						"members": [
							{
								"astId": 7,
								"contract": "contracts/Wallet.sol:WalletX",
								"label": "sender",
								"offset": 0,
								"slot": "0",
								"type": "t_address"
							},
							{
								"astId": 9,
								"contract": "contracts/Wallet.sol:WalletX",
								"label": "receiver",
								"offset": 0,
								"slot": "1",
								"type": "t_address"
							},
							{
								"astId": 11,
								"contract": "contracts/Wallet.sol:WalletX",
								"label": "amount",
								"offset": 0,
								"slot": "2",
								"type": "t_uint256"
							},
							{
								"astId": 14,
								"contract": "contracts/Wallet.sol:WalletX",
								"label": "status",
								"offset": 0,
								"slot": "3",
								"type": "t_enum(EscrowStatus)5"
							},
							{
								"astId": 16,
								"contract": "contracts/Wallet.sol:WalletX",
								"label": "createdAt",
								"offset": 0,
								"slot": "4",
								"type": "t_uint256"
							},
							{
								"astId": 18,
								"contract": "contracts/Wallet.sol:WalletX",
								"label": "claimedAt",
								"offset": 0,
								"slot": "5",
								"type": "t_uint256"
							},
							{
								"astId": 20,
								"contract": "contracts/Wallet.sol:WalletX",
								"label": "refundedAt",
								"offset": 0,
								"slot": "6",
								"type": "t_uint256"
							}
						],
						"numberOfBytes": "224"
					},
					"t_uint256": {
						"encoding": "inplace",
						"label": "uint256",
						"numberOfBytes": "32"
					}
				}
			},
			"userdoc": {
				"kind": "user",
				"methods": {},
				"version": 1
			}
		}
	}
}